{
	"contracts/src/MerkleClaimERC20.sol": {
		"MerkleClaimERC20": {
			"abi": [
				{
					"inputs": [
						{
							"internalType": "address[]",
							"name": "_tokenAddresses",
							"type": "address[]"
						},
						{
							"internalType": "bytes32[]",
							"name": "_merkleRoots",
							"type": "bytes32[]"
						}
					],
					"stateMutability": "nonpayable",
					"type": "constructor"
				},
				{
					"inputs": [],
					"name": "AlreadyClaimed",
					"type": "error"
				},
				{
					"inputs": [],
					"name": "NotInMerkle",
					"type": "error"
				},
				{
					"anonymous": false,
					"inputs": [
						{
							"indexed": true,
							"internalType": "address",
							"name": "to",
							"type": "address"
						},
						{
							"indexed": false,
							"internalType": "uint256",
							"name": "amount",
							"type": "uint256"
						}
					],
					"name": "Claim",
					"type": "event"
				},
				{
					"inputs": [],
					"name": "DAO",
					"outputs": [
						{
							"internalType": "address",
							"name": "",
							"type": "address"
						}
					],
					"stateMutability": "view",
					"type": "function"
				},
				{
					"inputs": [
						{
							"internalType": "address",
							"name": "token",
							"type": "address"
						},
						{
							"internalType": "address",
							"name": "to",
							"type": "address"
						},
						{
							"internalType": "uint256",
							"name": "amount",
							"type": "uint256"
						},
						{
							"internalType": "bytes32[]",
							"name": "proof",
							"type": "bytes32[]"
						}
					],
					"name": "claim",
					"outputs": [],
					"stateMutability": "nonpayable",
					"type": "function"
				},
				{
					"inputs": [
						{
							"internalType": "address",
							"name": "",
							"type": "address"
						},
						{
							"internalType": "address",
							"name": "",
							"type": "address"
						}
					],
					"name": "hasClaimed",
					"outputs": [
						{
							"internalType": "bool",
							"name": "",
							"type": "bool"
						}
					],
					"stateMutability": "view",
					"type": "function"
				},
				{
					"inputs": [
						{
							"internalType": "address",
							"name": "",
							"type": "address"
						}
					],
					"name": "merkleRoots",
					"outputs": [
						{
							"internalType": "bytes32",
							"name": "",
							"type": "bytes32"
						}
					],
					"stateMutability": "view",
					"type": "function"
				},
				{
					"inputs": [
						{
							"internalType": "contract IERC20",
							"name": "token",
							"type": "address"
						},
						{
							"internalType": "uint256",
							"name": "amount",
							"type": "uint256"
						}
					],
					"name": "protocolFallback",
					"outputs": [],
					"stateMutability": "nonpayable",
					"type": "function"
				}
			],
			"devdoc": {
				"author": "Anish Agnihotri <contact@anishagnihotri.com>Luigy Lemon ",
				"details": "Solmate ERC20 includes unused _burn logic that can be removed to optimize deployment cost",
				"events": {
					"Claim(address,uint256)": {
						"params": {
							"amount": "of tokens claimed",
							"to": "recipient of claim"
						}
					}
				},
				"kind": "dev",
				"methods": {
					"claim(address,address,uint256,bytes32[])": {
						"params": {
							"amount": "of tokens owed to claimee",
							"proof": "merkle proof to prove address and amount are in tree",
							"to": "address of claimee"
						}
					},
					"constructor": {
						"params": {
							"_merkleRoots": "of claimees",
							"_tokenAddresses": "of claimable tokens"
						}
					}
				},
				"title": "MerkleClaimERC20",
				"version": 1
			},
			"evm": {
				"assembly": "    /* \"contracts/src/MerkleClaimERC20.sol\":572:3045  contract MerkleClaimERC20 {... */\n  mstore(0x40, 0xa0)\n    /* \"contracts/src/MerkleClaimERC20.sol\":778:820  0xb4c575308221CAA398e0DD2cDEB6B2f10d7b000A */\n  0xb4c575308221caa398e0dd2cdeb6b2f10d7b000a\n    /* \"contracts/src/MerkleClaimERC20.sol\":747:820  address public immutable DAO = 0xb4c575308221CAA398e0DD2cDEB6B2f10d7b000A */\n  0x80\n  mstore\n    /* \"contracts/src/MerkleClaimERC20.sol\":1421:1756  constructor(... */\n  callvalue\n  dup1\n  iszero\n  tag_1\n  jumpi\n  0x00\n  dup1\n  revert\ntag_1:\n  pop\n  mload(0x40)\n  sub(codesize, bytecodeSize)\n  dup1\n  bytecodeSize\n  dup4\n  codecopy\n  dup2\n  add\n  0x40\n  dup2\n  swap1\n  mstore\n  tag_2\n  swap2\n  tag_3\n  jump\t// in\ntag_2:\n    /* \"contracts/src/MerkleClaimERC20.sol\":1551:1563  _merkleRoots */\n  dup1\n    /* \"contracts/src/MerkleClaimERC20.sol\":1551:1570  _merkleRoots.length */\n  mload\n    /* \"contracts/src/MerkleClaimERC20.sol\":1525:1540  _tokenAddresses */\n  dup3\n    /* \"contracts/src/MerkleClaimERC20.sol\":1525:1547  _tokenAddresses.length */\n  mload\n    /* \"contracts/src/MerkleClaimERC20.sol\":1525:1570  _tokenAddresses.length == _merkleRoots.length */\n  eq\n    /* \"contracts/src/MerkleClaimERC20.sol\":1517:1611  require(_tokenAddresses.length == _merkleRoots.length , \"Need as many merkle Roots as tokens\") */\n  tag_6\n  jumpi\n  mload(0x40)\n  shl(0xe5, 0x461bcd)\n  dup2\n  mstore\n    /* \"#utility.yul\":2803:2805   */\n  0x20\n    /* \"contracts/src/MerkleClaimERC20.sol\":1517:1611  require(_tokenAddresses.length == _merkleRoots.length , \"Need as many merkle Roots as tokens\") */\n  0x04\n  dup3\n  add\n    /* \"#utility.yul\":2785:2806   */\n  mstore\n    /* \"#utility.yul\":2842:2844   */\n  0x23\n    /* \"#utility.yul\":2822:2840   */\n  0x24\n  dup3\n  add\n    /* \"#utility.yul\":2815:2845   */\n  mstore\n    /* \"#utility.yul\":2881:2915   */\n  0x4e656564206173206d616e79206d65726b6c6520526f6f747320617320746f6b\n    /* \"#utility.yul\":2861:2879   */\n  0x44\n  dup3\n  add\n    /* \"#utility.yul\":2854:2916   */\n  mstore\n  shl(0xe8, 0x656e73)\n    /* \"#utility.yul\":2932:2950   */\n  0x64\n  dup3\n  add\n    /* \"#utility.yul\":2925:2958   */\n  mstore\n    /* \"#utility.yul\":2975:2994   */\n  0x84\n  add\n    /* \"contracts/src/MerkleClaimERC20.sol\":1517:1611  require(_tokenAddresses.length == _merkleRoots.length , \"Need as many merkle Roots as tokens\") */\n  mload(0x40)\n  dup1\n  swap2\n  sub\n  swap1\n  revert\ntag_6:\n    /* \"contracts/src/MerkleClaimERC20.sol\":1622:1629  uint8 i */\n  0x00\n    /* \"contracts/src/MerkleClaimERC20.sol\":1617:1747  for (uint8 i =0; i< _tokenAddresses.length; i++){... */\ntag_9:\n    /* \"contracts/src/MerkleClaimERC20.sol\":1637:1652  _tokenAddresses */\n  dup3\n    /* \"contracts/src/MerkleClaimERC20.sol\":1637:1659  _tokenAddresses.length */\n  mload\n    /* \"contracts/src/MerkleClaimERC20.sol\":1634:1635  i */\n  dup2\n    /* \"contracts/src/MerkleClaimERC20.sol\":1634:1659  i< _tokenAddresses.length */\n  0xff\n  and\n  lt\n    /* \"contracts/src/MerkleClaimERC20.sol\":1617:1747  for (uint8 i =0; i< _tokenAddresses.length; i++){... */\n  iszero\n  tag_10\n  jumpi\n    /* \"contracts/src/MerkleClaimERC20.sol\":1709:1721  _merkleRoots */\n  dup2\n    /* \"contracts/src/MerkleClaimERC20.sol\":1722:1723  i */\n  dup2\n    /* \"contracts/src/MerkleClaimERC20.sol\":1709:1724  _merkleRoots[i] */\n  0xff\n  and\n  dup2\n  mload\n  dup2\n  lt\n  tag_13\n  jumpi\n  tag_13\n  tag_14\n  jump\t// in\ntag_13:\n  0x20\n  mul\n  0x20\n  add\n  add\n  mload\n    /* \"contracts/src/MerkleClaimERC20.sol\":1675:1686  merkleRoots */\n  0x00\n    /* \"contracts/src/MerkleClaimERC20.sol\":1675:1706  merkleRoots[_tokenAddresses[i]] */\n  dup1\n    /* \"contracts/src/MerkleClaimERC20.sol\":1687:1702  _tokenAddresses */\n  dup6\n    /* \"contracts/src/MerkleClaimERC20.sol\":1703:1704  i */\n  dup5\n    /* \"contracts/src/MerkleClaimERC20.sol\":1687:1705  _tokenAddresses[i] */\n  0xff\n  and\n  dup2\n  mload\n  dup2\n  lt\n  tag_16\n  jumpi\n  tag_16\n  tag_14\n  jump\t// in\ntag_16:\n  0x20\n  mul\n  0x20\n  add\n  add\n  mload\n  sub(shl(0xa0, 0x01), 0x01)\n    /* \"contracts/src/MerkleClaimERC20.sol\":1675:1706  merkleRoots[_tokenAddresses[i]] */\n  and\n  sub(shl(0xa0, 0x01), 0x01)\n  and\n  dup2\n  mstore\n  0x20\n  add\n  swap1\n  dup2\n  mstore\n  0x20\n  add\n  0x00\n  keccak256\n    /* \"contracts/src/MerkleClaimERC20.sol\":1675:1724  merkleRoots[_tokenAddresses[i]] = _merkleRoots[i] */\n  dup2\n  swap1\n  sstore\n  pop\n    /* \"contracts/src/MerkleClaimERC20.sol\":1661:1664  i++ */\n  dup1\n  dup1\n  tag_17\n  swap1\n  tag_18\n  jump\t// in\ntag_17:\n  swap2\n  pop\n  pop\n    /* \"contracts/src/MerkleClaimERC20.sol\":1617:1747  for (uint8 i =0; i< _tokenAddresses.length; i++){... */\n  jump(tag_9)\ntag_10:\n  pop\n    /* \"contracts/src/MerkleClaimERC20.sol\":1421:1756  constructor(... */\n  pop\n  pop\n    /* \"contracts/src/MerkleClaimERC20.sol\":572:3045  contract MerkleClaimERC20 {... */\n  jump(tag_24)\n    /* \"#utility.yul\":14:141   */\ntag_20:\n    /* \"#utility.yul\":75:85   */\n  0x4e487b71\n    /* \"#utility.yul\":70:73   */\n  0xe0\n    /* \"#utility.yul\":66:86   */\n  shl\n    /* \"#utility.yul\":63:64   */\n  0x00\n    /* \"#utility.yul\":56:87   */\n  mstore\n    /* \"#utility.yul\":106:110   */\n  0x41\n    /* \"#utility.yul\":103:104   */\n  0x04\n    /* \"#utility.yul\":96:111   */\n  mstore\n    /* \"#utility.yul\":130:134   */\n  0x24\n    /* \"#utility.yul\":127:128   */\n  0x00\n    /* \"#utility.yul\":120:135   */\n  revert\n    /* \"#utility.yul\":146:421   */\ntag_21:\n    /* \"#utility.yul\":217:219   */\n  0x40\n    /* \"#utility.yul\":211:220   */\n  mload\n    /* \"#utility.yul\":282:284   */\n  0x1f\n    /* \"#utility.yul\":263:276   */\n  dup3\n  add\n  not(0x1f)\n    /* \"#utility.yul\":259:286   */\n  and\n    /* \"#utility.yul\":247:287   */\n  dup2\n  add\n  sub(shl(0x40, 0x01), 0x01)\n    /* \"#utility.yul\":302:336   */\n  dup2\n  gt\n    /* \"#utility.yul\":338:360   */\n  dup3\n  dup3\n  lt\n    /* \"#utility.yul\":299:361   */\n  or\n    /* \"#utility.yul\":296:384   */\n  iszero\n  tag_28\n  jumpi\n    /* \"#utility.yul\":364:382   */\n  tag_28\n  tag_20\n  jump\t// in\ntag_28:\n    /* \"#utility.yul\":400:402   */\n  0x40\n    /* \"#utility.yul\":393:415   */\n  mstore\n    /* \"#utility.yul\":146:421   */\n  swap2\n  swap1\n  pop\n  jump\t// out\n    /* \"#utility.yul\":426:609   */\ntag_22:\n    /* \"#utility.yul\":486:490   */\n  0x00\n  sub(shl(0x40, 0x01), 0x01)\n    /* \"#utility.yul\":508:538   */\n  dup3\n  gt\n    /* \"#utility.yul\":505:561   */\n  iszero\n  tag_31\n  jumpi\n    /* \"#utility.yul\":541:559   */\n  tag_31\n  tag_20\n  jump\t// in\ntag_31:\n  pop\n    /* \"#utility.yul\":586:587   */\n  0x05\n    /* \"#utility.yul\":582:596   */\n  shl\n    /* \"#utility.yul\":598:602   */\n  0x20\n    /* \"#utility.yul\":578:603   */\n  add\n  swap1\n    /* \"#utility.yul\":426:609   */\n  jump\t// out\n    /* \"#utility.yul\":614:1273   */\ntag_23:\n    /* \"#utility.yul\":679:684   */\n  0x00\n    /* \"#utility.yul\":732:735   */\n  dup3\n    /* \"#utility.yul\":725:729   */\n  0x1f\n    /* \"#utility.yul\":717:723   */\n  dup4\n    /* \"#utility.yul\":713:730   */\n  add\n    /* \"#utility.yul\":709:736   */\n  slt\n    /* \"#utility.yul\":699:754   */\n  tag_33\n  jumpi\n    /* \"#utility.yul\":750:751   */\n  0x00\n    /* \"#utility.yul\":747:748   */\n  dup1\n    /* \"#utility.yul\":740:752   */\n  revert\n    /* \"#utility.yul\":699:754   */\ntag_33:\n    /* \"#utility.yul\":779:785   */\n  dup2\n    /* \"#utility.yul\":773:786   */\n  mload\n    /* \"#utility.yul\":805:809   */\n  0x20\n    /* \"#utility.yul\":829:889   */\n  tag_34\n    /* \"#utility.yul\":845:888   */\n  tag_35\n    /* \"#utility.yul\":885:887   */\n  dup4\n    /* \"#utility.yul\":845:888   */\n  tag_22\n  jump\t// in\ntag_35:\n    /* \"#utility.yul\":829:889   */\n  tag_21\n  jump\t// in\ntag_34:\n    /* \"#utility.yul\":923:938   */\n  dup3\n  dup2\n  mstore\n    /* \"#utility.yul\":1009:1010   */\n  0x05\n    /* \"#utility.yul\":1005:1015   */\n  swap3\n  swap1\n  swap3\n  shl\n    /* \"#utility.yul\":993:1016   */\n  dup5\n  add\n    /* \"#utility.yul\":989:1021   */\n  dup2\n  add\n  swap2\n    /* \"#utility.yul\":954:966   */\n  dup2\n  dup2\n  add\n  swap1\n    /* \"#utility.yul\":1033:1048   */\n  dup7\n  dup5\n  gt\n    /* \"#utility.yul\":1030:1065   */\n  iszero\n  tag_36\n  jumpi\n    /* \"#utility.yul\":1061:1062   */\n  0x00\n    /* \"#utility.yul\":1058:1059   */\n  dup1\n    /* \"#utility.yul\":1051:1063   */\n  revert\n    /* \"#utility.yul\":1030:1065   */\ntag_36:\n    /* \"#utility.yul\":1097:1099   */\n  dup3\n    /* \"#utility.yul\":1089:1095   */\n  dup7\n    /* \"#utility.yul\":1085:1100   */\n  add\n    /* \"#utility.yul\":1109:1244   */\ntag_37:\n    /* \"#utility.yul\":1125:1131   */\n  dup5\n    /* \"#utility.yul\":1120:1123   */\n  dup2\n    /* \"#utility.yul\":1117:1132   */\n  lt\n    /* \"#utility.yul\":1109:1244   */\n  iszero\n  tag_39\n  jumpi\n    /* \"#utility.yul\":1191:1201   */\n  dup1\n  mload\n    /* \"#utility.yul\":1179:1202   */\n  dup4\n  mstore\n    /* \"#utility.yul\":1222:1234   */\n  swap2\n  dup4\n  add\n  swap2\n    /* \"#utility.yul\":1142:1154   */\n  dup4\n  add\n    /* \"#utility.yul\":1109:1244   */\n  jump(tag_37)\ntag_39:\n  pop\n    /* \"#utility.yul\":1262:1267   */\n  swap7\n    /* \"#utility.yul\":614:1273   */\n  swap6\n  pop\n  pop\n  pop\n  pop\n  pop\n  pop\n  jump\t// out\n    /* \"#utility.yul\":1278:2596   */\ntag_3:\n    /* \"#utility.yul\":1407:1413   */\n  0x00\n    /* \"#utility.yul\":1415:1421   */\n  dup1\n    /* \"#utility.yul\":1468:1470   */\n  0x40\n    /* \"#utility.yul\":1456:1465   */\n  dup4\n    /* \"#utility.yul\":1447:1454   */\n  dup6\n    /* \"#utility.yul\":1443:1466   */\n  sub\n    /* \"#utility.yul\":1439:1471   */\n  slt\n    /* \"#utility.yul\":1436:1488   */\n  iszero\n  tag_41\n  jumpi\n    /* \"#utility.yul\":1484:1485   */\n  0x00\n    /* \"#utility.yul\":1481:1482   */\n  dup1\n    /* \"#utility.yul\":1474:1486   */\n  revert\n    /* \"#utility.yul\":1436:1488   */\ntag_41:\n    /* \"#utility.yul\":1511:1527   */\n  dup3\n  mload\n  sub(shl(0x40, 0x01), 0x01)\n    /* \"#utility.yul\":1576:1590   */\n  dup1\n  dup3\n  gt\n    /* \"#utility.yul\":1573:1607   */\n  iszero\n  tag_42\n  jumpi\n    /* \"#utility.yul\":1603:1604   */\n  0x00\n    /* \"#utility.yul\":1600:1601   */\n  dup1\n    /* \"#utility.yul\":1593:1605   */\n  revert\n    /* \"#utility.yul\":1573:1607   */\ntag_42:\n    /* \"#utility.yul\":1641:1647   */\n  dup2\n    /* \"#utility.yul\":1630:1639   */\n  dup6\n    /* \"#utility.yul\":1626:1648   */\n  add\n    /* \"#utility.yul\":1616:1648   */\n  swap2\n  pop\n    /* \"#utility.yul\":1686:1693   */\n  dup6\n    /* \"#utility.yul\":1679:1683   */\n  0x1f\n    /* \"#utility.yul\":1675:1677   */\n  dup4\n    /* \"#utility.yul\":1671:1684   */\n  add\n    /* \"#utility.yul\":1667:1694   */\n  slt\n    /* \"#utility.yul\":1657:1712   */\n  tag_43\n  jumpi\n    /* \"#utility.yul\":1708:1709   */\n  0x00\n    /* \"#utility.yul\":1705:1706   */\n  dup1\n    /* \"#utility.yul\":1698:1710   */\n  revert\n    /* \"#utility.yul\":1657:1712   */\ntag_43:\n    /* \"#utility.yul\":1737:1739   */\n  dup2\n    /* \"#utility.yul\":1731:1740   */\n  mload\n    /* \"#utility.yul\":1759:1763   */\n  0x20\n    /* \"#utility.yul\":1783:1843   */\n  tag_44\n    /* \"#utility.yul\":1799:1842   */\n  tag_35\n    /* \"#utility.yul\":1839:1841   */\n  dup4\n    /* \"#utility.yul\":1799:1842   */\n  tag_22\n  jump\t// in\n    /* \"#utility.yul\":1783:1843   */\ntag_44:\n    /* \"#utility.yul\":1877:1892   */\n  dup3\n  dup2\n  mstore\n    /* \"#utility.yul\":1959:1960   */\n  0x05\n    /* \"#utility.yul\":1955:1965   */\n  swap3\n  swap1\n  swap3\n  shl\n    /* \"#utility.yul\":1947:1966   */\n  dup5\n  add\n    /* \"#utility.yul\":1943:1971   */\n  dup2\n  add\n  swap2\n    /* \"#utility.yul\":1908:1920   */\n  dup2\n  dup2\n  add\n  swap1\n    /* \"#utility.yul\":1983:2002   */\n  dup10\n  dup5\n  gt\n    /* \"#utility.yul\":1980:2019   */\n  iszero\n  tag_46\n  jumpi\n    /* \"#utility.yul\":2015:2016   */\n  0x00\n    /* \"#utility.yul\":2012:2013   */\n  dup1\n    /* \"#utility.yul\":2005:2017   */\n  revert\n    /* \"#utility.yul\":1980:2019   */\ntag_46:\n    /* \"#utility.yul\":2039:2050   */\n  swap5\n  dup3\n  add\n  swap5\n    /* \"#utility.yul\":2059:2378   */\ntag_47:\n    /* \"#utility.yul\":2075:2081   */\n  dup4\n    /* \"#utility.yul\":2070:2073   */\n  dup7\n    /* \"#utility.yul\":2067:2082   */\n  lt\n    /* \"#utility.yul\":2059:2378   */\n  iszero\n  tag_49\n  jumpi\n    /* \"#utility.yul\":2142:2152   */\n  dup6\n  mload\n  sub(shl(0xa0, 0x01), 0x01)\n    /* \"#utility.yul\":2185:2216   */\n  dup2\n  and\n    /* \"#utility.yul\":2175:2217   */\n  dup2\n  eq\n    /* \"#utility.yul\":2165:2305   */\n  tag_50\n  jumpi\n    /* \"#utility.yul\":2259:2260   */\n  0x00\n    /* \"#utility.yul\":2288:2290   */\n  dup1\n    /* \"#utility.yul\":2284:2286   */\n  dup2\n    /* \"#utility.yul\":2277:2291   */\n  revert\n    /* \"#utility.yul\":2165:2305   */\ntag_50:\n    /* \"#utility.yul\":2318:2336   */\n  dup3\n  mstore\n    /* \"#utility.yul\":2092:2104   */\n  swap5\n  dup3\n  add\n  swap5\n    /* \"#utility.yul\":2356:2368   */\n  swap1\n  dup3\n  add\n  swap1\n    /* \"#utility.yul\":2059:2378   */\n  jump(tag_47)\ntag_49:\n    /* \"#utility.yul\":2433:2451   */\n  swap2\n  dup9\n  add\n    /* \"#utility.yul\":2427:2452   */\n  mload\n    /* \"#utility.yul\":2397:2402   */\n  swap2\n  swap7\n  pop\n    /* \"#utility.yul\":2427:2452   */\n  swap1\n  swap4\n  pop\n  pop\n  pop\n    /* \"#utility.yul\":2464:2480   */\n  dup1\n  dup3\n  gt\n    /* \"#utility.yul\":2461:2497   */\n  iszero\n  tag_51\n  jumpi\n    /* \"#utility.yul\":2493:2494   */\n  0x00\n    /* \"#utility.yul\":2490:2491   */\n  dup1\n    /* \"#utility.yul\":2483:2495   */\n  revert\n    /* \"#utility.yul\":2461:2497   */\ntag_51:\n  pop\n    /* \"#utility.yul\":2516:2590   */\n  tag_52\n    /* \"#utility.yul\":2582:2589   */\n  dup6\n    /* \"#utility.yul\":2571:2579   */\n  dup3\n    /* \"#utility.yul\":2560:2569   */\n  dup7\n    /* \"#utility.yul\":2556:2580   */\n  add\n    /* \"#utility.yul\":2516:2590   */\n  tag_23\n  jump\t// in\ntag_52:\n    /* \"#utility.yul\":2506:2590   */\n  swap2\n  pop\n  pop\n    /* \"#utility.yul\":1278:2596   */\n  swap3\n  pop\n  swap3\n  swap1\n  pop\n  jump\t// out\n    /* \"#utility.yul\":3005:3132   */\ntag_14:\n    /* \"#utility.yul\":3066:3076   */\n  0x4e487b71\n    /* \"#utility.yul\":3061:3064   */\n  0xe0\n    /* \"#utility.yul\":3057:3077   */\n  shl\n    /* \"#utility.yul\":3054:3055   */\n  0x00\n    /* \"#utility.yul\":3047:3078   */\n  mstore\n    /* \"#utility.yul\":3097:3101   */\n  0x32\n    /* \"#utility.yul\":3094:3095   */\n  0x04\n    /* \"#utility.yul\":3087:3102   */\n  mstore\n    /* \"#utility.yul\":3121:3125   */\n  0x24\n    /* \"#utility.yul\":3118:3119   */\n  0x00\n    /* \"#utility.yul\":3111:3126   */\n  revert\n    /* \"#utility.yul\":3137:3409   */\ntag_18:\n    /* \"#utility.yul\":3174:3177   */\n  0x00\n    /* \"#utility.yul\":3218:3222   */\n  0xff\n    /* \"#utility.yul\":3211:3216   */\n  dup3\n    /* \"#utility.yul\":3207:3223   */\n  and\n    /* \"#utility.yul\":3247:3251   */\n  0xff\n    /* \"#utility.yul\":3238:3245   */\n  dup2\n    /* \"#utility.yul\":3235:3252   */\n  sub\n    /* \"#utility.yul\":3232:3372   */\n  tag_56\n  jumpi\n    /* \"#utility.yul\":3294:3304   */\n  0x4e487b71\n    /* \"#utility.yul\":3289:3292   */\n  0xe0\n    /* \"#utility.yul\":3285:3305   */\n  shl\n    /* \"#utility.yul\":3282:3283   */\n  0x00\n    /* \"#utility.yul\":3275:3306   */\n  mstore\n    /* \"#utility.yul\":3329:3333   */\n  0x11\n    /* \"#utility.yul\":3326:3327   */\n  0x04\n    /* \"#utility.yul\":3319:3334   */\n  mstore\n    /* \"#utility.yul\":3357:3361   */\n  0x24\n    /* \"#utility.yul\":3354:3355   */\n  0x00\n    /* \"#utility.yul\":3347:3362   */\n  revert\n    /* \"#utility.yul\":3232:3372   */\ntag_56:\n    /* \"#utility.yul\":3401:3402   */\n  0x01\n    /* \"#utility.yul\":3388:3403   */\n  add\n  swap3\n    /* \"#utility.yul\":3137:3409   */\n  swap2\n  pop\n  pop\n  jump\t// out\ntag_24:\n    /* \"contracts/src/MerkleClaimERC20.sol\":572:3045  contract MerkleClaimERC20 {... */\n  mload(0x80)\n  codecopy(0x00, dataOffset(sub_0), dataSize(sub_0))\n  0x00\n  assignImmutable(\"0xa4f21281edf90d86f21da3432ee4f5dff8abfbde6aab55afd7f9f7d4d3676c77\")\n  return(0x00, dataSize(sub_0))\nstop\n\nsub_0: assembly {\n        /* \"contracts/src/MerkleClaimERC20.sol\":572:3045  contract MerkleClaimERC20 {... */\n      mstore(0x40, 0x80)\n      callvalue\n      dup1\n      iszero\n      tag_1\n      jumpi\n      0x00\n      dup1\n      revert\n    tag_1:\n      pop\n      jumpi(tag_2, lt(calldatasize, 0x04))\n      shr(0xe0, calldataload(0x00))\n      dup1\n      0x89266f60\n      eq\n      tag_3\n      jumpi\n      dup1\n      0x98fabd3a\n      eq\n      tag_4\n      jumpi\n      dup1\n      0xa7537986\n      eq\n      tag_5\n      jumpi\n      dup1\n      0xae9a6808\n      eq\n      tag_6\n      jumpi\n      dup1\n      0xfabed412\n      eq\n      tag_7\n      jumpi\n    tag_2:\n      0x00\n      dup1\n      revert\n        /* \"contracts/src/MerkleClaimERC20.sol\":932:994  mapping(address => mapping(address => bool)) public hasClaimed */\n    tag_3:\n      tag_8\n      tag_9\n      calldatasize\n      0x04\n      tag_10\n      jump\t// in\n    tag_9:\n      0x01\n      0x20\n      swap1\n      dup2\n      mstore\n      0x00\n      swap3\n      dup4\n      mstore\n      0x40\n      dup1\n      dup5\n      keccak256\n      swap1\n      swap2\n      mstore\n      swap1\n      dup3\n      mstore\n      swap1\n      keccak256\n      sload\n      0xff\n      and\n      dup2\n      jump\n    tag_8:\n      mload(0x40)\n        /* \"#utility.yul\":708:722   */\n      swap1\n      iszero\n        /* \"#utility.yul\":701:723   */\n      iszero\n        /* \"#utility.yul\":683:724   */\n      dup2\n      mstore\n        /* \"#utility.yul\":671:673   */\n      0x20\n        /* \"#utility.yul\":656:674   */\n      add\n        /* \"contracts/src/MerkleClaimERC20.sol\":932:994  mapping(address => mapping(address => bool)) public hasClaimed */\n    tag_12:\n      mload(0x40)\n      dup1\n      swap2\n      sub\n      swap1\n      return\n        /* \"contracts/src/MerkleClaimERC20.sol\":747:820  address public immutable DAO = 0xb4c575308221CAA398e0DD2cDEB6B2f10d7b000A */\n    tag_4:\n      tag_14\n      immutable(\"0xa4f21281edf90d86f21da3432ee4f5dff8abfbde6aab55afd7f9f7d4d3676c77\")\n      dup2\n      jump\n    tag_14:\n      mload(0x40)\n      sub(shl(0xa0, 0x01), 0x01)\n        /* \"#utility.yul\":899:931   */\n      swap1\n      swap2\n      and\n        /* \"#utility.yul\":881:932   */\n      dup2\n      mstore\n        /* \"#utility.yul\":869:871   */\n      0x20\n        /* \"#utility.yul\":854:872   */\n      add\n        /* \"contracts/src/MerkleClaimERC20.sol\":747:820  address public immutable DAO = 0xb4c575308221CAA398e0DD2cDEB6B2f10d7b000A */\n      tag_12\n        /* \"#utility.yul\":735:938   */\n      jump\n        /* \"contracts/src/MerkleClaimERC20.sol\":2877:3043  function protocolFallback(IERC20 token, uint256 amount) external {... */\n    tag_5:\n      tag_18\n      tag_19\n      calldatasize\n      0x04\n      tag_20\n      jump\t// in\n    tag_19:\n      tag_21\n      jump\t// in\n    tag_18:\n      stop\n        /* \"contracts/src/MerkleClaimERC20.sol\":697:743  mapping(address => bytes32) public merkleRoots */\n    tag_6:\n      tag_22\n      tag_23\n      calldatasize\n      0x04\n      tag_24\n      jump\t// in\n    tag_23:\n      0x00\n      0x20\n      dup2\n      swap1\n      mstore\n      swap1\n      dup2\n      mstore\n      0x40\n      swap1\n      keccak256\n      sload\n      dup2\n      jump\n    tag_22:\n      mload(0x40)\n        /* \"#utility.yul\":1674:1699   */\n      swap1\n      dup2\n      mstore\n        /* \"#utility.yul\":1662:1664   */\n      0x20\n        /* \"#utility.yul\":1647:1665   */\n      add\n        /* \"contracts/src/MerkleClaimERC20.sol\":697:743  mapping(address => bytes32) public merkleRoots */\n      tag_12\n        /* \"#utility.yul\":1528:1705   */\n      jump\n        /* \"contracts/src/MerkleClaimERC20.sol\":2245:2873  function claim(address token, address to, uint256 amount, bytes32[] calldata proof) external {... */\n    tag_7:\n      tag_18\n      tag_29\n      calldatasize\n      0x04\n      tag_30\n      jump\t// in\n    tag_29:\n      tag_31\n      jump\t// in\n        /* \"contracts/src/MerkleClaimERC20.sol\":2877:3043  function protocolFallback(IERC20 token, uint256 amount) external {... */\n    tag_21:\n        /* \"contracts/src/MerkleClaimERC20.sol\":2956:2966  msg.sender */\n      caller\n      sub(shl(0xa0, 0x01), 0x01)\n        /* \"contracts/src/MerkleClaimERC20.sol\":2970:2973  DAO */\n      immutable(\"0xa4f21281edf90d86f21da3432ee4f5dff8abfbde6aab55afd7f9f7d4d3676c77\")\n        /* \"contracts/src/MerkleClaimERC20.sol\":2956:2973  msg.sender == DAO */\n      and\n      eq\n        /* \"contracts/src/MerkleClaimERC20.sol\":2948:2974  require(msg.sender == DAO) */\n      tag_33\n      jumpi\n      0x00\n      dup1\n      revert\n    tag_33:\n        /* \"contracts/src/MerkleClaimERC20.sol\":3011:3038  token.transfer(DAO, amount) */\n      mload(0x40)\n      shl(0xe0, 0xa9059cbb)\n      dup2\n      mstore\n      sub(shl(0xa0, 0x01), 0x01)\n        /* \"contracts/src/MerkleClaimERC20.sol\":3026:3029  DAO */\n      immutable(\"0xa4f21281edf90d86f21da3432ee4f5dff8abfbde6aab55afd7f9f7d4d3676c77\")\n        /* \"#utility.yul\":2867:2899   */\n      dup2\n      and\n        /* \"contracts/src/MerkleClaimERC20.sol\":3011:3038  token.transfer(DAO, amount) */\n      0x04\n      dup4\n      add\n        /* \"#utility.yul\":2849:2900   */\n      mstore\n        /* \"#utility.yul\":2916:2934   */\n      0x24\n      dup3\n      add\n        /* \"#utility.yul\":2909:2943   */\n      dup4\n      swap1\n      mstore\n        /* \"contracts/src/MerkleClaimERC20.sol\":3011:3025  token.transfer */\n      dup4\n      and\n      swap1\n      0xa9059cbb\n      swap1\n        /* \"#utility.yul\":2822:2840   */\n      0x44\n      add\n        /* \"contracts/src/MerkleClaimERC20.sol\":3011:3038  token.transfer(DAO, amount) */\n      0x20\n      mload(0x40)\n      dup1\n      dup4\n      sub\n      dup2\n      0x00\n      dup8\n      gas\n      call\n      iszero\n      dup1\n      iszero\n      tag_37\n      jumpi\n      returndatasize\n      0x00\n      dup1\n      returndatacopy\n      revert(0x00, returndatasize)\n    tag_37:\n      pop\n      pop\n      pop\n      pop\n      mload(0x40)\n      returndatasize\n      not(0x1f)\n      0x1f\n      dup3\n      add\n      and\n      dup3\n      add\n      dup1\n      0x40\n      mstore\n      pop\n      dup2\n      add\n      swap1\n      tag_38\n      swap2\n      swap1\n      tag_39\n      jump\t// in\n    tag_38:\n      pop\n        /* \"contracts/src/MerkleClaimERC20.sol\":2877:3043  function protocolFallback(IERC20 token, uint256 amount) external {... */\n      pop\n      pop\n      jump\t// out\n        /* \"contracts/src/MerkleClaimERC20.sol\":2245:2873  function claim(address token, address to, uint256 amount, bytes32[] calldata proof) external {... */\n    tag_31:\n      sub(shl(0xa0, 0x01), 0x01)\n        /* \"contracts/src/MerkleClaimERC20.sol\":2399:2416  hasClaimed[token] */\n      dup1\n      dup7\n      and\n      0x00\n      swap1\n      dup2\n      mstore\n        /* \"contracts/src/MerkleClaimERC20.sol\":2399:2409  hasClaimed */\n      0x01\n        /* \"contracts/src/MerkleClaimERC20.sol\":2399:2416  hasClaimed[token] */\n      0x20\n      swap1\n      dup2\n      mstore\n      0x40\n      dup1\n      dup4\n      keccak256\n        /* \"contracts/src/MerkleClaimERC20.sol\":2399:2420  hasClaimed[token][to] */\n      swap4\n      dup9\n      and\n      dup4\n      mstore\n      swap3\n      swap1\n      mstore\n      keccak256\n      sload\n      0xff\n      and\n        /* \"contracts/src/MerkleClaimERC20.sol\":2395:2445  if (hasClaimed[token][to]) revert AlreadyClaimed() */\n      iszero\n      tag_41\n      jumpi\n        /* \"contracts/src/MerkleClaimERC20.sol\":2429:2445  AlreadyClaimed() */\n      mload(0x40)\n      shl(0xe3, 0x0c8d9eab)\n      dup2\n      mstore\n      0x04\n      add\n      mload(0x40)\n      dup1\n      swap2\n      sub\n      swap1\n      revert\n        /* \"contracts/src/MerkleClaimERC20.sol\":2395:2445  if (hasClaimed[token][to]) revert AlreadyClaimed() */\n    tag_41:\n        /* \"contracts/src/MerkleClaimERC20.sol\":2530:2558  abi.encodePacked(to, amount) */\n      mload(0x40)\n      not(0xffffffffffffffffffffffff)\n        /* \"#utility.yul\":3413:3415   */\n      0x60\n        /* \"#utility.yul\":3409:3424   */\n      dup7\n      swap1\n      shl\n        /* \"#utility.yul\":3405:3458   */\n      and\n        /* \"contracts/src/MerkleClaimERC20.sol\":2530:2558  abi.encodePacked(to, amount) */\n      0x20\n      dup3\n      add\n        /* \"#utility.yul\":3393:3459   */\n      mstore\n        /* \"#utility.yul\":3475:3487   */\n      0x34\n      dup2\n      add\n        /* \"#utility.yul\":3468:3496   */\n      dup5\n      swap1\n      mstore\n        /* \"contracts/src/MerkleClaimERC20.sol\":2505:2517  bytes32 leaf */\n      0x00\n      swap1\n        /* \"#utility.yul\":3512:3524   */\n      0x54\n      add\n        /* \"contracts/src/MerkleClaimERC20.sol\":2530:2558  abi.encodePacked(to, amount) */\n      mload(0x40)\n      0x20\n      dup2\n      dup4\n      sub\n      sub\n      dup2\n      mstore\n      swap1\n      0x40\n      mstore\n        /* \"contracts/src/MerkleClaimERC20.sol\":2520:2559  keccak256(abi.encodePacked(to, amount)) */\n      dup1\n      mload\n      swap1\n      0x20\n      add\n      keccak256\n        /* \"contracts/src/MerkleClaimERC20.sol\":2505:2559  bytes32 leaf = keccak256(abi.encodePacked(to, amount)) */\n      swap1\n      pop\n        /* \"contracts/src/MerkleClaimERC20.sol\":2565:2581  bool isValidLeaf */\n      0x00\n        /* \"contracts/src/MerkleClaimERC20.sol\":2584:2635  MerkleProof.verify(proof, merkleRoots[token], leaf) */\n      tag_44\n        /* \"contracts/src/MerkleClaimERC20.sol\":2603:2608  proof */\n      dup5\n      dup5\n        /* \"contracts/src/MerkleClaimERC20.sol\":2584:2635  MerkleProof.verify(proof, merkleRoots[token], leaf) */\n      dup1\n      dup1\n      0x20\n      mul\n      0x20\n      add\n      mload(0x40)\n      swap1\n      dup2\n      add\n      0x40\n      mstore\n      dup1\n      swap4\n      swap3\n      swap2\n      swap1\n      dup2\n      dup2\n      mstore\n      0x20\n      add\n      dup4\n      dup4\n      0x20\n      mul\n      dup1\n      dup3\n      dup5\n      calldatacopy\n      0x00\n      swap3\n      add\n      dup3\n      swap1\n      mstore\n      pop\n      sub(shl(0xa0, 0x01), 0x01)\n        /* \"contracts/src/MerkleClaimERC20.sol\":2610:2628  merkleRoots[token] */\n      dup14\n      and\n      dup2\n      mstore\n      0x20\n      dup2\n      swap1\n      mstore\n      0x40\n      swap1\n      keccak256\n      sload\n      swap3\n      pop\n        /* \"contracts/src/MerkleClaimERC20.sol\":2630:2634  leaf */\n      dup7\n      swap2\n      pop\n        /* \"contracts/src/MerkleClaimERC20.sol\":2584:2602  MerkleProof.verify */\n      tag_45\n      swap1\n      pop\n        /* \"contracts/src/MerkleClaimERC20.sol\":2584:2635  MerkleProof.verify(proof, merkleRoots[token], leaf) */\n      jump\t// in\n    tag_44:\n        /* \"contracts/src/MerkleClaimERC20.sol\":2565:2635  bool isValidLeaf = MerkleProof.verify(proof, merkleRoots[token], leaf) */\n      swap1\n      pop\n        /* \"contracts/src/MerkleClaimERC20.sol\":2646:2657  isValidLeaf */\n      dup1\n        /* \"contracts/src/MerkleClaimERC20.sol\":2641:2679  if (!isValidLeaf) revert NotInMerkle() */\n      tag_46\n      jumpi\n        /* \"contracts/src/MerkleClaimERC20.sol\":2666:2679  NotInMerkle() */\n      mload(0x40)\n      shl(0xe1, 0x452c2df1)\n      dup2\n      mstore\n      0x04\n      add\n      mload(0x40)\n      dup1\n      swap2\n      sub\n      swap1\n      revert\n        /* \"contracts/src/MerkleClaimERC20.sol\":2641:2679  if (!isValidLeaf) revert NotInMerkle() */\n    tag_46:\n      sub(shl(0xa0, 0x01), 0x01)\n        /* \"contracts/src/MerkleClaimERC20.sol\":2716:2733  hasClaimed[token] */\n      dup8\n      dup2\n      and\n      0x00\n      dup2\n      dup2\n      mstore\n        /* \"contracts/src/MerkleClaimERC20.sol\":2740:2744  true */\n      0x01\n        /* \"contracts/src/MerkleClaimERC20.sol\":2716:2733  hasClaimed[token] */\n      0x20\n      dup2\n      dup2\n      mstore\n      0x40\n      dup1\n      dup5\n      keccak256\n        /* \"contracts/src/MerkleClaimERC20.sol\":2716:2737  hasClaimed[token][to] */\n      swap6\n      dup13\n      and\n      dup1\n      dup6\n      mstore\n      swap6\n      swap1\n      swap2\n      mstore\n      swap2\n      dup3\n      swap1\n      keccak256\n        /* \"contracts/src/MerkleClaimERC20.sol\":2716:2744  hasClaimed[token][to] = true */\n      dup1\n      sload\n      not(0xff)\n      and\n      swap1\n      swap2\n      or\n      swap1\n      sstore\n        /* \"contracts/src/MerkleClaimERC20.sol\":2781:2815  IERC20(token).transfer(to, amount) */\n      mload\n      shl(0xe0, 0xa9059cbb)\n      dup2\n      mstore\n      0x04\n      dup2\n      add\n        /* \"#utility.yul\":2849:2900   */\n      swap3\n      swap1\n      swap3\n      mstore\n        /* \"#utility.yul\":2916:2934   */\n      0x24\n      dup3\n      add\n        /* \"#utility.yul\":2909:2943   */\n      dup8\n      swap1\n      mstore\n        /* \"contracts/src/MerkleClaimERC20.sol\":2716:2733  hasClaimed[token] */\n      swap1\n        /* \"contracts/src/MerkleClaimERC20.sol\":2781:2803  IERC20(token).transfer */\n      0xa9059cbb\n      swap1\n        /* \"#utility.yul\":2822:2840   */\n      0x44\n      add\n        /* \"contracts/src/MerkleClaimERC20.sol\":2781:2815  IERC20(token).transfer(to, amount) */\n      0x20\n      mload(0x40)\n      dup1\n      dup4\n      sub\n      dup2\n      0x00\n      dup8\n      gas\n      call\n      iszero\n      dup1\n      iszero\n      tag_49\n      jumpi\n      returndatasize\n      0x00\n      dup1\n      returndatacopy\n      revert(0x00, returndatasize)\n    tag_49:\n      pop\n      pop\n      pop\n      pop\n      mload(0x40)\n      returndatasize\n      not(0x1f)\n      0x1f\n      dup3\n      add\n      and\n      dup3\n      add\n      dup1\n      0x40\n      mstore\n      pop\n      dup2\n      add\n      swap1\n      tag_50\n      swap2\n      swap1\n      tag_39\n      jump\t// in\n    tag_50:\n      pop\n        /* \"contracts/src/MerkleClaimERC20.sol\":2857:2859  to */\n      dup6\n      sub(shl(0xa0, 0x01), 0x01)\n        /* \"contracts/src/MerkleClaimERC20.sol\":2851:2868  Claim(to, amount) */\n      and\n      0x47cee97cb7acd717b3c0aa1435d004cd5b3c8c57d70dbceb4e4458bbd60e39d4\n        /* \"contracts/src/MerkleClaimERC20.sol\":2861:2867  amount */\n      dup7\n        /* \"contracts/src/MerkleClaimERC20.sol\":2851:2868  Claim(to, amount) */\n      mload(0x40)\n      tag_51\n      swap2\n        /* \"#utility.yul\":1674:1699   */\n      dup2\n      mstore\n        /* \"#utility.yul\":1662:1664   */\n      0x20\n        /* \"#utility.yul\":1647:1665   */\n      add\n      swap1\n        /* \"#utility.yul\":1528:1705   */\n      jump\n        /* \"contracts/src/MerkleClaimERC20.sol\":2851:2868  Claim(to, amount) */\n    tag_51:\n      mload(0x40)\n      dup1\n      swap2\n      sub\n      swap1\n      log2\n        /* \"contracts/src/MerkleClaimERC20.sol\":2338:2873  {... */\n      pop\n      pop\n        /* \"contracts/src/MerkleClaimERC20.sol\":2245:2873  function claim(address token, address to, uint256 amount, bytes32[] calldata proof) external {... */\n      pop\n      pop\n      pop\n      pop\n      pop\n      jump\t// out\n        /* \"@openzeppelin/contracts/utils/cryptography/MerkleProof.sol\":1154:1338  function verify(... */\n    tag_45:\n        /* \"@openzeppelin/contracts/utils/cryptography/MerkleProof.sol\":1275:1279  bool */\n      0x00\n        /* \"@openzeppelin/contracts/utils/cryptography/MerkleProof.sol\":1327:1331  root */\n      dup3\n        /* \"@openzeppelin/contracts/utils/cryptography/MerkleProof.sol\":1298:1323  processProof(proof, leaf) */\n      tag_54\n        /* \"@openzeppelin/contracts/utils/cryptography/MerkleProof.sol\":1311:1316  proof */\n      dup6\n        /* \"@openzeppelin/contracts/utils/cryptography/MerkleProof.sol\":1318:1322  leaf */\n      dup5\n        /* \"@openzeppelin/contracts/utils/cryptography/MerkleProof.sol\":1298:1310  processProof */\n      tag_55\n        /* \"@openzeppelin/contracts/utils/cryptography/MerkleProof.sol\":1298:1323  processProof(proof, leaf) */\n      jump\t// in\n    tag_54:\n        /* \"@openzeppelin/contracts/utils/cryptography/MerkleProof.sol\":1298:1331  processProof(proof, leaf) == root */\n      eq\n      swap5\n        /* \"@openzeppelin/contracts/utils/cryptography/MerkleProof.sol\":1154:1338  function verify(... */\n      swap4\n      pop\n      pop\n      pop\n      pop\n      jump\t// out\n        /* \"@openzeppelin/contracts/utils/cryptography/MerkleProof.sol\":1689:2351  function processProof(bytes32[] memory proof, bytes32 leaf) internal pure returns (bytes32) {... */\n    tag_55:\n        /* \"@openzeppelin/contracts/utils/cryptography/MerkleProof.sol\":1772:1779  bytes32 */\n      0x00\n        /* \"@openzeppelin/contracts/utils/cryptography/MerkleProof.sol\":1814:1818  leaf */\n      dup2\n        /* \"@openzeppelin/contracts/utils/cryptography/MerkleProof.sol\":1772:1779  bytes32 */\n      dup2\n        /* \"@openzeppelin/contracts/utils/cryptography/MerkleProof.sol\":1828:2316  for (uint256 i = 0; i < proof.length; i++) {... */\n    tag_57:\n        /* \"@openzeppelin/contracts/utils/cryptography/MerkleProof.sol\":1852:1857  proof */\n      dup5\n        /* \"@openzeppelin/contracts/utils/cryptography/MerkleProof.sol\":1852:1864  proof.length */\n      mload\n        /* \"@openzeppelin/contracts/utils/cryptography/MerkleProof.sol\":1848:1849  i */\n      dup2\n        /* \"@openzeppelin/contracts/utils/cryptography/MerkleProof.sol\":1848:1864  i < proof.length */\n      lt\n        /* \"@openzeppelin/contracts/utils/cryptography/MerkleProof.sol\":1828:2316  for (uint256 i = 0; i < proof.length; i++) {... */\n      iszero\n      tag_58\n      jumpi\n        /* \"@openzeppelin/contracts/utils/cryptography/MerkleProof.sol\":1885:1905  bytes32 proofElement */\n      0x00\n        /* \"@openzeppelin/contracts/utils/cryptography/MerkleProof.sol\":1908:1913  proof */\n      dup6\n        /* \"@openzeppelin/contracts/utils/cryptography/MerkleProof.sol\":1914:1915  i */\n      dup3\n        /* \"@openzeppelin/contracts/utils/cryptography/MerkleProof.sol\":1908:1916  proof[i] */\n      dup2\n      mload\n      dup2\n      lt\n      tag_61\n      jumpi\n      tag_61\n      tag_62\n      jump\t// in\n    tag_61:\n      0x20\n      mul\n      0x20\n      add\n      add\n      mload\n        /* \"@openzeppelin/contracts/utils/cryptography/MerkleProof.sol\":1885:1916  bytes32 proofElement = proof[i] */\n      swap1\n      pop\n        /* \"@openzeppelin/contracts/utils/cryptography/MerkleProof.sol\":1950:1962  proofElement */\n      dup1\n        /* \"@openzeppelin/contracts/utils/cryptography/MerkleProof.sol\":1934:1946  computedHash */\n      dup4\n        /* \"@openzeppelin/contracts/utils/cryptography/MerkleProof.sol\":1934:1962  computedHash <= proofElement */\n      gt\n        /* \"@openzeppelin/contracts/utils/cryptography/MerkleProof.sol\":1930:2306  if (computedHash <= proofElement) {... */\n      tag_63\n      jumpi\n        /* \"@openzeppelin/contracts/utils/cryptography/MerkleProof.sol\":2425:2438  bytes32 value */\n      0x00\n        /* \"@openzeppelin/contracts/utils/cryptography/MerkleProof.sol\":2473:2488  mstore(0x00, a) */\n      dup4\n      dup2\n      mstore\n        /* \"@openzeppelin/contracts/utils/cryptography/MerkleProof.sol\":2508:2512  0x20 */\n      0x20\n        /* \"@openzeppelin/contracts/utils/cryptography/MerkleProof.sol\":2501:2516  mstore(0x20, b) */\n      dup3\n      swap1\n      mstore\n        /* \"@openzeppelin/contracts/utils/cryptography/MerkleProof.sol\":2554:2558  0x40 */\n      0x40\n        /* \"@openzeppelin/contracts/utils/cryptography/MerkleProof.sol\":2538:2559  keccak256(0x00, 0x40) */\n      swap1\n      keccak256\n        /* \"@openzeppelin/contracts/utils/cryptography/MerkleProof.sol\":2060:2117  computedHash = _efficientHash(computedHash, proofElement) */\n      swap3\n      pop\n        /* \"@openzeppelin/contracts/utils/cryptography/MerkleProof.sol\":1930:2306  if (computedHash <= proofElement) {... */\n      jump(tag_66)\n    tag_63:\n        /* \"@openzeppelin/contracts/utils/cryptography/MerkleProof.sol\":2425:2438  bytes32 value */\n      0x00\n        /* \"@openzeppelin/contracts/utils/cryptography/MerkleProof.sol\":2473:2488  mstore(0x00, a) */\n      dup2\n      dup2\n      mstore\n        /* \"@openzeppelin/contracts/utils/cryptography/MerkleProof.sol\":2508:2512  0x20 */\n      0x20\n        /* \"@openzeppelin/contracts/utils/cryptography/MerkleProof.sol\":2501:2516  mstore(0x20, b) */\n      dup5\n      swap1\n      mstore\n        /* \"@openzeppelin/contracts/utils/cryptography/MerkleProof.sol\":2554:2558  0x40 */\n      0x40\n        /* \"@openzeppelin/contracts/utils/cryptography/MerkleProof.sol\":2538:2559  keccak256(0x00, 0x40) */\n      swap1\n      keccak256\n        /* \"@openzeppelin/contracts/utils/cryptography/MerkleProof.sol\":2234:2291  computedHash = _efficientHash(proofElement, computedHash) */\n      swap3\n      pop\n        /* \"@openzeppelin/contracts/utils/cryptography/MerkleProof.sol\":1930:2306  if (computedHash <= proofElement) {... */\n    tag_66:\n      pop\n        /* \"@openzeppelin/contracts/utils/cryptography/MerkleProof.sol\":1866:1869  i++ */\n      dup1\n      tag_68\n      dup2\n      tag_69\n      jump\t// in\n    tag_68:\n      swap2\n      pop\n      pop\n        /* \"@openzeppelin/contracts/utils/cryptography/MerkleProof.sol\":1828:2316  for (uint256 i = 0; i < proof.length; i++) {... */\n      jump(tag_57)\n    tag_58:\n      pop\n        /* \"@openzeppelin/contracts/utils/cryptography/MerkleProof.sol\":2332:2344  computedHash */\n      swap4\n        /* \"@openzeppelin/contracts/utils/cryptography/MerkleProof.sol\":1689:2351  function processProof(bytes32[] memory proof, bytes32 leaf) internal pure returns (bytes32) {... */\n      swap3\n      pop\n      pop\n      pop\n      jump\t// out\n        /* \"#utility.yul\":14:145   */\n    tag_71:\n      sub(shl(0xa0, 0x01), 0x01)\n        /* \"#utility.yul\":89:120   */\n      dup2\n      and\n        /* \"#utility.yul\":79:121   */\n      dup2\n      eq\n        /* \"#utility.yul\":69:139   */\n      tag_74\n      jumpi\n        /* \"#utility.yul\":135:136   */\n      0x00\n        /* \"#utility.yul\":132:133   */\n      dup1\n        /* \"#utility.yul\":125:137   */\n      revert\n        /* \"#utility.yul\":69:139   */\n    tag_74:\n        /* \"#utility.yul\":14:145   */\n      pop\n      jump\t// out\n        /* \"#utility.yul\":150:538   */\n    tag_10:\n        /* \"#utility.yul\":218:224   */\n      0x00\n        /* \"#utility.yul\":226:232   */\n      dup1\n        /* \"#utility.yul\":279:281   */\n      0x40\n        /* \"#utility.yul\":267:276   */\n      dup4\n        /* \"#utility.yul\":258:265   */\n      dup6\n        /* \"#utility.yul\":254:277   */\n      sub\n        /* \"#utility.yul\":250:282   */\n      slt\n        /* \"#utility.yul\":247:299   */\n      iszero\n      tag_76\n      jumpi\n        /* \"#utility.yul\":295:296   */\n      0x00\n        /* \"#utility.yul\":292:293   */\n      dup1\n        /* \"#utility.yul\":285:297   */\n      revert\n        /* \"#utility.yul\":247:299   */\n    tag_76:\n        /* \"#utility.yul\":334:343   */\n      dup3\n        /* \"#utility.yul\":321:344   */\n      calldataload\n        /* \"#utility.yul\":353:384   */\n      tag_77\n        /* \"#utility.yul\":378:383   */\n      dup2\n        /* \"#utility.yul\":353:384   */\n      tag_71\n      jump\t// in\n    tag_77:\n        /* \"#utility.yul\":403:408   */\n      swap2\n      pop\n        /* \"#utility.yul\":460:462   */\n      0x20\n        /* \"#utility.yul\":445:463   */\n      dup4\n      add\n        /* \"#utility.yul\":432:464   */\n      calldataload\n        /* \"#utility.yul\":473:506   */\n      tag_78\n        /* \"#utility.yul\":432:464   */\n      dup2\n        /* \"#utility.yul\":473:506   */\n      tag_71\n      jump\t// in\n    tag_78:\n        /* \"#utility.yul\":525:532   */\n      dup1\n        /* \"#utility.yul\":515:532   */\n      swap2\n      pop\n      pop\n        /* \"#utility.yul\":150:538   */\n      swap3\n      pop\n      swap3\n      swap1\n      pop\n      jump\t// out\n        /* \"#utility.yul\":943:1271   */\n    tag_20:\n        /* \"#utility.yul\":1024:1030   */\n      0x00\n        /* \"#utility.yul\":1032:1038   */\n      dup1\n        /* \"#utility.yul\":1085:1087   */\n      0x40\n        /* \"#utility.yul\":1073:1082   */\n      dup4\n        /* \"#utility.yul\":1064:1071   */\n      dup6\n        /* \"#utility.yul\":1060:1083   */\n      sub\n        /* \"#utility.yul\":1056:1088   */\n      slt\n        /* \"#utility.yul\":1053:1105   */\n      iszero\n      tag_82\n      jumpi\n        /* \"#utility.yul\":1101:1102   */\n      0x00\n        /* \"#utility.yul\":1098:1099   */\n      dup1\n        /* \"#utility.yul\":1091:1103   */\n      revert\n        /* \"#utility.yul\":1053:1105   */\n    tag_82:\n        /* \"#utility.yul\":1140:1149   */\n      dup3\n        /* \"#utility.yul\":1127:1150   */\n      calldataload\n        /* \"#utility.yul\":1159:1190   */\n      tag_83\n        /* \"#utility.yul\":1184:1189   */\n      dup2\n        /* \"#utility.yul\":1159:1190   */\n      tag_71\n      jump\t// in\n    tag_83:\n        /* \"#utility.yul\":1209:1214   */\n      swap5\n        /* \"#utility.yul\":1261:1263   */\n      0x20\n        /* \"#utility.yul\":1246:1264   */\n      swap4\n      swap1\n      swap4\n      add\n        /* \"#utility.yul\":1233:1265   */\n      calldataload\n      swap4\n      pop\n      pop\n      pop\n        /* \"#utility.yul\":943:1271   */\n      jump\t// out\n        /* \"#utility.yul\":1276:1523   */\n    tag_24:\n        /* \"#utility.yul\":1335:1341   */\n      0x00\n        /* \"#utility.yul\":1388:1390   */\n      0x20\n        /* \"#utility.yul\":1376:1385   */\n      dup3\n        /* \"#utility.yul\":1367:1374   */\n      dup5\n        /* \"#utility.yul\":1363:1386   */\n      sub\n        /* \"#utility.yul\":1359:1391   */\n      slt\n        /* \"#utility.yul\":1356:1408   */\n      iszero\n      tag_85\n      jumpi\n        /* \"#utility.yul\":1404:1405   */\n      0x00\n        /* \"#utility.yul\":1401:1402   */\n      dup1\n        /* \"#utility.yul\":1394:1406   */\n      revert\n        /* \"#utility.yul\":1356:1408   */\n    tag_85:\n        /* \"#utility.yul\":1443:1452   */\n      dup2\n        /* \"#utility.yul\":1430:1453   */\n      calldataload\n        /* \"#utility.yul\":1462:1493   */\n      tag_86\n        /* \"#utility.yul\":1487:1492   */\n      dup2\n        /* \"#utility.yul\":1462:1493   */\n      tag_71\n      jump\t// in\n    tag_86:\n        /* \"#utility.yul\":1512:1517   */\n      swap4\n        /* \"#utility.yul\":1276:1523   */\n      swap3\n      pop\n      pop\n      pop\n      jump\t// out\n        /* \"#utility.yul\":1710:2670   */\n    tag_30:\n        /* \"#utility.yul\":1823:1829   */\n      0x00\n        /* \"#utility.yul\":1831:1837   */\n      dup1\n        /* \"#utility.yul\":1839:1845   */\n      0x00\n        /* \"#utility.yul\":1847:1853   */\n      dup1\n        /* \"#utility.yul\":1855:1861   */\n      0x00\n        /* \"#utility.yul\":1908:1911   */\n      0x80\n        /* \"#utility.yul\":1896:1905   */\n      dup7\n        /* \"#utility.yul\":1887:1894   */\n      dup9\n        /* \"#utility.yul\":1883:1906   */\n      sub\n        /* \"#utility.yul\":1879:1912   */\n      slt\n        /* \"#utility.yul\":1876:1929   */\n      iszero\n      tag_89\n      jumpi\n        /* \"#utility.yul\":1925:1926   */\n      0x00\n        /* \"#utility.yul\":1922:1923   */\n      dup1\n        /* \"#utility.yul\":1915:1927   */\n      revert\n        /* \"#utility.yul\":1876:1929   */\n    tag_89:\n        /* \"#utility.yul\":1964:1973   */\n      dup6\n        /* \"#utility.yul\":1951:1974   */\n      calldataload\n        /* \"#utility.yul\":1983:2014   */\n      tag_90\n        /* \"#utility.yul\":2008:2013   */\n      dup2\n        /* \"#utility.yul\":1983:2014   */\n      tag_71\n      jump\t// in\n    tag_90:\n        /* \"#utility.yul\":2033:2038   */\n      swap5\n      pop\n        /* \"#utility.yul\":2090:2092   */\n      0x20\n        /* \"#utility.yul\":2075:2093   */\n      dup7\n      add\n        /* \"#utility.yul\":2062:2094   */\n      calldataload\n        /* \"#utility.yul\":2103:2136   */\n      tag_91\n        /* \"#utility.yul\":2062:2094   */\n      dup2\n        /* \"#utility.yul\":2103:2136   */\n      tag_71\n      jump\t// in\n    tag_91:\n        /* \"#utility.yul\":2155:2162   */\n      swap4\n      pop\n        /* \"#utility.yul\":2209:2211   */\n      0x40\n        /* \"#utility.yul\":2194:2212   */\n      dup7\n      add\n        /* \"#utility.yul\":2181:2213   */\n      calldataload\n      swap3\n      pop\n        /* \"#utility.yul\":2264:2266   */\n      0x60\n        /* \"#utility.yul\":2249:2267   */\n      dup7\n      add\n        /* \"#utility.yul\":2236:2268   */\n      calldataload\n        /* \"#utility.yul\":2287:2305   */\n      0xffffffffffffffff\n        /* \"#utility.yul\":2317:2331   */\n      dup1\n      dup3\n      gt\n        /* \"#utility.yul\":2314:2348   */\n      iszero\n      tag_92\n      jumpi\n        /* \"#utility.yul\":2344:2345   */\n      0x00\n        /* \"#utility.yul\":2341:2342   */\n      dup1\n        /* \"#utility.yul\":2334:2346   */\n      revert\n        /* \"#utility.yul\":2314:2348   */\n    tag_92:\n        /* \"#utility.yul\":2382:2388   */\n      dup2\n        /* \"#utility.yul\":2371:2380   */\n      dup9\n        /* \"#utility.yul\":2367:2389   */\n      add\n        /* \"#utility.yul\":2357:2389   */\n      swap2\n      pop\n        /* \"#utility.yul\":2427:2434   */\n      dup9\n        /* \"#utility.yul\":2420:2424   */\n      0x1f\n        /* \"#utility.yul\":2416:2418   */\n      dup4\n        /* \"#utility.yul\":2412:2425   */\n      add\n        /* \"#utility.yul\":2408:2435   */\n      slt\n        /* \"#utility.yul\":2398:2453   */\n      tag_93\n      jumpi\n        /* \"#utility.yul\":2449:2450   */\n      0x00\n        /* \"#utility.yul\":2446:2447   */\n      dup1\n        /* \"#utility.yul\":2439:2451   */\n      revert\n        /* \"#utility.yul\":2398:2453   */\n    tag_93:\n        /* \"#utility.yul\":2489:2491   */\n      dup2\n        /* \"#utility.yul\":2476:2492   */\n      calldataload\n        /* \"#utility.yul\":2515:2517   */\n      dup2\n        /* \"#utility.yul\":2507:2513   */\n      dup2\n        /* \"#utility.yul\":2504:2518   */\n      gt\n        /* \"#utility.yul\":2501:2535   */\n      iszero\n      tag_94\n      jumpi\n        /* \"#utility.yul\":2531:2532   */\n      0x00\n        /* \"#utility.yul\":2528:2529   */\n      dup1\n        /* \"#utility.yul\":2521:2533   */\n      revert\n        /* \"#utility.yul\":2501:2535   */\n    tag_94:\n        /* \"#utility.yul\":2584:2591   */\n      dup10\n        /* \"#utility.yul\":2579:2581   */\n      0x20\n        /* \"#utility.yul\":2569:2575   */\n      dup3\n        /* \"#utility.yul\":2566:2567   */\n      0x05\n        /* \"#utility.yul\":2562:2576   */\n      shl\n        /* \"#utility.yul\":2558:2560   */\n      dup6\n        /* \"#utility.yul\":2554:2577   */\n      add\n        /* \"#utility.yul\":2550:2582   */\n      add\n        /* \"#utility.yul\":2547:2592   */\n      gt\n        /* \"#utility.yul\":2544:2609   */\n      iszero\n      tag_95\n      jumpi\n        /* \"#utility.yul\":2605:2606   */\n      0x00\n        /* \"#utility.yul\":2602:2603   */\n      dup1\n        /* \"#utility.yul\":2595:2607   */\n      revert\n        /* \"#utility.yul\":2544:2609   */\n    tag_95:\n        /* \"#utility.yul\":1710:2670   */\n      swap7\n      swap10\n      swap6\n      swap9\n      pop\n      swap4\n      swap7\n      pop\n        /* \"#utility.yul\":2636:2638   */\n      0x20\n        /* \"#utility.yul\":2628:2639   */\n      add\n      swap5\n        /* \"#utility.yul\":2658:2664   */\n      swap4\n        /* \"#utility.yul\":1710:2670   */\n      swap3\n      pop\n      pop\n      pop\n      jump\t// out\n        /* \"#utility.yul\":2954:3231   */\n    tag_39:\n        /* \"#utility.yul\":3021:3027   */\n      0x00\n        /* \"#utility.yul\":3074:3076   */\n      0x20\n        /* \"#utility.yul\":3062:3071   */\n      dup3\n        /* \"#utility.yul\":3053:3060   */\n      dup5\n        /* \"#utility.yul\":3049:3072   */\n      sub\n        /* \"#utility.yul\":3045:3077   */\n      slt\n        /* \"#utility.yul\":3042:3094   */\n      iszero\n      tag_98\n      jumpi\n        /* \"#utility.yul\":3090:3091   */\n      0x00\n        /* \"#utility.yul\":3087:3088   */\n      dup1\n        /* \"#utility.yul\":3080:3092   */\n      revert\n        /* \"#utility.yul\":3042:3094   */\n    tag_98:\n        /* \"#utility.yul\":3122:3131   */\n      dup2\n        /* \"#utility.yul\":3116:3132   */\n      mload\n        /* \"#utility.yul\":3175:3180   */\n      dup1\n        /* \"#utility.yul\":3168:3181   */\n      iszero\n        /* \"#utility.yul\":3161:3182   */\n      iszero\n        /* \"#utility.yul\":3154:3159   */\n      dup2\n        /* \"#utility.yul\":3151:3183   */\n      eq\n        /* \"#utility.yul\":3141:3201   */\n      tag_86\n      jumpi\n        /* \"#utility.yul\":3197:3198   */\n      0x00\n        /* \"#utility.yul\":3194:3195   */\n      dup1\n        /* \"#utility.yul\":3187:3199   */\n      revert\n        /* \"#utility.yul\":3717:3844   */\n    tag_62:\n        /* \"#utility.yul\":3778:3788   */\n      0x4e487b71\n        /* \"#utility.yul\":3773:3776   */\n      0xe0\n        /* \"#utility.yul\":3769:3789   */\n      shl\n        /* \"#utility.yul\":3766:3767   */\n      0x00\n        /* \"#utility.yul\":3759:3790   */\n      mstore\n        /* \"#utility.yul\":3809:3813   */\n      0x32\n        /* \"#utility.yul\":3806:3807   */\n      0x04\n        /* \"#utility.yul\":3799:3814   */\n      mstore\n        /* \"#utility.yul\":3833:3837   */\n      0x24\n        /* \"#utility.yul\":3830:3831   */\n      0x00\n        /* \"#utility.yul\":3823:3838   */\n      revert\n        /* \"#utility.yul\":3849:4081   */\n    tag_69:\n        /* \"#utility.yul\":3888:3891   */\n      0x00\n        /* \"#utility.yul\":3909:3926   */\n      0x01\n      dup3\n      add\n        /* \"#utility.yul\":3906:4046   */\n      tag_104\n      jumpi\n        /* \"#utility.yul\":3968:3978   */\n      0x4e487b71\n        /* \"#utility.yul\":3963:3966   */\n      0xe0\n        /* \"#utility.yul\":3959:3979   */\n      shl\n        /* \"#utility.yul\":3956:3957   */\n      0x00\n        /* \"#utility.yul\":3949:3980   */\n      mstore\n        /* \"#utility.yul\":4003:4007   */\n      0x11\n        /* \"#utility.yul\":4000:4001   */\n      0x04\n        /* \"#utility.yul\":3993:4008   */\n      mstore\n        /* \"#utility.yul\":4031:4035   */\n      0x24\n        /* \"#utility.yul\":4028:4029   */\n      0x00\n        /* \"#utility.yul\":4021:4036   */\n      revert\n        /* \"#utility.yul\":3906:4046   */\n    tag_104:\n      pop\n        /* \"#utility.yul\":4073:4074   */\n      0x01\n        /* \"#utility.yul\":4062:4075   */\n      add\n      swap1\n        /* \"#utility.yul\":3849:4081   */\n      jump\t// out\n\n    auxdata: 0xa26469706673582212209863411c7ff50776c744c7e16d5c8d98da718851aa8d8160d804b839d28ba01f64736f6c634300080d0033\n}\n",
				"bytecode": {
					"linkReferences": {},
					"object": "60a060405273b4c575308221caa398e0dd2cdeb6b2f10d7b000a6080523480156200002957600080fd5b50604051620009bb380380620009bb8339810160408190526200004c9162000226565b8051825114620000ae5760405162461bcd60e51b815260206004820152602360248201527f4e656564206173206d616e79206d65726b6c6520526f6f747320617320746f6b604482015262656e7360e81b606482015260840160405180910390fd5b60005b82518160ff1610156200013b57818160ff1681518110620000d657620000d662000304565b6020026020010151600080858460ff1681518110620000f957620000f962000304565b60200260200101516001600160a01b03166001600160a01b0316815260200190815260200160002081905550808062000132906200031a565b915050620000b1565b50505062000348565b634e487b7160e01b600052604160045260246000fd5b604051601f8201601f191681016001600160401b038111828210171562000185576200018562000144565b604052919050565b60006001600160401b03821115620001a957620001a962000144565b5060051b60200190565b600082601f830112620001c557600080fd5b81516020620001de620001d8836200018d565b6200015a565b82815260059290921b84018101918181019086841115620001fe57600080fd5b8286015b848110156200021b578051835291830191830162000202565b509695505050505050565b600080604083850312156200023a57600080fd5b82516001600160401b03808211156200025257600080fd5b818501915085601f8301126200026757600080fd5b815160206200027a620001d8836200018d565b82815260059290921b840181019181810190898411156200029a57600080fd5b948201945b83861015620002d15785516001600160a01b0381168114620002c15760008081fd5b825294820194908201906200029f565b91880151919650909350505080821115620002eb57600080fd5b50620002fa85828601620001b3565b9150509250929050565b634e487b7160e01b600052603260045260246000fd5b600060ff821660ff81036200033f57634e487b7160e01b600052601160045260246000fd5b60010192915050565b60805161064a620003716000396000818160a40152818161013f0152610180015261064a6000f3fe608060405234801561001057600080fd5b50600436106100575760003560e01c806389266f601461005c57806398fabd3a1461009f578063a7537986146100de578063ae9a6808146100f3578063fabed41214610121575b600080fd5b61008a61006a36600461048a565b600160209081526000928352604080842090915290825290205460ff1681565b60405190151581526020015b60405180910390f35b6100c67f000000000000000000000000000000000000000000000000000000000000000081565b6040516001600160a01b039091168152602001610096565b6100f16100ec3660046104c3565b610134565b005b6101136101013660046104ef565b60006020819052908152604090205481565b604051908152602001610096565b6100f161012f366004610513565b610201565b336001600160a01b037f0000000000000000000000000000000000000000000000000000000000000000161461016957600080fd5b60405163a9059cbb60e01b81526001600160a01b037f0000000000000000000000000000000000000000000000000000000000000000811660048301526024820183905283169063a9059cbb906044016020604051808303816000875af11580156101d8573d6000803e3d6000fd5b505050506040513d601f19601f820116820180604052508101906101fc91906105b5565b505050565b6001600160a01b0380861660009081526001602090815260408083209388168352929052205460ff161561024857604051630c8d9eab60e31b815260040160405180910390fd5b6040516bffffffffffffffffffffffff19606086901b1660208201526034810184905260009060540160405160208183030381529060405280519060200120905060006102df84848080602002602001604051908101604052809392919081815260200183836020028082843760009201829052506001600160a01b038d1681526020819052604090205492508691506103e89050565b9050806102ff5760405163452c2df160e11b815260040160405180910390fd5b6001600160a01b038781166000818152600160208181526040808420958c168085529590915291829020805460ff191690911790555163a9059cbb60e01b81526004810192909252602482018790529063a9059cbb906044016020604051808303816000875af1158015610377573d6000803e3d6000fd5b505050506040513d601f19601f8201168201806040525081019061039b91906105b5565b50856001600160a01b03167f47cee97cb7acd717b3c0aa1435d004cd5b3c8c57d70dbceb4e4458bbd60e39d4866040516103d791815260200190565b60405180910390a250505050505050565b6000826103f585846103fe565b14949350505050565b600081815b845181101561046a576000858281518110610420576104206105d7565b602002602001015190508083116104465760008381526020829052604090209250610457565b600081815260208490526040902092505b5080610462816105ed565b915050610403565b509392505050565b6001600160a01b038116811461048757600080fd5b50565b6000806040838503121561049d57600080fd5b82356104a881610472565b915060208301356104b881610472565b809150509250929050565b600080604083850312156104d657600080fd5b82356104e181610472565b946020939093013593505050565b60006020828403121561050157600080fd5b813561050c81610472565b9392505050565b60008060008060006080868803121561052b57600080fd5b853561053681610472565b9450602086013561054681610472565b935060408601359250606086013567ffffffffffffffff8082111561056a57600080fd5b818801915088601f83011261057e57600080fd5b81358181111561058d57600080fd5b8960208260051b85010111156105a257600080fd5b9699959850939650602001949392505050565b6000602082840312156105c757600080fd5b8151801515811461050c57600080fd5b634e487b7160e01b600052603260045260246000fd5b60006001820161060d57634e487b7160e01b600052601160045260246000fd5b506001019056fea26469706673582212209863411c7ff50776c744c7e16d5c8d98da718851aa8d8160d804b839d28ba01f64736f6c634300080d0033",
					"opcodes": "PUSH1 0xA0 PUSH1 0x40 MSTORE PUSH20 0xB4C575308221CAA398E0DD2CDEB6B2F10D7B000A PUSH1 0x80 MSTORE CALLVALUE DUP1 ISZERO PUSH3 0x29 JUMPI PUSH1 0x0 DUP1 REVERT JUMPDEST POP PUSH1 0x40 MLOAD PUSH3 0x9BB CODESIZE SUB DUP1 PUSH3 0x9BB DUP4 CODECOPY DUP2 ADD PUSH1 0x40 DUP2 SWAP1 MSTORE PUSH3 0x4C SWAP2 PUSH3 0x226 JUMP JUMPDEST DUP1 MLOAD DUP3 MLOAD EQ PUSH3 0xAE JUMPI PUSH1 0x40 MLOAD PUSH3 0x461BCD PUSH1 0xE5 SHL DUP2 MSTORE PUSH1 0x20 PUSH1 0x4 DUP3 ADD MSTORE PUSH1 0x23 PUSH1 0x24 DUP3 ADD MSTORE PUSH32 0x4E656564206173206D616E79206D65726B6C6520526F6F747320617320746F6B PUSH1 0x44 DUP3 ADD MSTORE PUSH3 0x656E73 PUSH1 0xE8 SHL PUSH1 0x64 DUP3 ADD MSTORE PUSH1 0x84 ADD PUSH1 0x40 MLOAD DUP1 SWAP2 SUB SWAP1 REVERT JUMPDEST PUSH1 0x0 JUMPDEST DUP3 MLOAD DUP2 PUSH1 0xFF AND LT ISZERO PUSH3 0x13B JUMPI DUP2 DUP2 PUSH1 0xFF AND DUP2 MLOAD DUP2 LT PUSH3 0xD6 JUMPI PUSH3 0xD6 PUSH3 0x304 JUMP JUMPDEST PUSH1 0x20 MUL PUSH1 0x20 ADD ADD MLOAD PUSH1 0x0 DUP1 DUP6 DUP5 PUSH1 0xFF AND DUP2 MLOAD DUP2 LT PUSH3 0xF9 JUMPI PUSH3 0xF9 PUSH3 0x304 JUMP JUMPDEST PUSH1 0x20 MUL PUSH1 0x20 ADD ADD MLOAD PUSH1 0x1 PUSH1 0x1 PUSH1 0xA0 SHL SUB AND PUSH1 0x1 PUSH1 0x1 PUSH1 0xA0 SHL SUB AND DUP2 MSTORE PUSH1 0x20 ADD SWAP1 DUP2 MSTORE PUSH1 0x20 ADD PUSH1 0x0 KECCAK256 DUP2 SWAP1 SSTORE POP DUP1 DUP1 PUSH3 0x132 SWAP1 PUSH3 0x31A JUMP JUMPDEST SWAP2 POP POP PUSH3 0xB1 JUMP JUMPDEST POP POP POP PUSH3 0x348 JUMP JUMPDEST PUSH4 0x4E487B71 PUSH1 0xE0 SHL PUSH1 0x0 MSTORE PUSH1 0x41 PUSH1 0x4 MSTORE PUSH1 0x24 PUSH1 0x0 REVERT JUMPDEST PUSH1 0x40 MLOAD PUSH1 0x1F DUP3 ADD PUSH1 0x1F NOT AND DUP2 ADD PUSH1 0x1 PUSH1 0x1 PUSH1 0x40 SHL SUB DUP2 GT DUP3 DUP3 LT OR ISZERO PUSH3 0x185 JUMPI PUSH3 0x185 PUSH3 0x144 JUMP JUMPDEST PUSH1 0x40 MSTORE SWAP2 SWAP1 POP JUMP JUMPDEST PUSH1 0x0 PUSH1 0x1 PUSH1 0x1 PUSH1 0x40 SHL SUB DUP3 GT ISZERO PUSH3 0x1A9 JUMPI PUSH3 0x1A9 PUSH3 0x144 JUMP JUMPDEST POP PUSH1 0x5 SHL PUSH1 0x20 ADD SWAP1 JUMP JUMPDEST PUSH1 0x0 DUP3 PUSH1 0x1F DUP4 ADD SLT PUSH3 0x1C5 JUMPI PUSH1 0x0 DUP1 REVERT JUMPDEST DUP2 MLOAD PUSH1 0x20 PUSH3 0x1DE PUSH3 0x1D8 DUP4 PUSH3 0x18D JUMP JUMPDEST PUSH3 0x15A JUMP JUMPDEST DUP3 DUP2 MSTORE PUSH1 0x5 SWAP3 SWAP1 SWAP3 SHL DUP5 ADD DUP2 ADD SWAP2 DUP2 DUP2 ADD SWAP1 DUP7 DUP5 GT ISZERO PUSH3 0x1FE JUMPI PUSH1 0x0 DUP1 REVERT JUMPDEST DUP3 DUP7 ADD JUMPDEST DUP5 DUP2 LT ISZERO PUSH3 0x21B JUMPI DUP1 MLOAD DUP4 MSTORE SWAP2 DUP4 ADD SWAP2 DUP4 ADD PUSH3 0x202 JUMP JUMPDEST POP SWAP7 SWAP6 POP POP POP POP POP POP JUMP JUMPDEST PUSH1 0x0 DUP1 PUSH1 0x40 DUP4 DUP6 SUB SLT ISZERO PUSH3 0x23A JUMPI PUSH1 0x0 DUP1 REVERT JUMPDEST DUP3 MLOAD PUSH1 0x1 PUSH1 0x1 PUSH1 0x40 SHL SUB DUP1 DUP3 GT ISZERO PUSH3 0x252 JUMPI PUSH1 0x0 DUP1 REVERT JUMPDEST DUP2 DUP6 ADD SWAP2 POP DUP6 PUSH1 0x1F DUP4 ADD SLT PUSH3 0x267 JUMPI PUSH1 0x0 DUP1 REVERT JUMPDEST DUP2 MLOAD PUSH1 0x20 PUSH3 0x27A PUSH3 0x1D8 DUP4 PUSH3 0x18D JUMP JUMPDEST DUP3 DUP2 MSTORE PUSH1 0x5 SWAP3 SWAP1 SWAP3 SHL DUP5 ADD DUP2 ADD SWAP2 DUP2 DUP2 ADD SWAP1 DUP10 DUP5 GT ISZERO PUSH3 0x29A JUMPI PUSH1 0x0 DUP1 REVERT JUMPDEST SWAP5 DUP3 ADD SWAP5 JUMPDEST DUP4 DUP7 LT ISZERO PUSH3 0x2D1 JUMPI DUP6 MLOAD PUSH1 0x1 PUSH1 0x1 PUSH1 0xA0 SHL SUB DUP2 AND DUP2 EQ PUSH3 0x2C1 JUMPI PUSH1 0x0 DUP1 DUP2 REVERT JUMPDEST DUP3 MSTORE SWAP5 DUP3 ADD SWAP5 SWAP1 DUP3 ADD SWAP1 PUSH3 0x29F JUMP JUMPDEST SWAP2 DUP9 ADD MLOAD SWAP2 SWAP7 POP SWAP1 SWAP4 POP POP POP DUP1 DUP3 GT ISZERO PUSH3 0x2EB JUMPI PUSH1 0x0 DUP1 REVERT JUMPDEST POP PUSH3 0x2FA DUP6 DUP3 DUP7 ADD PUSH3 0x1B3 JUMP JUMPDEST SWAP2 POP POP SWAP3 POP SWAP3 SWAP1 POP JUMP JUMPDEST PUSH4 0x4E487B71 PUSH1 0xE0 SHL PUSH1 0x0 MSTORE PUSH1 0x32 PUSH1 0x4 MSTORE PUSH1 0x24 PUSH1 0x0 REVERT JUMPDEST PUSH1 0x0 PUSH1 0xFF DUP3 AND PUSH1 0xFF DUP2 SUB PUSH3 0x33F JUMPI PUSH4 0x4E487B71 PUSH1 0xE0 SHL PUSH1 0x0 MSTORE PUSH1 0x11 PUSH1 0x4 MSTORE PUSH1 0x24 PUSH1 0x0 REVERT JUMPDEST PUSH1 0x1 ADD SWAP3 SWAP2 POP POP JUMP JUMPDEST PUSH1 0x80 MLOAD PUSH2 0x64A PUSH3 0x371 PUSH1 0x0 CODECOPY PUSH1 0x0 DUP2 DUP2 PUSH1 0xA4 ADD MSTORE DUP2 DUP2 PUSH2 0x13F ADD MSTORE PUSH2 0x180 ADD MSTORE PUSH2 0x64A PUSH1 0x0 RETURN INVALID PUSH1 0x80 PUSH1 0x40 MSTORE CALLVALUE DUP1 ISZERO PUSH2 0x10 JUMPI PUSH1 0x0 DUP1 REVERT JUMPDEST POP PUSH1 0x4 CALLDATASIZE LT PUSH2 0x57 JUMPI PUSH1 0x0 CALLDATALOAD PUSH1 0xE0 SHR DUP1 PUSH4 0x89266F60 EQ PUSH2 0x5C JUMPI DUP1 PUSH4 0x98FABD3A EQ PUSH2 0x9F JUMPI DUP1 PUSH4 0xA7537986 EQ PUSH2 0xDE JUMPI DUP1 PUSH4 0xAE9A6808 EQ PUSH2 0xF3 JUMPI DUP1 PUSH4 0xFABED412 EQ PUSH2 0x121 JUMPI JUMPDEST PUSH1 0x0 DUP1 REVERT JUMPDEST PUSH2 0x8A PUSH2 0x6A CALLDATASIZE PUSH1 0x4 PUSH2 0x48A JUMP JUMPDEST PUSH1 0x1 PUSH1 0x20 SWAP1 DUP2 MSTORE PUSH1 0x0 SWAP3 DUP4 MSTORE PUSH1 0x40 DUP1 DUP5 KECCAK256 SWAP1 SWAP2 MSTORE SWAP1 DUP3 MSTORE SWAP1 KECCAK256 SLOAD PUSH1 0xFF AND DUP2 JUMP JUMPDEST PUSH1 0x40 MLOAD SWAP1 ISZERO ISZERO DUP2 MSTORE PUSH1 0x20 ADD JUMPDEST PUSH1 0x40 MLOAD DUP1 SWAP2 SUB SWAP1 RETURN JUMPDEST PUSH2 0xC6 PUSH32 0x0 DUP2 JUMP JUMPDEST PUSH1 0x40 MLOAD PUSH1 0x1 PUSH1 0x1 PUSH1 0xA0 SHL SUB SWAP1 SWAP2 AND DUP2 MSTORE PUSH1 0x20 ADD PUSH2 0x96 JUMP JUMPDEST PUSH2 0xF1 PUSH2 0xEC CALLDATASIZE PUSH1 0x4 PUSH2 0x4C3 JUMP JUMPDEST PUSH2 0x134 JUMP JUMPDEST STOP JUMPDEST PUSH2 0x113 PUSH2 0x101 CALLDATASIZE PUSH1 0x4 PUSH2 0x4EF JUMP JUMPDEST PUSH1 0x0 PUSH1 0x20 DUP2 SWAP1 MSTORE SWAP1 DUP2 MSTORE PUSH1 0x40 SWAP1 KECCAK256 SLOAD DUP2 JUMP JUMPDEST PUSH1 0x40 MLOAD SWAP1 DUP2 MSTORE PUSH1 0x20 ADD PUSH2 0x96 JUMP JUMPDEST PUSH2 0xF1 PUSH2 0x12F CALLDATASIZE PUSH1 0x4 PUSH2 0x513 JUMP JUMPDEST PUSH2 0x201 JUMP JUMPDEST CALLER PUSH1 0x1 PUSH1 0x1 PUSH1 0xA0 SHL SUB PUSH32 0x0 AND EQ PUSH2 0x169 JUMPI PUSH1 0x0 DUP1 REVERT JUMPDEST PUSH1 0x40 MLOAD PUSH4 0xA9059CBB PUSH1 0xE0 SHL DUP2 MSTORE PUSH1 0x1 PUSH1 0x1 PUSH1 0xA0 SHL SUB PUSH32 0x0 DUP2 AND PUSH1 0x4 DUP4 ADD MSTORE PUSH1 0x24 DUP3 ADD DUP4 SWAP1 MSTORE DUP4 AND SWAP1 PUSH4 0xA9059CBB SWAP1 PUSH1 0x44 ADD PUSH1 0x20 PUSH1 0x40 MLOAD DUP1 DUP4 SUB DUP2 PUSH1 0x0 DUP8 GAS CALL ISZERO DUP1 ISZERO PUSH2 0x1D8 JUMPI RETURNDATASIZE PUSH1 0x0 DUP1 RETURNDATACOPY RETURNDATASIZE PUSH1 0x0 REVERT JUMPDEST POP POP POP POP PUSH1 0x40 MLOAD RETURNDATASIZE PUSH1 0x1F NOT PUSH1 0x1F DUP3 ADD AND DUP3 ADD DUP1 PUSH1 0x40 MSTORE POP DUP2 ADD SWAP1 PUSH2 0x1FC SWAP2 SWAP1 PUSH2 0x5B5 JUMP JUMPDEST POP POP POP JUMP JUMPDEST PUSH1 0x1 PUSH1 0x1 PUSH1 0xA0 SHL SUB DUP1 DUP7 AND PUSH1 0x0 SWAP1 DUP2 MSTORE PUSH1 0x1 PUSH1 0x20 SWAP1 DUP2 MSTORE PUSH1 0x40 DUP1 DUP4 KECCAK256 SWAP4 DUP9 AND DUP4 MSTORE SWAP3 SWAP1 MSTORE KECCAK256 SLOAD PUSH1 0xFF AND ISZERO PUSH2 0x248 JUMPI PUSH1 0x40 MLOAD PUSH4 0xC8D9EAB PUSH1 0xE3 SHL DUP2 MSTORE PUSH1 0x4 ADD PUSH1 0x40 MLOAD DUP1 SWAP2 SUB SWAP1 REVERT JUMPDEST PUSH1 0x40 MLOAD PUSH12 0xFFFFFFFFFFFFFFFFFFFFFFFF NOT PUSH1 0x60 DUP7 SWAP1 SHL AND PUSH1 0x20 DUP3 ADD MSTORE PUSH1 0x34 DUP2 ADD DUP5 SWAP1 MSTORE PUSH1 0x0 SWAP1 PUSH1 0x54 ADD PUSH1 0x40 MLOAD PUSH1 0x20 DUP2 DUP4 SUB SUB DUP2 MSTORE SWAP1 PUSH1 0x40 MSTORE DUP1 MLOAD SWAP1 PUSH1 0x20 ADD KECCAK256 SWAP1 POP PUSH1 0x0 PUSH2 0x2DF DUP5 DUP5 DUP1 DUP1 PUSH1 0x20 MUL PUSH1 0x20 ADD PUSH1 0x40 MLOAD SWAP1 DUP2 ADD PUSH1 0x40 MSTORE DUP1 SWAP4 SWAP3 SWAP2 SWAP1 DUP2 DUP2 MSTORE PUSH1 0x20 ADD DUP4 DUP4 PUSH1 0x20 MUL DUP1 DUP3 DUP5 CALLDATACOPY PUSH1 0x0 SWAP3 ADD DUP3 SWAP1 MSTORE POP PUSH1 0x1 PUSH1 0x1 PUSH1 0xA0 SHL SUB DUP14 AND DUP2 MSTORE PUSH1 0x20 DUP2 SWAP1 MSTORE PUSH1 0x40 SWAP1 KECCAK256 SLOAD SWAP3 POP DUP7 SWAP2 POP PUSH2 0x3E8 SWAP1 POP JUMP JUMPDEST SWAP1 POP DUP1 PUSH2 0x2FF JUMPI PUSH1 0x40 MLOAD PUSH4 0x452C2DF1 PUSH1 0xE1 SHL DUP2 MSTORE PUSH1 0x4 ADD PUSH1 0x40 MLOAD DUP1 SWAP2 SUB SWAP1 REVERT JUMPDEST PUSH1 0x1 PUSH1 0x1 PUSH1 0xA0 SHL SUB DUP8 DUP2 AND PUSH1 0x0 DUP2 DUP2 MSTORE PUSH1 0x1 PUSH1 0x20 DUP2 DUP2 MSTORE PUSH1 0x40 DUP1 DUP5 KECCAK256 SWAP6 DUP13 AND DUP1 DUP6 MSTORE SWAP6 SWAP1 SWAP2 MSTORE SWAP2 DUP3 SWAP1 KECCAK256 DUP1 SLOAD PUSH1 0xFF NOT AND SWAP1 SWAP2 OR SWAP1 SSTORE MLOAD PUSH4 0xA9059CBB PUSH1 0xE0 SHL DUP2 MSTORE PUSH1 0x4 DUP2 ADD SWAP3 SWAP1 SWAP3 MSTORE PUSH1 0x24 DUP3 ADD DUP8 SWAP1 MSTORE SWAP1 PUSH4 0xA9059CBB SWAP1 PUSH1 0x44 ADD PUSH1 0x20 PUSH1 0x40 MLOAD DUP1 DUP4 SUB DUP2 PUSH1 0x0 DUP8 GAS CALL ISZERO DUP1 ISZERO PUSH2 0x377 JUMPI RETURNDATASIZE PUSH1 0x0 DUP1 RETURNDATACOPY RETURNDATASIZE PUSH1 0x0 REVERT JUMPDEST POP POP POP POP PUSH1 0x40 MLOAD RETURNDATASIZE PUSH1 0x1F NOT PUSH1 0x1F DUP3 ADD AND DUP3 ADD DUP1 PUSH1 0x40 MSTORE POP DUP2 ADD SWAP1 PUSH2 0x39B SWAP2 SWAP1 PUSH2 0x5B5 JUMP JUMPDEST POP DUP6 PUSH1 0x1 PUSH1 0x1 PUSH1 0xA0 SHL SUB AND PUSH32 0x47CEE97CB7ACD717B3C0AA1435D004CD5B3C8C57D70DBCEB4E4458BBD60E39D4 DUP7 PUSH1 0x40 MLOAD PUSH2 0x3D7 SWAP2 DUP2 MSTORE PUSH1 0x20 ADD SWAP1 JUMP JUMPDEST PUSH1 0x40 MLOAD DUP1 SWAP2 SUB SWAP1 LOG2 POP POP POP POP POP POP POP JUMP JUMPDEST PUSH1 0x0 DUP3 PUSH2 0x3F5 DUP6 DUP5 PUSH2 0x3FE JUMP JUMPDEST EQ SWAP5 SWAP4 POP POP POP POP JUMP JUMPDEST PUSH1 0x0 DUP2 DUP2 JUMPDEST DUP5 MLOAD DUP2 LT ISZERO PUSH2 0x46A JUMPI PUSH1 0x0 DUP6 DUP3 DUP2 MLOAD DUP2 LT PUSH2 0x420 JUMPI PUSH2 0x420 PUSH2 0x5D7 JUMP JUMPDEST PUSH1 0x20 MUL PUSH1 0x20 ADD ADD MLOAD SWAP1 POP DUP1 DUP4 GT PUSH2 0x446 JUMPI PUSH1 0x0 DUP4 DUP2 MSTORE PUSH1 0x20 DUP3 SWAP1 MSTORE PUSH1 0x40 SWAP1 KECCAK256 SWAP3 POP PUSH2 0x457 JUMP JUMPDEST PUSH1 0x0 DUP2 DUP2 MSTORE PUSH1 0x20 DUP5 SWAP1 MSTORE PUSH1 0x40 SWAP1 KECCAK256 SWAP3 POP JUMPDEST POP DUP1 PUSH2 0x462 DUP2 PUSH2 0x5ED JUMP JUMPDEST SWAP2 POP POP PUSH2 0x403 JUMP JUMPDEST POP SWAP4 SWAP3 POP POP POP JUMP JUMPDEST PUSH1 0x1 PUSH1 0x1 PUSH1 0xA0 SHL SUB DUP2 AND DUP2 EQ PUSH2 0x487 JUMPI PUSH1 0x0 DUP1 REVERT JUMPDEST POP JUMP JUMPDEST PUSH1 0x0 DUP1 PUSH1 0x40 DUP4 DUP6 SUB SLT ISZERO PUSH2 0x49D JUMPI PUSH1 0x0 DUP1 REVERT JUMPDEST DUP3 CALLDATALOAD PUSH2 0x4A8 DUP2 PUSH2 0x472 JUMP JUMPDEST SWAP2 POP PUSH1 0x20 DUP4 ADD CALLDATALOAD PUSH2 0x4B8 DUP2 PUSH2 0x472 JUMP JUMPDEST DUP1 SWAP2 POP POP SWAP3 POP SWAP3 SWAP1 POP JUMP JUMPDEST PUSH1 0x0 DUP1 PUSH1 0x40 DUP4 DUP6 SUB SLT ISZERO PUSH2 0x4D6 JUMPI PUSH1 0x0 DUP1 REVERT JUMPDEST DUP3 CALLDATALOAD PUSH2 0x4E1 DUP2 PUSH2 0x472 JUMP JUMPDEST SWAP5 PUSH1 0x20 SWAP4 SWAP1 SWAP4 ADD CALLDATALOAD SWAP4 POP POP POP JUMP JUMPDEST PUSH1 0x0 PUSH1 0x20 DUP3 DUP5 SUB SLT ISZERO PUSH2 0x501 JUMPI PUSH1 0x0 DUP1 REVERT JUMPDEST DUP2 CALLDATALOAD PUSH2 0x50C DUP2 PUSH2 0x472 JUMP JUMPDEST SWAP4 SWAP3 POP POP POP JUMP JUMPDEST PUSH1 0x0 DUP1 PUSH1 0x0 DUP1 PUSH1 0x0 PUSH1 0x80 DUP7 DUP9 SUB SLT ISZERO PUSH2 0x52B JUMPI PUSH1 0x0 DUP1 REVERT JUMPDEST DUP6 CALLDATALOAD PUSH2 0x536 DUP2 PUSH2 0x472 JUMP JUMPDEST SWAP5 POP PUSH1 0x20 DUP7 ADD CALLDATALOAD PUSH2 0x546 DUP2 PUSH2 0x472 JUMP JUMPDEST SWAP4 POP PUSH1 0x40 DUP7 ADD CALLDATALOAD SWAP3 POP PUSH1 0x60 DUP7 ADD CALLDATALOAD PUSH8 0xFFFFFFFFFFFFFFFF DUP1 DUP3 GT ISZERO PUSH2 0x56A JUMPI PUSH1 0x0 DUP1 REVERT JUMPDEST DUP2 DUP9 ADD SWAP2 POP DUP9 PUSH1 0x1F DUP4 ADD SLT PUSH2 0x57E JUMPI PUSH1 0x0 DUP1 REVERT JUMPDEST DUP2 CALLDATALOAD DUP2 DUP2 GT ISZERO PUSH2 0x58D JUMPI PUSH1 0x0 DUP1 REVERT JUMPDEST DUP10 PUSH1 0x20 DUP3 PUSH1 0x5 SHL DUP6 ADD ADD GT ISZERO PUSH2 0x5A2 JUMPI PUSH1 0x0 DUP1 REVERT JUMPDEST SWAP7 SWAP10 SWAP6 SWAP9 POP SWAP4 SWAP7 POP PUSH1 0x20 ADD SWAP5 SWAP4 SWAP3 POP POP POP JUMP JUMPDEST PUSH1 0x0 PUSH1 0x20 DUP3 DUP5 SUB SLT ISZERO PUSH2 0x5C7 JUMPI PUSH1 0x0 DUP1 REVERT JUMPDEST DUP2 MLOAD DUP1 ISZERO ISZERO DUP2 EQ PUSH2 0x50C JUMPI PUSH1 0x0 DUP1 REVERT JUMPDEST PUSH4 0x4E487B71 PUSH1 0xE0 SHL PUSH1 0x0 MSTORE PUSH1 0x32 PUSH1 0x4 MSTORE PUSH1 0x24 PUSH1 0x0 REVERT JUMPDEST PUSH1 0x0 PUSH1 0x1 DUP3 ADD PUSH2 0x60D JUMPI PUSH4 0x4E487B71 PUSH1 0xE0 SHL PUSH1 0x0 MSTORE PUSH1 0x11 PUSH1 0x4 MSTORE PUSH1 0x24 PUSH1 0x0 REVERT JUMPDEST POP PUSH1 0x1 ADD SWAP1 JUMP INVALID LOG2 PUSH5 0x6970667358 0x22 SLT KECCAK256 SWAP9 PUSH4 0x411C7FF5 SMOD PUSH23 0xC744C7E16D5C8D98DA718851AA8D8160D804B839D28BA0 0x1F PUSH5 0x736F6C6343 STOP ADDMOD 0xD STOP CALLER "
				},
				"gasEstimates": {
					"creation": {
						"codeDepositCost": "322000",
						"executionCost": "infinite",
						"totalCost": "infinite"
					},
					"external": {
						"DAO()": "infinite",
						"claim(address,address,uint256,bytes32[])": "infinite",
						"hasClaimed(address,address)": "infinite",
						"merkleRoots(address)": "2560",
						"protocolFallback(address,uint256)": "infinite"
					}
				},
				"methodIdentifiers": {
					"DAO()": "98fabd3a",
					"claim(address,address,uint256,bytes32[])": "fabed412",
					"hasClaimed(address,address)": "89266f60",
					"merkleRoots(address)": "ae9a6808",
					"protocolFallback(address,uint256)": "a7537986"
				}
			},
			"storageLayout": {
				"storage": [
					{
						"astId": 182,
						"contract": "contracts/src/MerkleClaimERC20.sol:MerkleClaimERC20",
						"label": "merkleRoots",
						"offset": 0,
						"slot": "0",
						"type": "t_mapping(t_address,t_bytes32)"
					},
					{
						"astId": 192,
						"contract": "contracts/src/MerkleClaimERC20.sol:MerkleClaimERC20",
						"label": "hasClaimed",
						"offset": 0,
						"slot": "1",
						"type": "t_mapping(t_address,t_mapping(t_address,t_bool))"
					}
				],
				"types": {
					"t_address": {
						"encoding": "inplace",
						"label": "address",
						"numberOfBytes": "20"
					},
					"t_bool": {
						"encoding": "inplace",
						"label": "bool",
						"numberOfBytes": "1"
					},
					"t_bytes32": {
						"encoding": "inplace",
						"label": "bytes32",
						"numberOfBytes": "32"
					},
					"t_mapping(t_address,t_bool)": {
						"encoding": "mapping",
						"key": "t_address",
						"label": "mapping(address => bool)",
						"numberOfBytes": "32",
						"value": "t_bool"
					},
					"t_mapping(t_address,t_bytes32)": {
						"encoding": "mapping",
						"key": "t_address",
						"label": "mapping(address => bytes32)",
						"numberOfBytes": "32",
						"value": "t_bytes32"
					},
					"t_mapping(t_address,t_mapping(t_address,t_bool))": {
						"encoding": "mapping",
						"key": "t_address",
						"label": "mapping(address => mapping(address => bool))",
						"numberOfBytes": "32",
						"value": "t_mapping(t_address,t_bool)"
					}
				}
			},
			"userdoc": {
				"errors": {
					"AlreadyClaimed()": [
						{
							"notice": "Thrown if address has already claimed"
						}
					],
					"NotInMerkle()": [
						{
							"notice": "Thrown if address/amount are not part of Merkle tree"
						}
					]
				},
				"events": {
					"Claim(address,uint256)": {
						"notice": "Emitted after a successful token claim"
					}
				},
				"kind": "user",
				"methods": {
					"claim(address,address,uint256,bytes32[])": {
						"notice": "Allows claiming tokens if address is part of merkle tree"
					},
					"constructor": {
						"notice": "Creates a new MerkleClaimERC20 contract for already existing ERC20"
					},
					"hasClaimed(address,address)": {
						"notice": "Mapping of addresses who have claimed tokens"
					},
					"merkleRoots(address)": {
						"notice": "ERC20-claimee inclusion root"
					}
				},
				"notice": "ERC20 claimable by members of a merkle tree",
				"version": 1
			}
		}
	}
}