{
	"contracts/src/MerkleClaimERC20.sol": {
		"MerkleClaimERC20": {
			"abi": [
				{
					"inputs": [
						{
							"internalType": "address",
							"name": "_tokenAddress",
							"type": "address"
						},
						{
							"internalType": "bytes32",
							"name": "_merkleRoot",
							"type": "bytes32"
						}
					],
					"stateMutability": "nonpayable",
					"type": "constructor"
				},
				{
					"inputs": [],
					"name": "AlreadyClaimed",
					"type": "error"
				},
				{
					"inputs": [],
					"name": "NotInMerkle",
					"type": "error"
				},
				{
					"anonymous": false,
					"inputs": [
						{
							"indexed": true,
							"internalType": "address",
							"name": "to",
							"type": "address"
						},
						{
							"indexed": false,
							"internalType": "uint256",
							"name": "amount",
							"type": "uint256"
						}
					],
					"name": "Claim",
					"type": "event"
				},
				{
					"inputs": [],
					"name": "DAO",
					"outputs": [
						{
							"internalType": "address",
							"name": "",
							"type": "address"
						}
					],
					"stateMutability": "view",
					"type": "function"
				},
				{
					"inputs": [
						{
							"internalType": "address",
							"name": "to",
							"type": "address"
						},
						{
							"internalType": "uint256",
							"name": "amount",
							"type": "uint256"
						},
						{
							"internalType": "bytes32[]",
							"name": "proof",
							"type": "bytes32[]"
						}
					],
					"name": "claim",
					"outputs": [],
					"stateMutability": "nonpayable",
					"type": "function"
				},
				{
					"inputs": [
						{
							"internalType": "address",
							"name": "",
							"type": "address"
						}
					],
					"name": "hasClaimed",
					"outputs": [
						{
							"internalType": "bool",
							"name": "",
							"type": "bool"
						}
					],
					"stateMutability": "view",
					"type": "function"
				},
				{
					"inputs": [],
					"name": "merkleRoot",
					"outputs": [
						{
							"internalType": "bytes32",
							"name": "",
							"type": "bytes32"
						}
					],
					"stateMutability": "view",
					"type": "function"
				},
				{
					"inputs": [
						{
							"internalType": "uint256",
							"name": "amount",
							"type": "uint256"
						}
					],
					"name": "protocolFallback",
					"outputs": [],
					"stateMutability": "nonpayable",
					"type": "function"
				},
				{
					"inputs": [],
					"name": "token",
					"outputs": [
						{
							"internalType": "contract IERC20",
							"name": "",
							"type": "address"
						}
					],
					"stateMutability": "view",
					"type": "function"
				}
			],
			"devdoc": {
				"author": "Anish Agnihotri <contact@anishagnihotri.com>Luigy Lemon ",
				"details": "Solmate ERC20 includes unused _burn logic that can be removed to optimize deployment cost",
				"events": {
					"Claim(address,uint256)": {
						"params": {
							"amount": "of tokens claimed",
							"to": "recipient of claim"
						}
					}
				},
				"kind": "dev",
				"methods": {
					"claim(address,uint256,bytes32[])": {
						"params": {
							"amount": "of tokens owed to claimee",
							"proof": "merkle proof to prove address and amount are in tree",
							"to": "address of claimee"
						}
					},
					"constructor": {
						"params": {
							"_merkleRoot": "of claimees",
							"_tokenAddress": "of token"
						}
					}
				},
				"title": "MerkleClaimERC20",
				"version": 1
			},
			"evm": {
				"assembly": "    /* \"contracts/src/MerkleClaimERC20.sol\":572:2791  contract MerkleClaimERC20 {... */\n  mstore(0x40, 0xe0)\n    /* \"contracts/src/MerkleClaimERC20.sol\":800:842  0xb4c575308221CAA398e0DD2cDEB6B2f10d7b000A */\n  0xb4c575308221caa398e0dd2cdeb6b2f10d7b000a\n    /* \"contracts/src/MerkleClaimERC20.sol\":769:842  address public immutable DAO = 0xb4c575308221CAA398e0DD2cDEB6B2f10d7b000A */\n  0xc0\n  mstore\n    /* \"contracts/src/MerkleClaimERC20.sol\":1409:1562  constructor(... */\n  callvalue\n  dup1\n  iszero\n  tag_1\n  jumpi\n  0x00\n  dup1\n  revert\ntag_1:\n  pop\n  mload(0x40)\n  sub(codesize, bytecodeSize)\n  dup1\n  bytecodeSize\n  dup4\n  codecopy\n  dup2\n  add\n  0x40\n  dup2\n  swap1\n  mstore\n  tag_2\n  swap2\n  tag_3\n  jump\t// in\ntag_2:\n    /* \"contracts/src/MerkleClaimERC20.sol\":1483:1507  merkleRoot = _merkleRoot */\n  0x80\n  mstore\n  sub(shl(0xa0, 0x01), 0x01)\n    /* \"contracts/src/MerkleClaimERC20.sol\":1528:1557  token = IERC20(_tokenAddress) */\n  and\n  0xa0\n  mstore\n    /* \"contracts/src/MerkleClaimERC20.sol\":572:2791  contract MerkleClaimERC20 {... */\n  jump(tag_7)\n    /* \"#utility.yul\":14:365   */\ntag_3:\n    /* \"#utility.yul\":93:99   */\n  0x00\n    /* \"#utility.yul\":101:107   */\n  dup1\n    /* \"#utility.yul\":154:156   */\n  0x40\n    /* \"#utility.yul\":142:151   */\n  dup4\n    /* \"#utility.yul\":133:140   */\n  dup6\n    /* \"#utility.yul\":129:152   */\n  sub\n    /* \"#utility.yul\":125:157   */\n  slt\n    /* \"#utility.yul\":122:174   */\n  iszero\n  tag_9\n  jumpi\n    /* \"#utility.yul\":170:171   */\n  0x00\n    /* \"#utility.yul\":167:168   */\n  dup1\n    /* \"#utility.yul\":160:172   */\n  revert\n    /* \"#utility.yul\":122:174   */\ntag_9:\n    /* \"#utility.yul\":196:212   */\n  dup3\n  mload\n  sub(shl(0xa0, 0x01), 0x01)\n    /* \"#utility.yul\":241:272   */\n  dup2\n  and\n    /* \"#utility.yul\":231:273   */\n  dup2\n  eq\n    /* \"#utility.yul\":221:291   */\n  tag_10\n  jumpi\n    /* \"#utility.yul\":287:288   */\n  0x00\n    /* \"#utility.yul\":284:285   */\n  dup1\n    /* \"#utility.yul\":277:289   */\n  revert\n    /* \"#utility.yul\":221:291   */\ntag_10:\n    /* \"#utility.yul\":355:357   */\n  0x20\n    /* \"#utility.yul\":340:358   */\n  swap4\n  swap1\n  swap4\n  add\n    /* \"#utility.yul\":334:359   */\n  mload\n    /* \"#utility.yul\":310:315   */\n  swap3\n  swap5\n    /* \"#utility.yul\":334:359   */\n  swap3\n  swap4\n  pop\n  pop\n  pop\n    /* \"#utility.yul\":14:365   */\n  jump\t// out\ntag_7:\n    /* \"contracts/src/MerkleClaimERC20.sol\":572:2791  contract MerkleClaimERC20 {... */\n  mload(0x80)\n  mload(0xa0)\n  mload(0xc0)\n  codecopy(0x00, dataOffset(sub_0), dataSize(sub_0))\n  0x00\n  assignImmutable(\"0xb7700257a9e4b89511ea592d7ef488a6959d733cec4df010484e5af3e427a407\")\n  0x00\n  assignImmutable(\"0x9d6b7fbd0ded42ab14e47300e428df3f38e4fbb3a7f790d898a87bff4f86606b\")\n  0x00\n  assignImmutable(\"0x26fde711c36747908dcce028baf2d3e8303b2122f2368e04f010a3f01eaa4df4\")\n  return(0x00, dataSize(sub_0))\nstop\n\nsub_0: assembly {\n        /* \"contracts/src/MerkleClaimERC20.sol\":572:2791  contract MerkleClaimERC20 {... */\n      mstore(0x40, 0x80)\n      callvalue\n      dup1\n      iszero\n      tag_1\n      jumpi\n      0x00\n      dup1\n      revert\n    tag_1:\n      pop\n      jumpi(tag_2, lt(calldatasize, 0x04))\n      shr(0xe0, calldataload(0x00))\n      dup1\n      0x2eb4a7ab\n      eq\n      tag_3\n      jumpi\n      dup1\n      0x3d13f874\n      eq\n      tag_4\n      jumpi\n      dup1\n      0x63c375d0\n      eq\n      tag_5\n      jumpi\n      dup1\n      0x73b2e80e\n      eq\n      tag_6\n      jumpi\n      dup1\n      0x98fabd3a\n      eq\n      tag_7\n      jumpi\n      dup1\n      0xfc0c546a\n      eq\n      tag_8\n      jumpi\n    tag_2:\n      0x00\n      dup1\n      revert\n        /* \"contracts/src/MerkleClaimERC20.sol\":697:732  bytes32 public immutable merkleRoot */\n    tag_3:\n      tag_9\n      immutable(\"0x26fde711c36747908dcce028baf2d3e8303b2122f2368e04f010a3f01eaa4df4\")\n      dup2\n      jump\n    tag_9:\n      mload(0x40)\n        /* \"#utility.yul\":160:185   */\n      swap1\n      dup2\n      mstore\n        /* \"#utility.yul\":148:150   */\n      0x20\n        /* \"#utility.yul\":133:151   */\n      add\n        /* \"contracts/src/MerkleClaimERC20.sol\":697:732  bytes32 public immutable merkleRoot */\n    tag_11:\n      mload(0x40)\n      dup1\n      swap2\n      sub\n      swap1\n      return\n        /* \"contracts/src/MerkleClaimERC20.sol\":2051:2634  function claim(address to, uint256 amount, bytes32[] calldata proof) external {... */\n    tag_4:\n      tag_13\n      tag_14\n      calldatasize\n      0x04\n      tag_15\n      jump\t// in\n    tag_14:\n      tag_16\n      jump\t// in\n    tag_13:\n      stop\n        /* \"contracts/src/MerkleClaimERC20.sol\":2638:2789  function protocolFallback(uint256 amount) external {... */\n    tag_5:\n      tag_13\n      tag_18\n      calldatasize\n      0x04\n      tag_19\n      jump\t// in\n    tag_18:\n      tag_20\n      jump\t// in\n        /* \"contracts/src/MerkleClaimERC20.sol\":954:996  mapping(address => bool) public hasClaimed */\n    tag_6:\n      tag_21\n      tag_22\n      calldatasize\n      0x04\n      tag_23\n      jump\t// in\n    tag_22:\n      0x00\n      0x20\n      dup2\n      swap1\n      mstore\n      swap1\n      dup2\n      mstore\n      0x40\n      swap1\n      keccak256\n      sload\n      0xff\n      and\n      dup2\n      jump\n    tag_21:\n      mload(0x40)\n        /* \"#utility.yul\":1677:1691   */\n      swap1\n      iszero\n        /* \"#utility.yul\":1670:1692   */\n      iszero\n        /* \"#utility.yul\":1652:1693   */\n      dup2\n      mstore\n        /* \"#utility.yul\":1640:1642   */\n      0x20\n        /* \"#utility.yul\":1625:1643   */\n      add\n        /* \"contracts/src/MerkleClaimERC20.sol\":954:996  mapping(address => bool) public hasClaimed */\n      tag_11\n        /* \"#utility.yul\":1512:1699   */\n      jump\n        /* \"contracts/src/MerkleClaimERC20.sol\":769:842  address public immutable DAO = 0xb4c575308221CAA398e0DD2cDEB6B2f10d7b000A */\n    tag_7:\n      tag_27\n      immutable(\"0xb7700257a9e4b89511ea592d7ef488a6959d733cec4df010484e5af3e427a407\")\n      dup2\n      jump\n    tag_27:\n      mload(0x40)\n      sub(shl(0xa0, 0x01), 0x01)\n        /* \"#utility.yul\":1868:1900   */\n      swap1\n      swap2\n      and\n        /* \"#utility.yul\":1850:1901   */\n      dup2\n      mstore\n        /* \"#utility.yul\":1838:1840   */\n      0x20\n        /* \"#utility.yul\":1823:1841   */\n      add\n        /* \"contracts/src/MerkleClaimERC20.sol\":769:842  address public immutable DAO = 0xb4c575308221CAA398e0DD2cDEB6B2f10d7b000A */\n      tag_11\n        /* \"#utility.yul\":1704:1907   */\n      jump\n        /* \"contracts/src/MerkleClaimERC20.sol\":736:765  IERC20 public immutable token */\n    tag_8:\n      tag_27\n      immutable(\"0x9d6b7fbd0ded42ab14e47300e428df3f38e4fbb3a7f790d898a87bff4f86606b\")\n      dup2\n      jump\n        /* \"contracts/src/MerkleClaimERC20.sol\":2051:2634  function claim(address to, uint256 amount, bytes32[] calldata proof) external {... */\n    tag_16:\n      sub(shl(0xa0, 0x01), 0x01)\n        /* \"contracts/src/MerkleClaimERC20.sol\":2190:2204  hasClaimed[to] */\n      dup5\n      and\n        /* \"contracts/src/MerkleClaimERC20.sol\":2190:2200  hasClaimed */\n      0x00\n        /* \"contracts/src/MerkleClaimERC20.sol\":2190:2204  hasClaimed[to] */\n      swap1\n      dup2\n      mstore\n      0x20\n      dup2\n      swap1\n      mstore\n      0x40\n      swap1\n      keccak256\n      sload\n      0xff\n      and\n        /* \"contracts/src/MerkleClaimERC20.sol\":2186:2229  if (hasClaimed[to]) revert AlreadyClaimed() */\n      iszero\n      tag_36\n      jumpi\n        /* \"contracts/src/MerkleClaimERC20.sol\":2213:2229  AlreadyClaimed() */\n      mload(0x40)\n      shl(0xe3, 0x0c8d9eab)\n      dup2\n      mstore\n      0x04\n      add\n      mload(0x40)\n      dup1\n      swap2\n      sub\n      swap1\n      revert\n        /* \"contracts/src/MerkleClaimERC20.sol\":2186:2229  if (hasClaimed[to]) revert AlreadyClaimed() */\n    tag_36:\n        /* \"contracts/src/MerkleClaimERC20.sol\":2314:2342  abi.encodePacked(to, amount) */\n      mload(0x40)\n      not(0xffffffffffffffffffffffff)\n        /* \"#utility.yul\":2310:2312   */\n      0x60\n        /* \"#utility.yul\":2306:2321   */\n      dup7\n      swap1\n      shl\n        /* \"#utility.yul\":2302:2355   */\n      and\n        /* \"contracts/src/MerkleClaimERC20.sol\":2314:2342  abi.encodePacked(to, amount) */\n      0x20\n      dup3\n      add\n        /* \"#utility.yul\":2290:2356   */\n      mstore\n        /* \"#utility.yul\":2372:2384   */\n      0x34\n      dup2\n      add\n        /* \"#utility.yul\":2365:2393   */\n      dup5\n      swap1\n      mstore\n        /* \"contracts/src/MerkleClaimERC20.sol\":2289:2301  bytes32 leaf */\n      0x00\n      swap1\n        /* \"#utility.yul\":2409:2421   */\n      0x54\n      add\n        /* \"contracts/src/MerkleClaimERC20.sol\":2314:2342  abi.encodePacked(to, amount) */\n      mload(0x40)\n      0x20\n      dup2\n      dup4\n      sub\n      sub\n      dup2\n      mstore\n      swap1\n      0x40\n      mstore\n        /* \"contracts/src/MerkleClaimERC20.sol\":2304:2343  keccak256(abi.encodePacked(to, amount)) */\n      dup1\n      mload\n      swap1\n      0x20\n      add\n      keccak256\n        /* \"contracts/src/MerkleClaimERC20.sol\":2289:2343  bytes32 leaf = keccak256(abi.encodePacked(to, amount)) */\n      swap1\n      pop\n        /* \"contracts/src/MerkleClaimERC20.sol\":2349:2365  bool isValidLeaf */\n      0x00\n        /* \"contracts/src/MerkleClaimERC20.sol\":2368:2411  MerkleProof.verify(proof, merkleRoot, leaf) */\n      tag_39\n        /* \"contracts/src/MerkleClaimERC20.sol\":2387:2392  proof */\n      dup5\n      dup5\n        /* \"contracts/src/MerkleClaimERC20.sol\":2368:2411  MerkleProof.verify(proof, merkleRoot, leaf) */\n      dup1\n      dup1\n      0x20\n      mul\n      0x20\n      add\n      mload(0x40)\n      swap1\n      dup2\n      add\n      0x40\n      mstore\n      dup1\n      swap4\n      swap3\n      swap2\n      swap1\n      dup2\n      dup2\n      mstore\n      0x20\n      add\n      dup4\n      dup4\n      0x20\n      mul\n      dup1\n      dup3\n      dup5\n      calldatacopy\n      0x00\n      swap3\n      add\n      swap2\n      swap1\n      swap2\n      mstore\n      pop\n        /* \"contracts/src/MerkleClaimERC20.sol\":2394:2404  merkleRoot */\n      immutable(\"0x26fde711c36747908dcce028baf2d3e8303b2122f2368e04f010a3f01eaa4df4\")\n      swap3\n      pop\n        /* \"contracts/src/MerkleClaimERC20.sol\":2406:2410  leaf */\n      dup7\n      swap2\n      pop\n        /* \"contracts/src/MerkleClaimERC20.sol\":2368:2386  MerkleProof.verify */\n      tag_40\n      swap1\n      pop\n        /* \"contracts/src/MerkleClaimERC20.sol\":2368:2411  MerkleProof.verify(proof, merkleRoot, leaf) */\n      jump\t// in\n    tag_39:\n        /* \"contracts/src/MerkleClaimERC20.sol\":2349:2411  bool isValidLeaf = MerkleProof.verify(proof, merkleRoot, leaf) */\n      swap1\n      pop\n        /* \"contracts/src/MerkleClaimERC20.sol\":2422:2433  isValidLeaf */\n      dup1\n        /* \"contracts/src/MerkleClaimERC20.sol\":2417:2455  if (!isValidLeaf) revert NotInMerkle() */\n      tag_41\n      jumpi\n        /* \"contracts/src/MerkleClaimERC20.sol\":2442:2455  NotInMerkle() */\n      mload(0x40)\n      shl(0xe1, 0x452c2df1)\n      dup2\n      mstore\n      0x04\n      add\n      mload(0x40)\n      dup1\n      swap2\n      sub\n      swap1\n      revert\n        /* \"contracts/src/MerkleClaimERC20.sol\":2417:2455  if (!isValidLeaf) revert NotInMerkle() */\n    tag_41:\n      sub(shl(0xa0, 0x01), 0x01)\n        /* \"contracts/src/MerkleClaimERC20.sol\":2492:2506  hasClaimed[to] */\n      dup7\n      dup2\n      and\n        /* \"contracts/src/MerkleClaimERC20.sol\":2492:2502  hasClaimed */\n      0x00\n        /* \"contracts/src/MerkleClaimERC20.sol\":2492:2506  hasClaimed[to] */\n      dup2\n      dup2\n      mstore\n      0x20\n      dup2\n      swap1\n      mstore\n      0x40\n      swap1\n      dup2\n      swap1\n      keccak256\n        /* \"contracts/src/MerkleClaimERC20.sol\":2492:2513  hasClaimed[to] = true */\n      dup1\n      sload\n      not(0xff)\n      and\n        /* \"contracts/src/MerkleClaimERC20.sol\":2509:2513  true */\n      0x01\n        /* \"contracts/src/MerkleClaimERC20.sol\":2492:2513  hasClaimed[to] = true */\n      or\n      swap1\n      sstore\n        /* \"contracts/src/MerkleClaimERC20.sol\":2550:2576  token.transfer(to, amount) */\n      mload\n      shl(0xe0, 0xa9059cbb)\n      dup2\n      mstore\n      0x04\n      dup2\n      add\n        /* \"#utility.yul\":2606:2657   */\n      swap2\n      swap1\n      swap2\n      mstore\n        /* \"#utility.yul\":2673:2691   */\n      0x24\n      dup2\n      add\n        /* \"#utility.yul\":2666:2700   */\n      dup8\n      swap1\n      mstore\n        /* \"contracts/src/MerkleClaimERC20.sol\":2550:2555  token */\n      immutable(\"0x9d6b7fbd0ded42ab14e47300e428df3f38e4fbb3a7f790d898a87bff4f86606b\")\n        /* \"contracts/src/MerkleClaimERC20.sol\":2550:2564  token.transfer */\n      swap1\n      swap2\n      and\n      swap1\n      0xa9059cbb\n      swap1\n        /* \"#utility.yul\":2579:2597   */\n      0x44\n      add\n        /* \"contracts/src/MerkleClaimERC20.sol\":2550:2576  token.transfer(to, amount) */\n      0x20\n      mload(0x40)\n      dup1\n      dup4\n      sub\n      dup2\n      0x00\n      dup8\n      gas\n      call\n      iszero\n      dup1\n      iszero\n      tag_45\n      jumpi\n      returndatasize\n      0x00\n      dup1\n      returndatacopy\n      revert(0x00, returndatasize)\n    tag_45:\n      pop\n      pop\n      pop\n      pop\n      mload(0x40)\n      returndatasize\n      not(0x1f)\n      0x1f\n      dup3\n      add\n      and\n      dup3\n      add\n      dup1\n      0x40\n      mstore\n      pop\n      dup2\n      add\n      swap1\n      tag_46\n      swap2\n      swap1\n      tag_47\n      jump\t// in\n    tag_46:\n      pop\n        /* \"contracts/src/MerkleClaimERC20.sol\":2618:2620  to */\n      dup6\n      sub(shl(0xa0, 0x01), 0x01)\n        /* \"contracts/src/MerkleClaimERC20.sol\":2612:2629  Claim(to, amount) */\n      and\n      0x47cee97cb7acd717b3c0aa1435d004cd5b3c8c57d70dbceb4e4458bbd60e39d4\n        /* \"contracts/src/MerkleClaimERC20.sol\":2622:2628  amount */\n      dup7\n        /* \"contracts/src/MerkleClaimERC20.sol\":2612:2629  Claim(to, amount) */\n      mload(0x40)\n      tag_48\n      swap2\n        /* \"#utility.yul\":160:185   */\n      dup2\n      mstore\n        /* \"#utility.yul\":148:150   */\n      0x20\n        /* \"#utility.yul\":133:151   */\n      add\n      swap1\n        /* \"#utility.yul\":14:191   */\n      jump\n        /* \"contracts/src/MerkleClaimERC20.sol\":2612:2629  Claim(to, amount) */\n    tag_48:\n      mload(0x40)\n      dup1\n      swap2\n      sub\n      swap1\n      log2\n        /* \"contracts/src/MerkleClaimERC20.sol\":2129:2634  {... */\n      pop\n      pop\n        /* \"contracts/src/MerkleClaimERC20.sol\":2051:2634  function claim(address to, uint256 amount, bytes32[] calldata proof) external {... */\n      pop\n      pop\n      pop\n      pop\n      jump\t// out\n        /* \"contracts/src/MerkleClaimERC20.sol\":2638:2789  function protocolFallback(uint256 amount) external {... */\n    tag_20:\n        /* \"contracts/src/MerkleClaimERC20.sol\":2703:2713  msg.sender */\n      caller\n      sub(shl(0xa0, 0x01), 0x01)\n        /* \"contracts/src/MerkleClaimERC20.sol\":2717:2720  DAO */\n      immutable(\"0xb7700257a9e4b89511ea592d7ef488a6959d733cec4df010484e5af3e427a407\")\n        /* \"contracts/src/MerkleClaimERC20.sol\":2703:2720  msg.sender == DAO */\n      and\n      eq\n        /* \"contracts/src/MerkleClaimERC20.sol\":2695:2721  require(msg.sender == DAO) */\n      tag_51\n      jumpi\n      0x00\n      dup1\n      revert\n    tag_51:\n        /* \"contracts/src/MerkleClaimERC20.sol\":2757:2784  token.transfer(DAO, amount) */\n      mload(0x40)\n      shl(0xe0, 0xa9059cbb)\n      dup2\n      mstore\n      sub(shl(0xa0, 0x01), 0x01)\n        /* \"contracts/src/MerkleClaimERC20.sol\":2772:2775  DAO */\n      immutable(\"0xb7700257a9e4b89511ea592d7ef488a6959d733cec4df010484e5af3e427a407\")\n        /* \"#utility.yul\":2624:2656   */\n      dup2\n      and\n        /* \"contracts/src/MerkleClaimERC20.sol\":2757:2784  token.transfer(DAO, amount) */\n      0x04\n      dup4\n      add\n        /* \"#utility.yul\":2606:2657   */\n      mstore\n        /* \"#utility.yul\":2673:2691   */\n      0x24\n      dup3\n      add\n        /* \"#utility.yul\":2666:2700   */\n      dup4\n      swap1\n      mstore\n        /* \"contracts/src/MerkleClaimERC20.sol\":2757:2762  token */\n      immutable(\"0x9d6b7fbd0ded42ab14e47300e428df3f38e4fbb3a7f790d898a87bff4f86606b\")\n        /* \"contracts/src/MerkleClaimERC20.sol\":2757:2771  token.transfer */\n      and\n      swap1\n      0xa9059cbb\n      swap1\n        /* \"#utility.yul\":2579:2597   */\n      0x44\n      add\n        /* \"contracts/src/MerkleClaimERC20.sol\":2757:2784  token.transfer(DAO, amount) */\n      0x20\n      mload(0x40)\n      dup1\n      dup4\n      sub\n      dup2\n      0x00\n      dup8\n      gas\n      call\n      iszero\n      dup1\n      iszero\n      tag_54\n      jumpi\n      returndatasize\n      0x00\n      dup1\n      returndatacopy\n      revert(0x00, returndatasize)\n    tag_54:\n      pop\n      pop\n      pop\n      pop\n      mload(0x40)\n      returndatasize\n      not(0x1f)\n      0x1f\n      dup3\n      add\n      and\n      dup3\n      add\n      dup1\n      0x40\n      mstore\n      pop\n      dup2\n      add\n      swap1\n      tag_55\n      swap2\n      swap1\n      tag_47\n      jump\t// in\n    tag_55:\n      pop\n        /* \"contracts/src/MerkleClaimERC20.sol\":2638:2789  function protocolFallback(uint256 amount) external {... */\n      pop\n      jump\t// out\n        /* \"@openzeppelin/contracts/utils/cryptography/MerkleProof.sol\":1154:1338  function verify(... */\n    tag_40:\n        /* \"@openzeppelin/contracts/utils/cryptography/MerkleProof.sol\":1275:1279  bool */\n      0x00\n        /* \"@openzeppelin/contracts/utils/cryptography/MerkleProof.sol\":1327:1331  root */\n      dup3\n        /* \"@openzeppelin/contracts/utils/cryptography/MerkleProof.sol\":1298:1323  processProof(proof, leaf) */\n      tag_57\n        /* \"@openzeppelin/contracts/utils/cryptography/MerkleProof.sol\":1311:1316  proof */\n      dup6\n        /* \"@openzeppelin/contracts/utils/cryptography/MerkleProof.sol\":1318:1322  leaf */\n      dup5\n        /* \"@openzeppelin/contracts/utils/cryptography/MerkleProof.sol\":1298:1310  processProof */\n      tag_58\n        /* \"@openzeppelin/contracts/utils/cryptography/MerkleProof.sol\":1298:1323  processProof(proof, leaf) */\n      jump\t// in\n    tag_57:\n        /* \"@openzeppelin/contracts/utils/cryptography/MerkleProof.sol\":1298:1331  processProof(proof, leaf) == root */\n      eq\n      swap5\n        /* \"@openzeppelin/contracts/utils/cryptography/MerkleProof.sol\":1154:1338  function verify(... */\n      swap4\n      pop\n      pop\n      pop\n      pop\n      jump\t// out\n        /* \"@openzeppelin/contracts/utils/cryptography/MerkleProof.sol\":1689:2351  function processProof(bytes32[] memory proof, bytes32 leaf) internal pure returns (bytes32) {... */\n    tag_58:\n        /* \"@openzeppelin/contracts/utils/cryptography/MerkleProof.sol\":1772:1779  bytes32 */\n      0x00\n        /* \"@openzeppelin/contracts/utils/cryptography/MerkleProof.sol\":1814:1818  leaf */\n      dup2\n        /* \"@openzeppelin/contracts/utils/cryptography/MerkleProof.sol\":1772:1779  bytes32 */\n      dup2\n        /* \"@openzeppelin/contracts/utils/cryptography/MerkleProof.sol\":1828:2316  for (uint256 i = 0; i < proof.length; i++) {... */\n    tag_60:\n        /* \"@openzeppelin/contracts/utils/cryptography/MerkleProof.sol\":1852:1857  proof */\n      dup5\n        /* \"@openzeppelin/contracts/utils/cryptography/MerkleProof.sol\":1852:1864  proof.length */\n      mload\n        /* \"@openzeppelin/contracts/utils/cryptography/MerkleProof.sol\":1848:1849  i */\n      dup2\n        /* \"@openzeppelin/contracts/utils/cryptography/MerkleProof.sol\":1848:1864  i < proof.length */\n      lt\n        /* \"@openzeppelin/contracts/utils/cryptography/MerkleProof.sol\":1828:2316  for (uint256 i = 0; i < proof.length; i++) {... */\n      iszero\n      tag_61\n      jumpi\n        /* \"@openzeppelin/contracts/utils/cryptography/MerkleProof.sol\":1885:1905  bytes32 proofElement */\n      0x00\n        /* \"@openzeppelin/contracts/utils/cryptography/MerkleProof.sol\":1908:1913  proof */\n      dup6\n        /* \"@openzeppelin/contracts/utils/cryptography/MerkleProof.sol\":1914:1915  i */\n      dup3\n        /* \"@openzeppelin/contracts/utils/cryptography/MerkleProof.sol\":1908:1916  proof[i] */\n      dup2\n      mload\n      dup2\n      lt\n      tag_64\n      jumpi\n      tag_64\n      tag_65\n      jump\t// in\n    tag_64:\n      0x20\n      mul\n      0x20\n      add\n      add\n      mload\n        /* \"@openzeppelin/contracts/utils/cryptography/MerkleProof.sol\":1885:1916  bytes32 proofElement = proof[i] */\n      swap1\n      pop\n        /* \"@openzeppelin/contracts/utils/cryptography/MerkleProof.sol\":1950:1962  proofElement */\n      dup1\n        /* \"@openzeppelin/contracts/utils/cryptography/MerkleProof.sol\":1934:1946  computedHash */\n      dup4\n        /* \"@openzeppelin/contracts/utils/cryptography/MerkleProof.sol\":1934:1962  computedHash <= proofElement */\n      gt\n        /* \"@openzeppelin/contracts/utils/cryptography/MerkleProof.sol\":1930:2306  if (computedHash <= proofElement) {... */\n      tag_66\n      jumpi\n        /* \"@openzeppelin/contracts/utils/cryptography/MerkleProof.sol\":2425:2438  bytes32 value */\n      0x00\n        /* \"@openzeppelin/contracts/utils/cryptography/MerkleProof.sol\":2473:2488  mstore(0x00, a) */\n      dup4\n      dup2\n      mstore\n        /* \"@openzeppelin/contracts/utils/cryptography/MerkleProof.sol\":2508:2512  0x20 */\n      0x20\n        /* \"@openzeppelin/contracts/utils/cryptography/MerkleProof.sol\":2501:2516  mstore(0x20, b) */\n      dup3\n      swap1\n      mstore\n        /* \"@openzeppelin/contracts/utils/cryptography/MerkleProof.sol\":2554:2558  0x40 */\n      0x40\n        /* \"@openzeppelin/contracts/utils/cryptography/MerkleProof.sol\":2538:2559  keccak256(0x00, 0x40) */\n      swap1\n      keccak256\n        /* \"@openzeppelin/contracts/utils/cryptography/MerkleProof.sol\":2060:2117  computedHash = _efficientHash(computedHash, proofElement) */\n      swap3\n      pop\n        /* \"@openzeppelin/contracts/utils/cryptography/MerkleProof.sol\":1930:2306  if (computedHash <= proofElement) {... */\n      jump(tag_69)\n    tag_66:\n        /* \"@openzeppelin/contracts/utils/cryptography/MerkleProof.sol\":2425:2438  bytes32 value */\n      0x00\n        /* \"@openzeppelin/contracts/utils/cryptography/MerkleProof.sol\":2473:2488  mstore(0x00, a) */\n      dup2\n      dup2\n      mstore\n        /* \"@openzeppelin/contracts/utils/cryptography/MerkleProof.sol\":2508:2512  0x20 */\n      0x20\n        /* \"@openzeppelin/contracts/utils/cryptography/MerkleProof.sol\":2501:2516  mstore(0x20, b) */\n      dup5\n      swap1\n      mstore\n        /* \"@openzeppelin/contracts/utils/cryptography/MerkleProof.sol\":2554:2558  0x40 */\n      0x40\n        /* \"@openzeppelin/contracts/utils/cryptography/MerkleProof.sol\":2538:2559  keccak256(0x00, 0x40) */\n      swap1\n      keccak256\n        /* \"@openzeppelin/contracts/utils/cryptography/MerkleProof.sol\":2234:2291  computedHash = _efficientHash(proofElement, computedHash) */\n      swap3\n      pop\n        /* \"@openzeppelin/contracts/utils/cryptography/MerkleProof.sol\":1930:2306  if (computedHash <= proofElement) {... */\n    tag_69:\n      pop\n        /* \"@openzeppelin/contracts/utils/cryptography/MerkleProof.sol\":1866:1869  i++ */\n      dup1\n      tag_71\n      dup2\n      tag_72\n      jump\t// in\n    tag_71:\n      swap2\n      pop\n      pop\n        /* \"@openzeppelin/contracts/utils/cryptography/MerkleProof.sol\":1828:2316  for (uint256 i = 0; i < proof.length; i++) {... */\n      jump(tag_60)\n    tag_61:\n      pop\n        /* \"@openzeppelin/contracts/utils/cryptography/MerkleProof.sol\":2332:2344  computedHash */\n      swap4\n        /* \"@openzeppelin/contracts/utils/cryptography/MerkleProof.sol\":1689:2351  function processProof(bytes32[] memory proof, bytes32 leaf) internal pure returns (bytes32) {... */\n      swap3\n      pop\n      pop\n      pop\n      jump\t// out\n        /* \"#utility.yul\":196:369   */\n    tag_74:\n        /* \"#utility.yul\":264:284   */\n      dup1\n      calldataload\n      sub(shl(0xa0, 0x01), 0x01)\n        /* \"#utility.yul\":313:344   */\n      dup2\n      and\n        /* \"#utility.yul\":303:345   */\n      dup2\n      eq\n        /* \"#utility.yul\":293:363   */\n      tag_78\n      jumpi\n        /* \"#utility.yul\":359:360   */\n      0x00\n        /* \"#utility.yul\":356:357   */\n      dup1\n        /* \"#utility.yul\":349:361   */\n      revert\n        /* \"#utility.yul\":293:363   */\n    tag_78:\n        /* \"#utility.yul\":196:369   */\n      swap2\n      swap1\n      pop\n      jump\t// out\n        /* \"#utility.yul\":374:1131   */\n    tag_15:\n        /* \"#utility.yul\":478:484   */\n      0x00\n        /* \"#utility.yul\":486:492   */\n      dup1\n        /* \"#utility.yul\":494:500   */\n      0x00\n        /* \"#utility.yul\":502:508   */\n      dup1\n        /* \"#utility.yul\":555:557   */\n      0x60\n        /* \"#utility.yul\":543:552   */\n      dup6\n        /* \"#utility.yul\":534:541   */\n      dup8\n        /* \"#utility.yul\":530:553   */\n      sub\n        /* \"#utility.yul\":526:558   */\n      slt\n        /* \"#utility.yul\":523:575   */\n      iszero\n      tag_80\n      jumpi\n        /* \"#utility.yul\":571:572   */\n      0x00\n        /* \"#utility.yul\":568:569   */\n      dup1\n        /* \"#utility.yul\":561:573   */\n      revert\n        /* \"#utility.yul\":523:575   */\n    tag_80:\n        /* \"#utility.yul\":594:623   */\n      tag_81\n        /* \"#utility.yul\":613:622   */\n      dup6\n        /* \"#utility.yul\":594:623   */\n      tag_74\n      jump\t// in\n    tag_81:\n        /* \"#utility.yul\":584:623   */\n      swap4\n      pop\n        /* \"#utility.yul\":670:672   */\n      0x20\n        /* \"#utility.yul\":659:668   */\n      dup6\n        /* \"#utility.yul\":655:673   */\n      add\n        /* \"#utility.yul\":642:674   */\n      calldataload\n        /* \"#utility.yul\":632:674   */\n      swap3\n      pop\n        /* \"#utility.yul\":725:727   */\n      0x40\n        /* \"#utility.yul\":714:723   */\n      dup6\n        /* \"#utility.yul\":710:728   */\n      add\n        /* \"#utility.yul\":697:729   */\n      calldataload\n        /* \"#utility.yul\":748:766   */\n      0xffffffffffffffff\n        /* \"#utility.yul\":789:791   */\n      dup1\n        /* \"#utility.yul\":781:787   */\n      dup3\n        /* \"#utility.yul\":778:792   */\n      gt\n        /* \"#utility.yul\":775:809   */\n      iszero\n      tag_82\n      jumpi\n        /* \"#utility.yul\":805:806   */\n      0x00\n        /* \"#utility.yul\":802:803   */\n      dup1\n        /* \"#utility.yul\":795:807   */\n      revert\n        /* \"#utility.yul\":775:809   */\n    tag_82:\n        /* \"#utility.yul\":843:849   */\n      dup2\n        /* \"#utility.yul\":832:841   */\n      dup8\n        /* \"#utility.yul\":828:850   */\n      add\n        /* \"#utility.yul\":818:850   */\n      swap2\n      pop\n        /* \"#utility.yul\":888:895   */\n      dup8\n        /* \"#utility.yul\":881:885   */\n      0x1f\n        /* \"#utility.yul\":877:879   */\n      dup4\n        /* \"#utility.yul\":873:886   */\n      add\n        /* \"#utility.yul\":869:896   */\n      slt\n        /* \"#utility.yul\":859:914   */\n      tag_83\n      jumpi\n        /* \"#utility.yul\":910:911   */\n      0x00\n        /* \"#utility.yul\":907:908   */\n      dup1\n        /* \"#utility.yul\":900:912   */\n      revert\n        /* \"#utility.yul\":859:914   */\n    tag_83:\n        /* \"#utility.yul\":950:952   */\n      dup2\n        /* \"#utility.yul\":937:953   */\n      calldataload\n        /* \"#utility.yul\":976:978   */\n      dup2\n        /* \"#utility.yul\":968:974   */\n      dup2\n        /* \"#utility.yul\":965:979   */\n      gt\n        /* \"#utility.yul\":962:996   */\n      iszero\n      tag_84\n      jumpi\n        /* \"#utility.yul\":992:993   */\n      0x00\n        /* \"#utility.yul\":989:990   */\n      dup1\n        /* \"#utility.yul\":982:994   */\n      revert\n        /* \"#utility.yul\":962:996   */\n    tag_84:\n        /* \"#utility.yul\":1045:1052   */\n      dup9\n        /* \"#utility.yul\":1040:1042   */\n      0x20\n        /* \"#utility.yul\":1030:1036   */\n      dup3\n        /* \"#utility.yul\":1027:1028   */\n      0x05\n        /* \"#utility.yul\":1023:1037   */\n      shl\n        /* \"#utility.yul\":1019:1021   */\n      dup6\n        /* \"#utility.yul\":1015:1038   */\n      add\n        /* \"#utility.yul\":1011:1043   */\n      add\n        /* \"#utility.yul\":1008:1053   */\n      gt\n        /* \"#utility.yul\":1005:1070   */\n      iszero\n      tag_85\n      jumpi\n        /* \"#utility.yul\":1066:1067   */\n      0x00\n        /* \"#utility.yul\":1063:1064   */\n      dup1\n        /* \"#utility.yul\":1056:1068   */\n      revert\n        /* \"#utility.yul\":1005:1070   */\n    tag_85:\n        /* \"#utility.yul\":374:1131   */\n      swap6\n      swap9\n      swap5\n      swap8\n      pop\n      pop\n        /* \"#utility.yul\":1097:1099   */\n      0x20\n        /* \"#utility.yul\":1089:1100   */\n      add\n      swap5\n      pop\n      pop\n      pop\n        /* \"#utility.yul\":374:1131   */\n      jump\t// out\n        /* \"#utility.yul\":1136:1316   */\n    tag_19:\n        /* \"#utility.yul\":1195:1201   */\n      0x00\n        /* \"#utility.yul\":1248:1250   */\n      0x20\n        /* \"#utility.yul\":1236:1245   */\n      dup3\n        /* \"#utility.yul\":1227:1234   */\n      dup5\n        /* \"#utility.yul\":1223:1246   */\n      sub\n        /* \"#utility.yul\":1219:1251   */\n      slt\n        /* \"#utility.yul\":1216:1268   */\n      iszero\n      tag_87\n      jumpi\n        /* \"#utility.yul\":1264:1265   */\n      0x00\n        /* \"#utility.yul\":1261:1262   */\n      dup1\n        /* \"#utility.yul\":1254:1266   */\n      revert\n        /* \"#utility.yul\":1216:1268   */\n    tag_87:\n      pop\n        /* \"#utility.yul\":1287:1310   */\n      calldataload\n      swap2\n        /* \"#utility.yul\":1136:1316   */\n      swap1\n      pop\n      jump\t// out\n        /* \"#utility.yul\":1321:1507   */\n    tag_23:\n        /* \"#utility.yul\":1380:1386   */\n      0x00\n        /* \"#utility.yul\":1433:1435   */\n      0x20\n        /* \"#utility.yul\":1421:1430   */\n      dup3\n        /* \"#utility.yul\":1412:1419   */\n      dup5\n        /* \"#utility.yul\":1408:1431   */\n      sub\n        /* \"#utility.yul\":1404:1436   */\n      slt\n        /* \"#utility.yul\":1401:1453   */\n      iszero\n      tag_89\n      jumpi\n        /* \"#utility.yul\":1449:1450   */\n      0x00\n        /* \"#utility.yul\":1446:1447   */\n      dup1\n        /* \"#utility.yul\":1439:1451   */\n      revert\n        /* \"#utility.yul\":1401:1453   */\n    tag_89:\n        /* \"#utility.yul\":1472:1501   */\n      tag_90\n        /* \"#utility.yul\":1491:1500   */\n      dup3\n        /* \"#utility.yul\":1472:1501   */\n      tag_74\n      jump\t// in\n    tag_90:\n        /* \"#utility.yul\":1462:1501   */\n      swap4\n        /* \"#utility.yul\":1321:1507   */\n      swap3\n      pop\n      pop\n      pop\n      jump\t// out\n        /* \"#utility.yul\":2711:2988   */\n    tag_47:\n        /* \"#utility.yul\":2778:2784   */\n      0x00\n        /* \"#utility.yul\":2831:2833   */\n      0x20\n        /* \"#utility.yul\":2819:2828   */\n      dup3\n        /* \"#utility.yul\":2810:2817   */\n      dup5\n        /* \"#utility.yul\":2806:2829   */\n      sub\n        /* \"#utility.yul\":2802:2834   */\n      slt\n        /* \"#utility.yul\":2799:2851   */\n      iszero\n      tag_97\n      jumpi\n        /* \"#utility.yul\":2847:2848   */\n      0x00\n        /* \"#utility.yul\":2844:2845   */\n      dup1\n        /* \"#utility.yul\":2837:2849   */\n      revert\n        /* \"#utility.yul\":2799:2851   */\n    tag_97:\n        /* \"#utility.yul\":2879:2888   */\n      dup2\n        /* \"#utility.yul\":2873:2889   */\n      mload\n        /* \"#utility.yul\":2932:2937   */\n      dup1\n        /* \"#utility.yul\":2925:2938   */\n      iszero\n        /* \"#utility.yul\":2918:2939   */\n      iszero\n        /* \"#utility.yul\":2911:2916   */\n      dup2\n        /* \"#utility.yul\":2908:2940   */\n      eq\n        /* \"#utility.yul\":2898:2958   */\n      tag_90\n      jumpi\n        /* \"#utility.yul\":2954:2955   */\n      0x00\n        /* \"#utility.yul\":2951:2952   */\n      dup1\n        /* \"#utility.yul\":2944:2956   */\n      revert\n        /* \"#utility.yul\":3175:3302   */\n    tag_65:\n        /* \"#utility.yul\":3236:3246   */\n      0x4e487b71\n        /* \"#utility.yul\":3231:3234   */\n      0xe0\n        /* \"#utility.yul\":3227:3247   */\n      shl\n        /* \"#utility.yul\":3224:3225   */\n      0x00\n        /* \"#utility.yul\":3217:3248   */\n      mstore\n        /* \"#utility.yul\":3267:3271   */\n      0x32\n        /* \"#utility.yul\":3264:3265   */\n      0x04\n        /* \"#utility.yul\":3257:3272   */\n      mstore\n        /* \"#utility.yul\":3291:3295   */\n      0x24\n        /* \"#utility.yul\":3288:3289   */\n      0x00\n        /* \"#utility.yul\":3281:3296   */\n      revert\n        /* \"#utility.yul\":3307:3539   */\n    tag_72:\n        /* \"#utility.yul\":3346:3349   */\n      0x00\n        /* \"#utility.yul\":3367:3384   */\n      0x01\n      dup3\n      add\n        /* \"#utility.yul\":3364:3504   */\n      tag_102\n      jumpi\n        /* \"#utility.yul\":3426:3436   */\n      0x4e487b71\n        /* \"#utility.yul\":3421:3424   */\n      0xe0\n        /* \"#utility.yul\":3417:3437   */\n      shl\n        /* \"#utility.yul\":3414:3415   */\n      0x00\n        /* \"#utility.yul\":3407:3438   */\n      mstore\n        /* \"#utility.yul\":3461:3465   */\n      0x11\n        /* \"#utility.yul\":3458:3459   */\n      0x04\n        /* \"#utility.yul\":3451:3466   */\n      mstore\n        /* \"#utility.yul\":3489:3493   */\n      0x24\n        /* \"#utility.yul\":3486:3487   */\n      0x00\n        /* \"#utility.yul\":3479:3494   */\n      revert\n        /* \"#utility.yul\":3364:3504   */\n    tag_102:\n      pop\n        /* \"#utility.yul\":3531:3532   */\n      0x01\n        /* \"#utility.yul\":3520:3533   */\n      add\n      swap1\n        /* \"#utility.yul\":3307:3539   */\n      jump\t// out\n\n    auxdata: 0xa2646970667358221220ca57c7014f6a42bc3f177c143b8c41a4c0e29b91d54df1739aee4108ae18a48f64736f6c634300080d0033\n}\n",
				"bytecode": {
					"linkReferences": {},
					"object": "60e060405273b4c575308221caa398e0dd2cdeb6b2f10d7b000a60c05234801561002857600080fd5b5060405161072e38038061072e8339810160408190526100479161005b565b6080526001600160a01b031660a052610095565b6000806040838503121561006e57600080fd5b82516001600160a01b038116811461008557600080fd5b6020939093015192949293505050565b60805160a05160c0516106486100e6600039600081816101010152818161036701526103a8015260008181610140015281816102a101526103d7015260008181606c015261021401526106486000f3fe608060405234801561001057600080fd5b50600436106100625760003560e01c80632eb4a7ab146100675780633d13f874146100a157806363c375d0146100b657806373b2e80e146100c957806398fabd3a146100fc578063fc0c546a1461013b575b600080fd5b61008e7f000000000000000000000000000000000000000000000000000000000000000081565b6040519081526020015b60405180910390f35b6100b46100af3660046104ee565b610162565b005b6100b46100c4366004610578565b61035c565b6100ec6100d7366004610591565b60006020819052908152604090205460ff1681565b6040519015158152602001610098565b6101237f000000000000000000000000000000000000000000000000000000000000000081565b6040516001600160a01b039091168152602001610098565b6101237f000000000000000000000000000000000000000000000000000000000000000081565b6001600160a01b03841660009081526020819052604090205460ff161561019c57604051630c8d9eab60e31b815260040160405180910390fd5b6040516bffffffffffffffffffffffff19606086901b16602082015260348101849052600090605401604051602081830303815290604052805190602001209050600061023f8484808060200260200160405190810160405280939291908181526020018383602002808284376000920191909152507f000000000000000000000000000000000000000000000000000000000000000092508691506104489050565b90508061025f5760405163452c2df160e11b815260040160405180910390fd5b6001600160a01b0386811660008181526020819052604090819020805460ff191660011790555163a9059cbb60e01b81526004810191909152602481018790527f00000000000000000000000000000000000000000000000000000000000000009091169063a9059cbb906044016020604051808303816000875af11580156102ec573d6000803e3d6000fd5b505050506040513d601f19601f8201168201806040525081019061031091906105b3565b50856001600160a01b03167f47cee97cb7acd717b3c0aa1435d004cd5b3c8c57d70dbceb4e4458bbd60e39d48660405161034c91815260200190565b60405180910390a2505050505050565b336001600160a01b037f0000000000000000000000000000000000000000000000000000000000000000161461039157600080fd5b60405163a9059cbb60e01b81526001600160a01b037f000000000000000000000000000000000000000000000000000000000000000081166004830152602482018390527f0000000000000000000000000000000000000000000000000000000000000000169063a9059cbb906044016020604051808303816000875af1158015610420573d6000803e3d6000fd5b505050506040513d601f19601f8201168201806040525081019061044491906105b3565b5050565b600082610455858461045e565b14949350505050565b600081815b84518110156104ca576000858281518110610480576104806105d5565b602002602001015190508083116104a657600083815260208290526040902092506104b7565b600081815260208490526040902092505b50806104c2816105eb565b915050610463565b509392505050565b80356001600160a01b03811681146104e957600080fd5b919050565b6000806000806060858703121561050457600080fd5b61050d856104d2565b935060208501359250604085013567ffffffffffffffff8082111561053157600080fd5b818701915087601f83011261054557600080fd5b81358181111561055457600080fd5b8860208260051b850101111561056957600080fd5b95989497505060200194505050565b60006020828403121561058a57600080fd5b5035919050565b6000602082840312156105a357600080fd5b6105ac826104d2565b9392505050565b6000602082840312156105c557600080fd5b815180151581146105ac57600080fd5b634e487b7160e01b600052603260045260246000fd5b60006001820161060b57634e487b7160e01b600052601160045260246000fd5b506001019056fea2646970667358221220ca57c7014f6a42bc3f177c143b8c41a4c0e29b91d54df1739aee4108ae18a48f64736f6c634300080d0033",
					"opcodes": "PUSH1 0xE0 PUSH1 0x40 MSTORE PUSH20 0xB4C575308221CAA398E0DD2CDEB6B2F10D7B000A PUSH1 0xC0 MSTORE CALLVALUE DUP1 ISZERO PUSH2 0x28 JUMPI PUSH1 0x0 DUP1 REVERT JUMPDEST POP PUSH1 0x40 MLOAD PUSH2 0x72E CODESIZE SUB DUP1 PUSH2 0x72E DUP4 CODECOPY DUP2 ADD PUSH1 0x40 DUP2 SWAP1 MSTORE PUSH2 0x47 SWAP2 PUSH2 0x5B JUMP JUMPDEST PUSH1 0x80 MSTORE PUSH1 0x1 PUSH1 0x1 PUSH1 0xA0 SHL SUB AND PUSH1 0xA0 MSTORE PUSH2 0x95 JUMP JUMPDEST PUSH1 0x0 DUP1 PUSH1 0x40 DUP4 DUP6 SUB SLT ISZERO PUSH2 0x6E JUMPI PUSH1 0x0 DUP1 REVERT JUMPDEST DUP3 MLOAD PUSH1 0x1 PUSH1 0x1 PUSH1 0xA0 SHL SUB DUP2 AND DUP2 EQ PUSH2 0x85 JUMPI PUSH1 0x0 DUP1 REVERT JUMPDEST PUSH1 0x20 SWAP4 SWAP1 SWAP4 ADD MLOAD SWAP3 SWAP5 SWAP3 SWAP4 POP POP POP JUMP JUMPDEST PUSH1 0x80 MLOAD PUSH1 0xA0 MLOAD PUSH1 0xC0 MLOAD PUSH2 0x648 PUSH2 0xE6 PUSH1 0x0 CODECOPY PUSH1 0x0 DUP2 DUP2 PUSH2 0x101 ADD MSTORE DUP2 DUP2 PUSH2 0x367 ADD MSTORE PUSH2 0x3A8 ADD MSTORE PUSH1 0x0 DUP2 DUP2 PUSH2 0x140 ADD MSTORE DUP2 DUP2 PUSH2 0x2A1 ADD MSTORE PUSH2 0x3D7 ADD MSTORE PUSH1 0x0 DUP2 DUP2 PUSH1 0x6C ADD MSTORE PUSH2 0x214 ADD MSTORE PUSH2 0x648 PUSH1 0x0 RETURN INVALID PUSH1 0x80 PUSH1 0x40 MSTORE CALLVALUE DUP1 ISZERO PUSH2 0x10 JUMPI PUSH1 0x0 DUP1 REVERT JUMPDEST POP PUSH1 0x4 CALLDATASIZE LT PUSH2 0x62 JUMPI PUSH1 0x0 CALLDATALOAD PUSH1 0xE0 SHR DUP1 PUSH4 0x2EB4A7AB EQ PUSH2 0x67 JUMPI DUP1 PUSH4 0x3D13F874 EQ PUSH2 0xA1 JUMPI DUP1 PUSH4 0x63C375D0 EQ PUSH2 0xB6 JUMPI DUP1 PUSH4 0x73B2E80E EQ PUSH2 0xC9 JUMPI DUP1 PUSH4 0x98FABD3A EQ PUSH2 0xFC JUMPI DUP1 PUSH4 0xFC0C546A EQ PUSH2 0x13B JUMPI JUMPDEST PUSH1 0x0 DUP1 REVERT JUMPDEST PUSH2 0x8E PUSH32 0x0 DUP2 JUMP JUMPDEST PUSH1 0x40 MLOAD SWAP1 DUP2 MSTORE PUSH1 0x20 ADD JUMPDEST PUSH1 0x40 MLOAD DUP1 SWAP2 SUB SWAP1 RETURN JUMPDEST PUSH2 0xB4 PUSH2 0xAF CALLDATASIZE PUSH1 0x4 PUSH2 0x4EE JUMP JUMPDEST PUSH2 0x162 JUMP JUMPDEST STOP JUMPDEST PUSH2 0xB4 PUSH2 0xC4 CALLDATASIZE PUSH1 0x4 PUSH2 0x578 JUMP JUMPDEST PUSH2 0x35C JUMP JUMPDEST PUSH2 0xEC PUSH2 0xD7 CALLDATASIZE PUSH1 0x4 PUSH2 0x591 JUMP JUMPDEST PUSH1 0x0 PUSH1 0x20 DUP2 SWAP1 MSTORE SWAP1 DUP2 MSTORE PUSH1 0x40 SWAP1 KECCAK256 SLOAD PUSH1 0xFF AND DUP2 JUMP JUMPDEST PUSH1 0x40 MLOAD SWAP1 ISZERO ISZERO DUP2 MSTORE PUSH1 0x20 ADD PUSH2 0x98 JUMP JUMPDEST PUSH2 0x123 PUSH32 0x0 DUP2 JUMP JUMPDEST PUSH1 0x40 MLOAD PUSH1 0x1 PUSH1 0x1 PUSH1 0xA0 SHL SUB SWAP1 SWAP2 AND DUP2 MSTORE PUSH1 0x20 ADD PUSH2 0x98 JUMP JUMPDEST PUSH2 0x123 PUSH32 0x0 DUP2 JUMP JUMPDEST PUSH1 0x1 PUSH1 0x1 PUSH1 0xA0 SHL SUB DUP5 AND PUSH1 0x0 SWAP1 DUP2 MSTORE PUSH1 0x20 DUP2 SWAP1 MSTORE PUSH1 0x40 SWAP1 KECCAK256 SLOAD PUSH1 0xFF AND ISZERO PUSH2 0x19C JUMPI PUSH1 0x40 MLOAD PUSH4 0xC8D9EAB PUSH1 0xE3 SHL DUP2 MSTORE PUSH1 0x4 ADD PUSH1 0x40 MLOAD DUP1 SWAP2 SUB SWAP1 REVERT JUMPDEST PUSH1 0x40 MLOAD PUSH12 0xFFFFFFFFFFFFFFFFFFFFFFFF NOT PUSH1 0x60 DUP7 SWAP1 SHL AND PUSH1 0x20 DUP3 ADD MSTORE PUSH1 0x34 DUP2 ADD DUP5 SWAP1 MSTORE PUSH1 0x0 SWAP1 PUSH1 0x54 ADD PUSH1 0x40 MLOAD PUSH1 0x20 DUP2 DUP4 SUB SUB DUP2 MSTORE SWAP1 PUSH1 0x40 MSTORE DUP1 MLOAD SWAP1 PUSH1 0x20 ADD KECCAK256 SWAP1 POP PUSH1 0x0 PUSH2 0x23F DUP5 DUP5 DUP1 DUP1 PUSH1 0x20 MUL PUSH1 0x20 ADD PUSH1 0x40 MLOAD SWAP1 DUP2 ADD PUSH1 0x40 MSTORE DUP1 SWAP4 SWAP3 SWAP2 SWAP1 DUP2 DUP2 MSTORE PUSH1 0x20 ADD DUP4 DUP4 PUSH1 0x20 MUL DUP1 DUP3 DUP5 CALLDATACOPY PUSH1 0x0 SWAP3 ADD SWAP2 SWAP1 SWAP2 MSTORE POP PUSH32 0x0 SWAP3 POP DUP7 SWAP2 POP PUSH2 0x448 SWAP1 POP JUMP JUMPDEST SWAP1 POP DUP1 PUSH2 0x25F JUMPI PUSH1 0x40 MLOAD PUSH4 0x452C2DF1 PUSH1 0xE1 SHL DUP2 MSTORE PUSH1 0x4 ADD PUSH1 0x40 MLOAD DUP1 SWAP2 SUB SWAP1 REVERT JUMPDEST PUSH1 0x1 PUSH1 0x1 PUSH1 0xA0 SHL SUB DUP7 DUP2 AND PUSH1 0x0 DUP2 DUP2 MSTORE PUSH1 0x20 DUP2 SWAP1 MSTORE PUSH1 0x40 SWAP1 DUP2 SWAP1 KECCAK256 DUP1 SLOAD PUSH1 0xFF NOT AND PUSH1 0x1 OR SWAP1 SSTORE MLOAD PUSH4 0xA9059CBB PUSH1 0xE0 SHL DUP2 MSTORE PUSH1 0x4 DUP2 ADD SWAP2 SWAP1 SWAP2 MSTORE PUSH1 0x24 DUP2 ADD DUP8 SWAP1 MSTORE PUSH32 0x0 SWAP1 SWAP2 AND SWAP1 PUSH4 0xA9059CBB SWAP1 PUSH1 0x44 ADD PUSH1 0x20 PUSH1 0x40 MLOAD DUP1 DUP4 SUB DUP2 PUSH1 0x0 DUP8 GAS CALL ISZERO DUP1 ISZERO PUSH2 0x2EC JUMPI RETURNDATASIZE PUSH1 0x0 DUP1 RETURNDATACOPY RETURNDATASIZE PUSH1 0x0 REVERT JUMPDEST POP POP POP POP PUSH1 0x40 MLOAD RETURNDATASIZE PUSH1 0x1F NOT PUSH1 0x1F DUP3 ADD AND DUP3 ADD DUP1 PUSH1 0x40 MSTORE POP DUP2 ADD SWAP1 PUSH2 0x310 SWAP2 SWAP1 PUSH2 0x5B3 JUMP JUMPDEST POP DUP6 PUSH1 0x1 PUSH1 0x1 PUSH1 0xA0 SHL SUB AND PUSH32 0x47CEE97CB7ACD717B3C0AA1435D004CD5B3C8C57D70DBCEB4E4458BBD60E39D4 DUP7 PUSH1 0x40 MLOAD PUSH2 0x34C SWAP2 DUP2 MSTORE PUSH1 0x20 ADD SWAP1 JUMP JUMPDEST PUSH1 0x40 MLOAD DUP1 SWAP2 SUB SWAP1 LOG2 POP POP POP POP POP POP JUMP JUMPDEST CALLER PUSH1 0x1 PUSH1 0x1 PUSH1 0xA0 SHL SUB PUSH32 0x0 AND EQ PUSH2 0x391 JUMPI PUSH1 0x0 DUP1 REVERT JUMPDEST PUSH1 0x40 MLOAD PUSH4 0xA9059CBB PUSH1 0xE0 SHL DUP2 MSTORE PUSH1 0x1 PUSH1 0x1 PUSH1 0xA0 SHL SUB PUSH32 0x0 DUP2 AND PUSH1 0x4 DUP4 ADD MSTORE PUSH1 0x24 DUP3 ADD DUP4 SWAP1 MSTORE PUSH32 0x0 AND SWAP1 PUSH4 0xA9059CBB SWAP1 PUSH1 0x44 ADD PUSH1 0x20 PUSH1 0x40 MLOAD DUP1 DUP4 SUB DUP2 PUSH1 0x0 DUP8 GAS CALL ISZERO DUP1 ISZERO PUSH2 0x420 JUMPI RETURNDATASIZE PUSH1 0x0 DUP1 RETURNDATACOPY RETURNDATASIZE PUSH1 0x0 REVERT JUMPDEST POP POP POP POP PUSH1 0x40 MLOAD RETURNDATASIZE PUSH1 0x1F NOT PUSH1 0x1F DUP3 ADD AND DUP3 ADD DUP1 PUSH1 0x40 MSTORE POP DUP2 ADD SWAP1 PUSH2 0x444 SWAP2 SWAP1 PUSH2 0x5B3 JUMP JUMPDEST POP POP JUMP JUMPDEST PUSH1 0x0 DUP3 PUSH2 0x455 DUP6 DUP5 PUSH2 0x45E JUMP JUMPDEST EQ SWAP5 SWAP4 POP POP POP POP JUMP JUMPDEST PUSH1 0x0 DUP2 DUP2 JUMPDEST DUP5 MLOAD DUP2 LT ISZERO PUSH2 0x4CA JUMPI PUSH1 0x0 DUP6 DUP3 DUP2 MLOAD DUP2 LT PUSH2 0x480 JUMPI PUSH2 0x480 PUSH2 0x5D5 JUMP JUMPDEST PUSH1 0x20 MUL PUSH1 0x20 ADD ADD MLOAD SWAP1 POP DUP1 DUP4 GT PUSH2 0x4A6 JUMPI PUSH1 0x0 DUP4 DUP2 MSTORE PUSH1 0x20 DUP3 SWAP1 MSTORE PUSH1 0x40 SWAP1 KECCAK256 SWAP3 POP PUSH2 0x4B7 JUMP JUMPDEST PUSH1 0x0 DUP2 DUP2 MSTORE PUSH1 0x20 DUP5 SWAP1 MSTORE PUSH1 0x40 SWAP1 KECCAK256 SWAP3 POP JUMPDEST POP DUP1 PUSH2 0x4C2 DUP2 PUSH2 0x5EB JUMP JUMPDEST SWAP2 POP POP PUSH2 0x463 JUMP JUMPDEST POP SWAP4 SWAP3 POP POP POP JUMP JUMPDEST DUP1 CALLDATALOAD PUSH1 0x1 PUSH1 0x1 PUSH1 0xA0 SHL SUB DUP2 AND DUP2 EQ PUSH2 0x4E9 JUMPI PUSH1 0x0 DUP1 REVERT JUMPDEST SWAP2 SWAP1 POP JUMP JUMPDEST PUSH1 0x0 DUP1 PUSH1 0x0 DUP1 PUSH1 0x60 DUP6 DUP8 SUB SLT ISZERO PUSH2 0x504 JUMPI PUSH1 0x0 DUP1 REVERT JUMPDEST PUSH2 0x50D DUP6 PUSH2 0x4D2 JUMP JUMPDEST SWAP4 POP PUSH1 0x20 DUP6 ADD CALLDATALOAD SWAP3 POP PUSH1 0x40 DUP6 ADD CALLDATALOAD PUSH8 0xFFFFFFFFFFFFFFFF DUP1 DUP3 GT ISZERO PUSH2 0x531 JUMPI PUSH1 0x0 DUP1 REVERT JUMPDEST DUP2 DUP8 ADD SWAP2 POP DUP8 PUSH1 0x1F DUP4 ADD SLT PUSH2 0x545 JUMPI PUSH1 0x0 DUP1 REVERT JUMPDEST DUP2 CALLDATALOAD DUP2 DUP2 GT ISZERO PUSH2 0x554 JUMPI PUSH1 0x0 DUP1 REVERT JUMPDEST DUP9 PUSH1 0x20 DUP3 PUSH1 0x5 SHL DUP6 ADD ADD GT ISZERO PUSH2 0x569 JUMPI PUSH1 0x0 DUP1 REVERT JUMPDEST SWAP6 SWAP9 SWAP5 SWAP8 POP POP PUSH1 0x20 ADD SWAP5 POP POP POP JUMP JUMPDEST PUSH1 0x0 PUSH1 0x20 DUP3 DUP5 SUB SLT ISZERO PUSH2 0x58A JUMPI PUSH1 0x0 DUP1 REVERT JUMPDEST POP CALLDATALOAD SWAP2 SWAP1 POP JUMP JUMPDEST PUSH1 0x0 PUSH1 0x20 DUP3 DUP5 SUB SLT ISZERO PUSH2 0x5A3 JUMPI PUSH1 0x0 DUP1 REVERT JUMPDEST PUSH2 0x5AC DUP3 PUSH2 0x4D2 JUMP JUMPDEST SWAP4 SWAP3 POP POP POP JUMP JUMPDEST PUSH1 0x0 PUSH1 0x20 DUP3 DUP5 SUB SLT ISZERO PUSH2 0x5C5 JUMPI PUSH1 0x0 DUP1 REVERT JUMPDEST DUP2 MLOAD DUP1 ISZERO ISZERO DUP2 EQ PUSH2 0x5AC JUMPI PUSH1 0x0 DUP1 REVERT JUMPDEST PUSH4 0x4E487B71 PUSH1 0xE0 SHL PUSH1 0x0 MSTORE PUSH1 0x32 PUSH1 0x4 MSTORE PUSH1 0x24 PUSH1 0x0 REVERT JUMPDEST PUSH1 0x0 PUSH1 0x1 DUP3 ADD PUSH2 0x60B JUMPI PUSH4 0x4E487B71 PUSH1 0xE0 SHL PUSH1 0x0 MSTORE PUSH1 0x11 PUSH1 0x4 MSTORE PUSH1 0x24 PUSH1 0x0 REVERT JUMPDEST POP PUSH1 0x1 ADD SWAP1 JUMP INVALID LOG2 PUSH5 0x6970667358 0x22 SLT KECCAK256 0xCA JUMPI 0xC7 ADD 0x4F PUSH11 0x42BC3F177C143B8C41A4C0 0xE2 SWAP12 SWAP2 0xD5 0x4D CALL PUSH20 0x9AEE4108AE18A48F64736F6C634300080D003300 "
				},
				"gasEstimates": {
					"creation": {
						"codeDepositCost": "321600",
						"executionCost": "infinite",
						"totalCost": "infinite"
					},
					"external": {
						"DAO()": "infinite",
						"claim(address,uint256,bytes32[])": "infinite",
						"hasClaimed(address)": "2578",
						"merkleRoot()": "infinite",
						"protocolFallback(uint256)": "infinite",
						"token()": "infinite"
					}
				},
				"methodIdentifiers": {
					"DAO()": "98fabd3a",
					"claim(address,uint256,bytes32[])": "3d13f874",
					"hasClaimed(address)": "73b2e80e",
					"merkleRoot()": "2eb4a7ab",
					"protocolFallback(uint256)": "63c375d0",
					"token()": "fc0c546a"
				}
			},
			"storageLayout": {
				"storage": [
					{
						"astId": 191,
						"contract": "contracts/src/MerkleClaimERC20.sol:MerkleClaimERC20",
						"label": "hasClaimed",
						"offset": 0,
						"slot": "0",
						"type": "t_mapping(t_address,t_bool)"
					}
				],
				"types": {
					"t_address": {
						"encoding": "inplace",
						"label": "address",
						"numberOfBytes": "20"
					},
					"t_bool": {
						"encoding": "inplace",
						"label": "bool",
						"numberOfBytes": "1"
					},
					"t_mapping(t_address,t_bool)": {
						"encoding": "mapping",
						"key": "t_address",
						"label": "mapping(address => bool)",
						"numberOfBytes": "32",
						"value": "t_bool"
					}
				}
			},
			"userdoc": {
				"errors": {
					"AlreadyClaimed()": [
						{
							"notice": "Thrown if address has already claimed"
						}
					],
					"NotInMerkle()": [
						{
							"notice": "Thrown if address/amount are not part of Merkle tree"
						}
					]
				},
				"events": {
					"Claim(address,uint256)": {
						"notice": "Emitted after a successful token claim"
					}
				},
				"kind": "user",
				"methods": {
					"claim(address,uint256,bytes32[])": {
						"notice": "Allows claiming tokens if address is part of merkle tree"
					},
					"constructor": {
						"notice": "Creates a new MerkleClaimERC20 contract for already existing ERC20"
					},
					"hasClaimed(address)": {
						"notice": "Mapping of addresses who have claimed tokens"
					},
					"merkleRoot()": {
						"notice": "ERC20-claimee inclusion root"
					}
				},
				"notice": "ERC20 claimable by members of a merkle tree",
				"version": 1
			}
		}
	}
}