{
	"contracts/src/MerkleClaimERC20.sol": {
		"MerkleClaimERC20": {
			"abi": [
				{
					"inputs": [
						{
							"internalType": "address",
							"name": "_tokenAddress",
							"type": "address"
						},
						{
							"internalType": "bytes32",
							"name": "_merkleRoot",
							"type": "bytes32"
						}
					],
					"stateMutability": "nonpayable",
					"type": "constructor"
				},
				{
					"inputs": [],
					"name": "AlreadyClaimed",
					"type": "error"
				},
				{
					"inputs": [],
					"name": "NotInMerkle",
					"type": "error"
				},
				{
					"anonymous": false,
					"inputs": [
						{
							"indexed": true,
							"internalType": "address",
							"name": "to",
							"type": "address"
						},
						{
							"indexed": false,
							"internalType": "uint256",
							"name": "amount",
							"type": "uint256"
						}
					],
					"name": "Claim",
					"type": "event"
				},
				{
					"inputs": [
						{
							"internalType": "address",
							"name": "to",
							"type": "address"
						},
						{
							"internalType": "uint256",
							"name": "amount",
							"type": "uint256"
						},
						{
							"internalType": "bytes32[]",
							"name": "proof",
							"type": "bytes32[]"
						}
					],
					"name": "claim",
					"outputs": [],
					"stateMutability": "nonpayable",
					"type": "function"
				},
				{
					"inputs": [
						{
							"internalType": "address",
							"name": "",
							"type": "address"
						}
					],
					"name": "hasClaimed",
					"outputs": [
						{
							"internalType": "bool",
							"name": "",
							"type": "bool"
						}
					],
					"stateMutability": "view",
					"type": "function"
				},
				{
					"inputs": [],
					"name": "merkleRoot",
					"outputs": [
						{
							"internalType": "bytes32",
							"name": "",
							"type": "bytes32"
						}
					],
					"stateMutability": "view",
					"type": "function"
				},
				{
					"inputs": [],
					"name": "token",
					"outputs": [
						{
							"internalType": "contract IERC20",
							"name": "",
							"type": "address"
						}
					],
					"stateMutability": "view",
					"type": "function"
				}
			],
			"devdoc": {
				"author": "Anish Agnihotri <contact@anishagnihotri.com>Luigy Lemon ",
				"details": "Solmate ERC20 includes unused _burn logic that can be removed to optimize deployment cost",
				"events": {
					"Claim(address,uint256)": {
						"params": {
							"amount": "of tokens claimed",
							"to": "recipient of claim"
						}
					}
				},
				"kind": "dev",
				"methods": {
					"claim(address,uint256,bytes32[])": {
						"params": {
							"amount": "of tokens owed to claimee",
							"proof": "merkle proof to prove address and amount are in tree",
							"to": "address of claimee"
						}
					},
					"constructor": {
						"params": {
							"_merkleRoot": "of claimees",
							"_tokenAddress": "of token"
						}
					}
				},
				"title": "MerkleClaimERC20",
				"version": 1
			},
			"evm": {
				"assembly": "    /* \"contracts/src/MerkleClaimERC20.sol\":572:2559  contract MerkleClaimERC20 {... */\n  mstore(0x40, 0xc0)\n    /* \"contracts/src/MerkleClaimERC20.sol\":1332:1485  constructor(... */\n  callvalue\n  dup1\n  iszero\n  tag_1\n  jumpi\n  0x00\n  dup1\n  revert\ntag_1:\n  pop\n  mload(0x40)\n  sub(codesize, bytecodeSize)\n  dup1\n  bytecodeSize\n  dup4\n  codecopy\n  dup2\n  add\n  0x40\n  dup2\n  swap1\n  mstore\n  tag_2\n  swap2\n  tag_3\n  jump\t// in\ntag_2:\n    /* \"contracts/src/MerkleClaimERC20.sol\":1406:1430  merkleRoot = _merkleRoot */\n  0x80\n  mstore\n  sub(shl(0xa0, 0x01), 0x01)\n    /* \"contracts/src/MerkleClaimERC20.sol\":1451:1480  token = IERC20(_tokenAddress) */\n  and\n  0xa0\n  mstore\n    /* \"contracts/src/MerkleClaimERC20.sol\":572:2559  contract MerkleClaimERC20 {... */\n  jump(tag_7)\n    /* \"#utility.yul\":14:365   */\ntag_3:\n    /* \"#utility.yul\":93:99   */\n  0x00\n    /* \"#utility.yul\":101:107   */\n  dup1\n    /* \"#utility.yul\":154:156   */\n  0x40\n    /* \"#utility.yul\":142:151   */\n  dup4\n    /* \"#utility.yul\":133:140   */\n  dup6\n    /* \"#utility.yul\":129:152   */\n  sub\n    /* \"#utility.yul\":125:157   */\n  slt\n    /* \"#utility.yul\":122:174   */\n  iszero\n  tag_9\n  jumpi\n    /* \"#utility.yul\":170:171   */\n  0x00\n    /* \"#utility.yul\":167:168   */\n  dup1\n    /* \"#utility.yul\":160:172   */\n  revert\n    /* \"#utility.yul\":122:174   */\ntag_9:\n    /* \"#utility.yul\":196:212   */\n  dup3\n  mload\n  sub(shl(0xa0, 0x01), 0x01)\n    /* \"#utility.yul\":241:272   */\n  dup2\n  and\n    /* \"#utility.yul\":231:273   */\n  dup2\n  eq\n    /* \"#utility.yul\":221:291   */\n  tag_10\n  jumpi\n    /* \"#utility.yul\":287:288   */\n  0x00\n    /* \"#utility.yul\":284:285   */\n  dup1\n    /* \"#utility.yul\":277:289   */\n  revert\n    /* \"#utility.yul\":221:291   */\ntag_10:\n    /* \"#utility.yul\":355:357   */\n  0x20\n    /* \"#utility.yul\":340:358   */\n  swap4\n  swap1\n  swap4\n  add\n    /* \"#utility.yul\":334:359   */\n  mload\n    /* \"#utility.yul\":310:315   */\n  swap3\n  swap5\n    /* \"#utility.yul\":334:359   */\n  swap3\n  swap4\n  pop\n  pop\n  pop\n    /* \"#utility.yul\":14:365   */\n  jump\t// out\ntag_7:\n    /* \"contracts/src/MerkleClaimERC20.sol\":572:2559  contract MerkleClaimERC20 {... */\n  mload(0x80)\n  mload(0xa0)\n  codecopy(0x00, dataOffset(sub_0), dataSize(sub_0))\n  0x00\n  assignImmutable(\"0x9d6b7fbd0ded42ab14e47300e428df3f38e4fbb3a7f790d898a87bff4f86606b\")\n  0x00\n  assignImmutable(\"0x26fde711c36747908dcce028baf2d3e8303b2122f2368e04f010a3f01eaa4df4\")\n  return(0x00, dataSize(sub_0))\nstop\n\nsub_0: assembly {\n        /* \"contracts/src/MerkleClaimERC20.sol\":572:2559  contract MerkleClaimERC20 {... */\n      mstore(0x40, 0x80)\n      callvalue\n      dup1\n      iszero\n      tag_1\n      jumpi\n      0x00\n      dup1\n      revert\n    tag_1:\n      pop\n      jumpi(tag_2, lt(calldatasize, 0x04))\n      shr(0xe0, calldataload(0x00))\n      dup1\n      0x2eb4a7ab\n      eq\n      tag_3\n      jumpi\n      dup1\n      0x3d13f874\n      eq\n      tag_4\n      jumpi\n      dup1\n      0x73b2e80e\n      eq\n      tag_5\n      jumpi\n      dup1\n      0xfc0c546a\n      eq\n      tag_6\n      jumpi\n    tag_2:\n      0x00\n      dup1\n      revert\n        /* \"contracts/src/MerkleClaimERC20.sol\":697:732  bytes32 public immutable merkleRoot */\n    tag_3:\n      tag_7\n      immutable(\"0x26fde711c36747908dcce028baf2d3e8303b2122f2368e04f010a3f01eaa4df4\")\n      dup2\n      jump\n    tag_7:\n      mload(0x40)\n        /* \"#utility.yul\":160:185   */\n      swap1\n      dup2\n      mstore\n        /* \"#utility.yul\":148:150   */\n      0x20\n        /* \"#utility.yul\":133:151   */\n      add\n        /* \"contracts/src/MerkleClaimERC20.sol\":697:732  bytes32 public immutable merkleRoot */\n    tag_9:\n      mload(0x40)\n      dup1\n      swap2\n      sub\n      swap1\n      return\n        /* \"contracts/src/MerkleClaimERC20.sol\":1974:2557  function claim(address to, uint256 amount, bytes32[] calldata proof) external {... */\n    tag_4:\n      tag_11\n      tag_12\n      calldatasize\n      0x04\n      tag_13\n      jump\t// in\n    tag_12:\n      tag_14\n      jump\t// in\n    tag_11:\n      stop\n        /* \"contracts/src/MerkleClaimERC20.sol\":877:919  mapping(address => bool) public hasClaimed */\n    tag_5:\n      tag_15\n      tag_16\n      calldatasize\n      0x04\n      tag_17\n      jump\t// in\n    tag_16:\n      0x00\n      0x20\n      dup2\n      swap1\n      mstore\n      swap1\n      dup2\n      mstore\n      0x40\n      swap1\n      keccak256\n      sload\n      0xff\n      and\n      dup2\n      jump\n    tag_15:\n      mload(0x40)\n        /* \"#utility.yul\":1492:1506   */\n      swap1\n      iszero\n        /* \"#utility.yul\":1485:1507   */\n      iszero\n        /* \"#utility.yul\":1467:1508   */\n      dup2\n      mstore\n        /* \"#utility.yul\":1455:1457   */\n      0x20\n        /* \"#utility.yul\":1440:1458   */\n      add\n        /* \"contracts/src/MerkleClaimERC20.sol\":877:919  mapping(address => bool) public hasClaimed */\n      tag_9\n        /* \"#utility.yul\":1327:1514   */\n      jump\n        /* \"contracts/src/MerkleClaimERC20.sol\":736:765  IERC20 public immutable token */\n    tag_6:\n      tag_21\n      immutable(\"0x9d6b7fbd0ded42ab14e47300e428df3f38e4fbb3a7f790d898a87bff4f86606b\")\n      dup2\n      jump\n    tag_21:\n      mload(0x40)\n      sub(shl(0xa0, 0x01), 0x01)\n        /* \"#utility.yul\":1696:1728   */\n      swap1\n      swap2\n      and\n        /* \"#utility.yul\":1678:1729   */\n      dup2\n      mstore\n        /* \"#utility.yul\":1666:1668   */\n      0x20\n        /* \"#utility.yul\":1651:1669   */\n      add\n        /* \"contracts/src/MerkleClaimERC20.sol\":736:765  IERC20 public immutable token */\n      tag_9\n        /* \"#utility.yul\":1519:1735   */\n      jump\n        /* \"contracts/src/MerkleClaimERC20.sol\":1974:2557  function claim(address to, uint256 amount, bytes32[] calldata proof) external {... */\n    tag_14:\n      sub(shl(0xa0, 0x01), 0x01)\n        /* \"contracts/src/MerkleClaimERC20.sol\":2113:2127  hasClaimed[to] */\n      dup5\n      and\n        /* \"contracts/src/MerkleClaimERC20.sol\":2113:2123  hasClaimed */\n      0x00\n        /* \"contracts/src/MerkleClaimERC20.sol\":2113:2127  hasClaimed[to] */\n      swap1\n      dup2\n      mstore\n      0x20\n      dup2\n      swap1\n      mstore\n      0x40\n      swap1\n      keccak256\n      sload\n      0xff\n      and\n        /* \"contracts/src/MerkleClaimERC20.sol\":2109:2152  if (hasClaimed[to]) revert AlreadyClaimed() */\n      iszero\n      tag_26\n      jumpi\n        /* \"contracts/src/MerkleClaimERC20.sol\":2136:2152  AlreadyClaimed() */\n      mload(0x40)\n      shl(0xe3, 0x0c8d9eab)\n      dup2\n      mstore\n      0x04\n      add\n      mload(0x40)\n      dup1\n      swap2\n      sub\n      swap1\n      revert\n        /* \"contracts/src/MerkleClaimERC20.sol\":2109:2152  if (hasClaimed[to]) revert AlreadyClaimed() */\n    tag_26:\n        /* \"contracts/src/MerkleClaimERC20.sol\":2237:2265  abi.encodePacked(to, amount) */\n      mload(0x40)\n      not(0xffffffffffffffffffffffff)\n        /* \"#utility.yul\":1917:1919   */\n      0x60\n        /* \"#utility.yul\":1913:1928   */\n      dup7\n      swap1\n      shl\n        /* \"#utility.yul\":1909:1962   */\n      and\n        /* \"contracts/src/MerkleClaimERC20.sol\":2237:2265  abi.encodePacked(to, amount) */\n      0x20\n      dup3\n      add\n        /* \"#utility.yul\":1897:1963   */\n      mstore\n        /* \"#utility.yul\":1979:1991   */\n      0x34\n      dup2\n      add\n        /* \"#utility.yul\":1972:2000   */\n      dup5\n      swap1\n      mstore\n        /* \"contracts/src/MerkleClaimERC20.sol\":2212:2224  bytes32 leaf */\n      0x00\n      swap1\n        /* \"#utility.yul\":2016:2028   */\n      0x54\n      add\n        /* \"contracts/src/MerkleClaimERC20.sol\":2237:2265  abi.encodePacked(to, amount) */\n      mload(0x40)\n      0x20\n      dup2\n      dup4\n      sub\n      sub\n      dup2\n      mstore\n      swap1\n      0x40\n      mstore\n        /* \"contracts/src/MerkleClaimERC20.sol\":2227:2266  keccak256(abi.encodePacked(to, amount)) */\n      dup1\n      mload\n      swap1\n      0x20\n      add\n      keccak256\n        /* \"contracts/src/MerkleClaimERC20.sol\":2212:2266  bytes32 leaf = keccak256(abi.encodePacked(to, amount)) */\n      swap1\n      pop\n        /* \"contracts/src/MerkleClaimERC20.sol\":2272:2288  bool isValidLeaf */\n      0x00\n        /* \"contracts/src/MerkleClaimERC20.sol\":2291:2334  MerkleProof.verify(proof, merkleRoot, leaf) */\n      tag_29\n        /* \"contracts/src/MerkleClaimERC20.sol\":2310:2315  proof */\n      dup5\n      dup5\n        /* \"contracts/src/MerkleClaimERC20.sol\":2291:2334  MerkleProof.verify(proof, merkleRoot, leaf) */\n      dup1\n      dup1\n      0x20\n      mul\n      0x20\n      add\n      mload(0x40)\n      swap1\n      dup2\n      add\n      0x40\n      mstore\n      dup1\n      swap4\n      swap3\n      swap2\n      swap1\n      dup2\n      dup2\n      mstore\n      0x20\n      add\n      dup4\n      dup4\n      0x20\n      mul\n      dup1\n      dup3\n      dup5\n      calldatacopy\n      0x00\n      swap3\n      add\n      swap2\n      swap1\n      swap2\n      mstore\n      pop\n        /* \"contracts/src/MerkleClaimERC20.sol\":2317:2327  merkleRoot */\n      immutable(\"0x26fde711c36747908dcce028baf2d3e8303b2122f2368e04f010a3f01eaa4df4\")\n      swap3\n      pop\n        /* \"contracts/src/MerkleClaimERC20.sol\":2329:2333  leaf */\n      dup7\n      swap2\n      pop\n        /* \"contracts/src/MerkleClaimERC20.sol\":2291:2309  MerkleProof.verify */\n      tag_30\n      swap1\n      pop\n        /* \"contracts/src/MerkleClaimERC20.sol\":2291:2334  MerkleProof.verify(proof, merkleRoot, leaf) */\n      jump\t// in\n    tag_29:\n        /* \"contracts/src/MerkleClaimERC20.sol\":2272:2334  bool isValidLeaf = MerkleProof.verify(proof, merkleRoot, leaf) */\n      swap1\n      pop\n        /* \"contracts/src/MerkleClaimERC20.sol\":2345:2356  isValidLeaf */\n      dup1\n        /* \"contracts/src/MerkleClaimERC20.sol\":2340:2378  if (!isValidLeaf) revert NotInMerkle() */\n      tag_31\n      jumpi\n        /* \"contracts/src/MerkleClaimERC20.sol\":2365:2378  NotInMerkle() */\n      mload(0x40)\n      shl(0xe1, 0x452c2df1)\n      dup2\n      mstore\n      0x04\n      add\n      mload(0x40)\n      dup1\n      swap2\n      sub\n      swap1\n      revert\n        /* \"contracts/src/MerkleClaimERC20.sol\":2340:2378  if (!isValidLeaf) revert NotInMerkle() */\n    tag_31:\n      sub(shl(0xa0, 0x01), 0x01)\n        /* \"contracts/src/MerkleClaimERC20.sol\":2415:2429  hasClaimed[to] */\n      dup7\n      dup2\n      and\n        /* \"contracts/src/MerkleClaimERC20.sol\":2415:2425  hasClaimed */\n      0x00\n        /* \"contracts/src/MerkleClaimERC20.sol\":2415:2429  hasClaimed[to] */\n      dup2\n      dup2\n      mstore\n      0x20\n      dup2\n      swap1\n      mstore\n      0x40\n      swap1\n      dup2\n      swap1\n      keccak256\n        /* \"contracts/src/MerkleClaimERC20.sol\":2415:2436  hasClaimed[to] = true */\n      dup1\n      sload\n      not(0xff)\n      and\n        /* \"contracts/src/MerkleClaimERC20.sol\":2432:2436  true */\n      0x01\n        /* \"contracts/src/MerkleClaimERC20.sol\":2415:2436  hasClaimed[to] = true */\n      or\n      swap1\n      sstore\n        /* \"contracts/src/MerkleClaimERC20.sol\":2473:2499  token.transfer(to, amount) */\n      mload\n      shl(0xe0, 0xa9059cbb)\n      dup2\n      mstore\n      0x04\n      dup2\n      add\n        /* \"#utility.yul\":2213:2264   */\n      swap2\n      swap1\n      swap2\n      mstore\n        /* \"#utility.yul\":2280:2298   */\n      0x24\n      dup2\n      add\n        /* \"#utility.yul\":2273:2307   */\n      dup8\n      swap1\n      mstore\n        /* \"contracts/src/MerkleClaimERC20.sol\":2473:2478  token */\n      immutable(\"0x9d6b7fbd0ded42ab14e47300e428df3f38e4fbb3a7f790d898a87bff4f86606b\")\n        /* \"contracts/src/MerkleClaimERC20.sol\":2473:2487  token.transfer */\n      swap1\n      swap2\n      and\n      swap1\n      0xa9059cbb\n      swap1\n        /* \"#utility.yul\":2186:2204   */\n      0x44\n      add\n        /* \"contracts/src/MerkleClaimERC20.sol\":2473:2499  token.transfer(to, amount) */\n      0x20\n      mload(0x40)\n      dup1\n      dup4\n      sub\n      dup2\n      0x00\n      dup8\n      gas\n      call\n      iszero\n      dup1\n      iszero\n      tag_35\n      jumpi\n      returndatasize\n      0x00\n      dup1\n      returndatacopy\n      revert(0x00, returndatasize)\n    tag_35:\n      pop\n      pop\n      pop\n      pop\n      mload(0x40)\n      returndatasize\n      not(0x1f)\n      0x1f\n      dup3\n      add\n      and\n      dup3\n      add\n      dup1\n      0x40\n      mstore\n      pop\n      dup2\n      add\n      swap1\n      tag_36\n      swap2\n      swap1\n      tag_37\n      jump\t// in\n    tag_36:\n      pop\n        /* \"contracts/src/MerkleClaimERC20.sol\":2541:2543  to */\n      dup6\n      sub(shl(0xa0, 0x01), 0x01)\n        /* \"contracts/src/MerkleClaimERC20.sol\":2535:2552  Claim(to, amount) */\n      and\n      0x47cee97cb7acd717b3c0aa1435d004cd5b3c8c57d70dbceb4e4458bbd60e39d4\n        /* \"contracts/src/MerkleClaimERC20.sol\":2545:2551  amount */\n      dup7\n        /* \"contracts/src/MerkleClaimERC20.sol\":2535:2552  Claim(to, amount) */\n      mload(0x40)\n      tag_38\n      swap2\n        /* \"#utility.yul\":160:185   */\n      dup2\n      mstore\n        /* \"#utility.yul\":148:150   */\n      0x20\n        /* \"#utility.yul\":133:151   */\n      add\n      swap1\n        /* \"#utility.yul\":14:191   */\n      jump\n        /* \"contracts/src/MerkleClaimERC20.sol\":2535:2552  Claim(to, amount) */\n    tag_38:\n      mload(0x40)\n      dup1\n      swap2\n      sub\n      swap1\n      log2\n        /* \"contracts/src/MerkleClaimERC20.sol\":2052:2557  {... */\n      pop\n      pop\n        /* \"contracts/src/MerkleClaimERC20.sol\":1974:2557  function claim(address to, uint256 amount, bytes32[] calldata proof) external {... */\n      pop\n      pop\n      pop\n      pop\n      jump\t// out\n        /* \"@openzeppelin/contracts/utils/cryptography/MerkleProof.sol\":1154:1338  function verify(... */\n    tag_30:\n        /* \"@openzeppelin/contracts/utils/cryptography/MerkleProof.sol\":1275:1279  bool */\n      0x00\n        /* \"@openzeppelin/contracts/utils/cryptography/MerkleProof.sol\":1327:1331  root */\n      dup3\n        /* \"@openzeppelin/contracts/utils/cryptography/MerkleProof.sol\":1298:1323  processProof(proof, leaf) */\n      tag_41\n        /* \"@openzeppelin/contracts/utils/cryptography/MerkleProof.sol\":1311:1316  proof */\n      dup6\n        /* \"@openzeppelin/contracts/utils/cryptography/MerkleProof.sol\":1318:1322  leaf */\n      dup5\n        /* \"@openzeppelin/contracts/utils/cryptography/MerkleProof.sol\":1298:1310  processProof */\n      tag_42\n        /* \"@openzeppelin/contracts/utils/cryptography/MerkleProof.sol\":1298:1323  processProof(proof, leaf) */\n      jump\t// in\n    tag_41:\n        /* \"@openzeppelin/contracts/utils/cryptography/MerkleProof.sol\":1298:1331  processProof(proof, leaf) == root */\n      eq\n      swap5\n        /* \"@openzeppelin/contracts/utils/cryptography/MerkleProof.sol\":1154:1338  function verify(... */\n      swap4\n      pop\n      pop\n      pop\n      pop\n      jump\t// out\n        /* \"@openzeppelin/contracts/utils/cryptography/MerkleProof.sol\":1689:2351  function processProof(bytes32[] memory proof, bytes32 leaf) internal pure returns (bytes32) {... */\n    tag_42:\n        /* \"@openzeppelin/contracts/utils/cryptography/MerkleProof.sol\":1772:1779  bytes32 */\n      0x00\n        /* \"@openzeppelin/contracts/utils/cryptography/MerkleProof.sol\":1814:1818  leaf */\n      dup2\n        /* \"@openzeppelin/contracts/utils/cryptography/MerkleProof.sol\":1772:1779  bytes32 */\n      dup2\n        /* \"@openzeppelin/contracts/utils/cryptography/MerkleProof.sol\":1828:2316  for (uint256 i = 0; i < proof.length; i++) {... */\n    tag_44:\n        /* \"@openzeppelin/contracts/utils/cryptography/MerkleProof.sol\":1852:1857  proof */\n      dup5\n        /* \"@openzeppelin/contracts/utils/cryptography/MerkleProof.sol\":1852:1864  proof.length */\n      mload\n        /* \"@openzeppelin/contracts/utils/cryptography/MerkleProof.sol\":1848:1849  i */\n      dup2\n        /* \"@openzeppelin/contracts/utils/cryptography/MerkleProof.sol\":1848:1864  i < proof.length */\n      lt\n        /* \"@openzeppelin/contracts/utils/cryptography/MerkleProof.sol\":1828:2316  for (uint256 i = 0; i < proof.length; i++) {... */\n      iszero\n      tag_45\n      jumpi\n        /* \"@openzeppelin/contracts/utils/cryptography/MerkleProof.sol\":1885:1905  bytes32 proofElement */\n      0x00\n        /* \"@openzeppelin/contracts/utils/cryptography/MerkleProof.sol\":1908:1913  proof */\n      dup6\n        /* \"@openzeppelin/contracts/utils/cryptography/MerkleProof.sol\":1914:1915  i */\n      dup3\n        /* \"@openzeppelin/contracts/utils/cryptography/MerkleProof.sol\":1908:1916  proof[i] */\n      dup2\n      mload\n      dup2\n      lt\n      tag_48\n      jumpi\n      tag_48\n      tag_49\n      jump\t// in\n    tag_48:\n      0x20\n      mul\n      0x20\n      add\n      add\n      mload\n        /* \"@openzeppelin/contracts/utils/cryptography/MerkleProof.sol\":1885:1916  bytes32 proofElement = proof[i] */\n      swap1\n      pop\n        /* \"@openzeppelin/contracts/utils/cryptography/MerkleProof.sol\":1950:1962  proofElement */\n      dup1\n        /* \"@openzeppelin/contracts/utils/cryptography/MerkleProof.sol\":1934:1946  computedHash */\n      dup4\n        /* \"@openzeppelin/contracts/utils/cryptography/MerkleProof.sol\":1934:1962  computedHash <= proofElement */\n      gt\n        /* \"@openzeppelin/contracts/utils/cryptography/MerkleProof.sol\":1930:2306  if (computedHash <= proofElement) {... */\n      tag_50\n      jumpi\n        /* \"@openzeppelin/contracts/utils/cryptography/MerkleProof.sol\":2425:2438  bytes32 value */\n      0x00\n        /* \"@openzeppelin/contracts/utils/cryptography/MerkleProof.sol\":2473:2488  mstore(0x00, a) */\n      dup4\n      dup2\n      mstore\n        /* \"@openzeppelin/contracts/utils/cryptography/MerkleProof.sol\":2508:2512  0x20 */\n      0x20\n        /* \"@openzeppelin/contracts/utils/cryptography/MerkleProof.sol\":2501:2516  mstore(0x20, b) */\n      dup3\n      swap1\n      mstore\n        /* \"@openzeppelin/contracts/utils/cryptography/MerkleProof.sol\":2554:2558  0x40 */\n      0x40\n        /* \"@openzeppelin/contracts/utils/cryptography/MerkleProof.sol\":2538:2559  keccak256(0x00, 0x40) */\n      swap1\n      keccak256\n        /* \"@openzeppelin/contracts/utils/cryptography/MerkleProof.sol\":2060:2117  computedHash = _efficientHash(computedHash, proofElement) */\n      swap3\n      pop\n        /* \"@openzeppelin/contracts/utils/cryptography/MerkleProof.sol\":1930:2306  if (computedHash <= proofElement) {... */\n      jump(tag_53)\n    tag_50:\n        /* \"@openzeppelin/contracts/utils/cryptography/MerkleProof.sol\":2425:2438  bytes32 value */\n      0x00\n        /* \"@openzeppelin/contracts/utils/cryptography/MerkleProof.sol\":2473:2488  mstore(0x00, a) */\n      dup2\n      dup2\n      mstore\n        /* \"@openzeppelin/contracts/utils/cryptography/MerkleProof.sol\":2508:2512  0x20 */\n      0x20\n        /* \"@openzeppelin/contracts/utils/cryptography/MerkleProof.sol\":2501:2516  mstore(0x20, b) */\n      dup5\n      swap1\n      mstore\n        /* \"@openzeppelin/contracts/utils/cryptography/MerkleProof.sol\":2554:2558  0x40 */\n      0x40\n        /* \"@openzeppelin/contracts/utils/cryptography/MerkleProof.sol\":2538:2559  keccak256(0x00, 0x40) */\n      swap1\n      keccak256\n        /* \"@openzeppelin/contracts/utils/cryptography/MerkleProof.sol\":2234:2291  computedHash = _efficientHash(proofElement, computedHash) */\n      swap3\n      pop\n        /* \"@openzeppelin/contracts/utils/cryptography/MerkleProof.sol\":1930:2306  if (computedHash <= proofElement) {... */\n    tag_53:\n      pop\n        /* \"@openzeppelin/contracts/utils/cryptography/MerkleProof.sol\":1866:1869  i++ */\n      dup1\n      tag_55\n      dup2\n      tag_56\n      jump\t// in\n    tag_55:\n      swap2\n      pop\n      pop\n        /* \"@openzeppelin/contracts/utils/cryptography/MerkleProof.sol\":1828:2316  for (uint256 i = 0; i < proof.length; i++) {... */\n      jump(tag_44)\n    tag_45:\n      pop\n        /* \"@openzeppelin/contracts/utils/cryptography/MerkleProof.sol\":2332:2344  computedHash */\n      swap4\n        /* \"@openzeppelin/contracts/utils/cryptography/MerkleProof.sol\":1689:2351  function processProof(bytes32[] memory proof, bytes32 leaf) internal pure returns (bytes32) {... */\n      swap3\n      pop\n      pop\n      pop\n      jump\t// out\n        /* \"#utility.yul\":196:369   */\n    tag_58:\n        /* \"#utility.yul\":264:284   */\n      dup1\n      calldataload\n      sub(shl(0xa0, 0x01), 0x01)\n        /* \"#utility.yul\":313:344   */\n      dup2\n      and\n        /* \"#utility.yul\":303:345   */\n      dup2\n      eq\n        /* \"#utility.yul\":293:363   */\n      tag_62\n      jumpi\n        /* \"#utility.yul\":359:360   */\n      0x00\n        /* \"#utility.yul\":356:357   */\n      dup1\n        /* \"#utility.yul\":349:361   */\n      revert\n        /* \"#utility.yul\":293:363   */\n    tag_62:\n        /* \"#utility.yul\":196:369   */\n      swap2\n      swap1\n      pop\n      jump\t// out\n        /* \"#utility.yul\":374:1131   */\n    tag_13:\n        /* \"#utility.yul\":478:484   */\n      0x00\n        /* \"#utility.yul\":486:492   */\n      dup1\n        /* \"#utility.yul\":494:500   */\n      0x00\n        /* \"#utility.yul\":502:508   */\n      dup1\n        /* \"#utility.yul\":555:557   */\n      0x60\n        /* \"#utility.yul\":543:552   */\n      dup6\n        /* \"#utility.yul\":534:541   */\n      dup8\n        /* \"#utility.yul\":530:553   */\n      sub\n        /* \"#utility.yul\":526:558   */\n      slt\n        /* \"#utility.yul\":523:575   */\n      iszero\n      tag_64\n      jumpi\n        /* \"#utility.yul\":571:572   */\n      0x00\n        /* \"#utility.yul\":568:569   */\n      dup1\n        /* \"#utility.yul\":561:573   */\n      revert\n        /* \"#utility.yul\":523:575   */\n    tag_64:\n        /* \"#utility.yul\":594:623   */\n      tag_65\n        /* \"#utility.yul\":613:622   */\n      dup6\n        /* \"#utility.yul\":594:623   */\n      tag_58\n      jump\t// in\n    tag_65:\n        /* \"#utility.yul\":584:623   */\n      swap4\n      pop\n        /* \"#utility.yul\":670:672   */\n      0x20\n        /* \"#utility.yul\":659:668   */\n      dup6\n        /* \"#utility.yul\":655:673   */\n      add\n        /* \"#utility.yul\":642:674   */\n      calldataload\n        /* \"#utility.yul\":632:674   */\n      swap3\n      pop\n        /* \"#utility.yul\":725:727   */\n      0x40\n        /* \"#utility.yul\":714:723   */\n      dup6\n        /* \"#utility.yul\":710:728   */\n      add\n        /* \"#utility.yul\":697:729   */\n      calldataload\n        /* \"#utility.yul\":748:766   */\n      0xffffffffffffffff\n        /* \"#utility.yul\":789:791   */\n      dup1\n        /* \"#utility.yul\":781:787   */\n      dup3\n        /* \"#utility.yul\":778:792   */\n      gt\n        /* \"#utility.yul\":775:809   */\n      iszero\n      tag_66\n      jumpi\n        /* \"#utility.yul\":805:806   */\n      0x00\n        /* \"#utility.yul\":802:803   */\n      dup1\n        /* \"#utility.yul\":795:807   */\n      revert\n        /* \"#utility.yul\":775:809   */\n    tag_66:\n        /* \"#utility.yul\":843:849   */\n      dup2\n        /* \"#utility.yul\":832:841   */\n      dup8\n        /* \"#utility.yul\":828:850   */\n      add\n        /* \"#utility.yul\":818:850   */\n      swap2\n      pop\n        /* \"#utility.yul\":888:895   */\n      dup8\n        /* \"#utility.yul\":881:885   */\n      0x1f\n        /* \"#utility.yul\":877:879   */\n      dup4\n        /* \"#utility.yul\":873:886   */\n      add\n        /* \"#utility.yul\":869:896   */\n      slt\n        /* \"#utility.yul\":859:914   */\n      tag_67\n      jumpi\n        /* \"#utility.yul\":910:911   */\n      0x00\n        /* \"#utility.yul\":907:908   */\n      dup1\n        /* \"#utility.yul\":900:912   */\n      revert\n        /* \"#utility.yul\":859:914   */\n    tag_67:\n        /* \"#utility.yul\":950:952   */\n      dup2\n        /* \"#utility.yul\":937:953   */\n      calldataload\n        /* \"#utility.yul\":976:978   */\n      dup2\n        /* \"#utility.yul\":968:974   */\n      dup2\n        /* \"#utility.yul\":965:979   */\n      gt\n        /* \"#utility.yul\":962:996   */\n      iszero\n      tag_68\n      jumpi\n        /* \"#utility.yul\":992:993   */\n      0x00\n        /* \"#utility.yul\":989:990   */\n      dup1\n        /* \"#utility.yul\":982:994   */\n      revert\n        /* \"#utility.yul\":962:996   */\n    tag_68:\n        /* \"#utility.yul\":1045:1052   */\n      dup9\n        /* \"#utility.yul\":1040:1042   */\n      0x20\n        /* \"#utility.yul\":1030:1036   */\n      dup3\n        /* \"#utility.yul\":1027:1028   */\n      0x05\n        /* \"#utility.yul\":1023:1037   */\n      shl\n        /* \"#utility.yul\":1019:1021   */\n      dup6\n        /* \"#utility.yul\":1015:1038   */\n      add\n        /* \"#utility.yul\":1011:1043   */\n      add\n        /* \"#utility.yul\":1008:1053   */\n      gt\n        /* \"#utility.yul\":1005:1070   */\n      iszero\n      tag_69\n      jumpi\n        /* \"#utility.yul\":1066:1067   */\n      0x00\n        /* \"#utility.yul\":1063:1064   */\n      dup1\n        /* \"#utility.yul\":1056:1068   */\n      revert\n        /* \"#utility.yul\":1005:1070   */\n    tag_69:\n        /* \"#utility.yul\":374:1131   */\n      swap6\n      swap9\n      swap5\n      swap8\n      pop\n      pop\n        /* \"#utility.yul\":1097:1099   */\n      0x20\n        /* \"#utility.yul\":1089:1100   */\n      add\n      swap5\n      pop\n      pop\n      pop\n        /* \"#utility.yul\":374:1131   */\n      jump\t// out\n        /* \"#utility.yul\":1136:1322   */\n    tag_17:\n        /* \"#utility.yul\":1195:1201   */\n      0x00\n        /* \"#utility.yul\":1248:1250   */\n      0x20\n        /* \"#utility.yul\":1236:1245   */\n      dup3\n        /* \"#utility.yul\":1227:1234   */\n      dup5\n        /* \"#utility.yul\":1223:1246   */\n      sub\n        /* \"#utility.yul\":1219:1251   */\n      slt\n        /* \"#utility.yul\":1216:1268   */\n      iszero\n      tag_71\n      jumpi\n        /* \"#utility.yul\":1264:1265   */\n      0x00\n        /* \"#utility.yul\":1261:1262   */\n      dup1\n        /* \"#utility.yul\":1254:1266   */\n      revert\n        /* \"#utility.yul\":1216:1268   */\n    tag_71:\n        /* \"#utility.yul\":1287:1316   */\n      tag_72\n        /* \"#utility.yul\":1306:1315   */\n      dup3\n        /* \"#utility.yul\":1287:1316   */\n      tag_58\n      jump\t// in\n    tag_72:\n        /* \"#utility.yul\":1277:1316   */\n      swap4\n        /* \"#utility.yul\":1136:1322   */\n      swap3\n      pop\n      pop\n      pop\n      jump\t// out\n        /* \"#utility.yul\":2318:2595   */\n    tag_37:\n        /* \"#utility.yul\":2385:2391   */\n      0x00\n        /* \"#utility.yul\":2438:2440   */\n      0x20\n        /* \"#utility.yul\":2426:2435   */\n      dup3\n        /* \"#utility.yul\":2417:2424   */\n      dup5\n        /* \"#utility.yul\":2413:2436   */\n      sub\n        /* \"#utility.yul\":2409:2441   */\n      slt\n        /* \"#utility.yul\":2406:2458   */\n      iszero\n      tag_78\n      jumpi\n        /* \"#utility.yul\":2454:2455   */\n      0x00\n        /* \"#utility.yul\":2451:2452   */\n      dup1\n        /* \"#utility.yul\":2444:2456   */\n      revert\n        /* \"#utility.yul\":2406:2458   */\n    tag_78:\n        /* \"#utility.yul\":2486:2495   */\n      dup2\n        /* \"#utility.yul\":2480:2496   */\n      mload\n        /* \"#utility.yul\":2539:2544   */\n      dup1\n        /* \"#utility.yul\":2532:2545   */\n      iszero\n        /* \"#utility.yul\":2525:2546   */\n      iszero\n        /* \"#utility.yul\":2518:2523   */\n      dup2\n        /* \"#utility.yul\":2515:2547   */\n      eq\n        /* \"#utility.yul\":2505:2565   */\n      tag_72\n      jumpi\n        /* \"#utility.yul\":2561:2562   */\n      0x00\n        /* \"#utility.yul\":2558:2559   */\n      dup1\n        /* \"#utility.yul\":2551:2563   */\n      revert\n        /* \"#utility.yul\":2782:2909   */\n    tag_49:\n        /* \"#utility.yul\":2843:2853   */\n      0x4e487b71\n        /* \"#utility.yul\":2838:2841   */\n      0xe0\n        /* \"#utility.yul\":2834:2854   */\n      shl\n        /* \"#utility.yul\":2831:2832   */\n      0x00\n        /* \"#utility.yul\":2824:2855   */\n      mstore\n        /* \"#utility.yul\":2874:2878   */\n      0x32\n        /* \"#utility.yul\":2871:2872   */\n      0x04\n        /* \"#utility.yul\":2864:2879   */\n      mstore\n        /* \"#utility.yul\":2898:2902   */\n      0x24\n        /* \"#utility.yul\":2895:2896   */\n      0x00\n        /* \"#utility.yul\":2888:2903   */\n      revert\n        /* \"#utility.yul\":2914:3146   */\n    tag_56:\n        /* \"#utility.yul\":2953:2956   */\n      0x00\n        /* \"#utility.yul\":2974:2991   */\n      0x01\n      dup3\n      add\n        /* \"#utility.yul\":2971:3111   */\n      tag_83\n      jumpi\n        /* \"#utility.yul\":3033:3043   */\n      0x4e487b71\n        /* \"#utility.yul\":3028:3031   */\n      0xe0\n        /* \"#utility.yul\":3024:3044   */\n      shl\n        /* \"#utility.yul\":3021:3022   */\n      0x00\n        /* \"#utility.yul\":3014:3045   */\n      mstore\n        /* \"#utility.yul\":3068:3072   */\n      0x11\n        /* \"#utility.yul\":3065:3066   */\n      0x04\n        /* \"#utility.yul\":3058:3073   */\n      mstore\n        /* \"#utility.yul\":3096:3100   */\n      0x24\n        /* \"#utility.yul\":3093:3094   */\n      0x00\n        /* \"#utility.yul\":3086:3101   */\n      revert\n        /* \"#utility.yul\":2971:3111   */\n    tag_83:\n      pop\n        /* \"#utility.yul\":3138:3139   */\n      0x01\n        /* \"#utility.yul\":3127:3140   */\n      add\n      swap1\n        /* \"#utility.yul\":2914:3146   */\n      jump\t// out\n\n    auxdata: 0xa26469706673582212203d7fa88f6a85750cedad21168cb1f9468e538a13ea9c8c2c25f44fb463fec51f64736f6c634300080d0033\n}\n",
				"bytecode": {
					"linkReferences": {},
					"object": "60c060405234801561001057600080fd5b506040516105a13803806105a183398101604081905261002f91610043565b6080526001600160a01b031660a05261007d565b6000806040838503121561005657600080fd5b82516001600160a01b038116811461006d57600080fd5b6020939093015192949293505050565b60805160a0516104f36100ae6000396000818160d80152610251015260008181605601526101c401526104f36000f3fe608060405234801561001057600080fd5b506004361061004c5760003560e01c80632eb4a7ab146100515780633d13f8741461008b57806373b2e80e146100a0578063fc0c546a146100d3575b600080fd5b6100787f000000000000000000000000000000000000000000000000000000000000000081565b6040519081526020015b60405180910390f35b61009e6100993660046103b2565b610112565b005b6100c36100ae36600461043c565b60006020819052908152604090205460ff1681565b6040519015158152602001610082565b6100fa7f000000000000000000000000000000000000000000000000000000000000000081565b6040516001600160a01b039091168152602001610082565b6001600160a01b03841660009081526020819052604090205460ff161561014c57604051630c8d9eab60e31b815260040160405180910390fd5b6040516bffffffffffffffffffffffff19606086901b1660208201526034810184905260009060540160405160208183030381529060405280519060200120905060006101ef8484808060200260200160405190810160405280939291908181526020018383602002808284376000920191909152507f0000000000000000000000000000000000000000000000000000000000000000925086915061030c9050565b90508061020f5760405163452c2df160e11b815260040160405180910390fd5b6001600160a01b0386811660008181526020819052604090819020805460ff191660011790555163a9059cbb60e01b81526004810191909152602481018790527f00000000000000000000000000000000000000000000000000000000000000009091169063a9059cbb906044016020604051808303816000875af115801561029c573d6000803e3d6000fd5b505050506040513d601f19601f820116820180604052508101906102c0919061045e565b50856001600160a01b03167f47cee97cb7acd717b3c0aa1435d004cd5b3c8c57d70dbceb4e4458bbd60e39d4866040516102fc91815260200190565b60405180910390a2505050505050565b6000826103198584610322565b14949350505050565b600081815b845181101561038e57600085828151811061034457610344610480565b6020026020010151905080831161036a576000838152602082905260409020925061037b565b600081815260208490526040902092505b508061038681610496565b915050610327565b509392505050565b80356001600160a01b03811681146103ad57600080fd5b919050565b600080600080606085870312156103c857600080fd5b6103d185610396565b935060208501359250604085013567ffffffffffffffff808211156103f557600080fd5b818701915087601f83011261040957600080fd5b81358181111561041857600080fd5b8860208260051b850101111561042d57600080fd5b95989497505060200194505050565b60006020828403121561044e57600080fd5b61045782610396565b9392505050565b60006020828403121561047057600080fd5b8151801515811461045757600080fd5b634e487b7160e01b600052603260045260246000fd5b6000600182016104b657634e487b7160e01b600052601160045260246000fd5b506001019056fea26469706673582212203d7fa88f6a85750cedad21168cb1f9468e538a13ea9c8c2c25f44fb463fec51f64736f6c634300080d0033",
					"opcodes": "PUSH1 0xC0 PUSH1 0x40 MSTORE CALLVALUE DUP1 ISZERO PUSH2 0x10 JUMPI PUSH1 0x0 DUP1 REVERT JUMPDEST POP PUSH1 0x40 MLOAD PUSH2 0x5A1 CODESIZE SUB DUP1 PUSH2 0x5A1 DUP4 CODECOPY DUP2 ADD PUSH1 0x40 DUP2 SWAP1 MSTORE PUSH2 0x2F SWAP2 PUSH2 0x43 JUMP JUMPDEST PUSH1 0x80 MSTORE PUSH1 0x1 PUSH1 0x1 PUSH1 0xA0 SHL SUB AND PUSH1 0xA0 MSTORE PUSH2 0x7D JUMP JUMPDEST PUSH1 0x0 DUP1 PUSH1 0x40 DUP4 DUP6 SUB SLT ISZERO PUSH2 0x56 JUMPI PUSH1 0x0 DUP1 REVERT JUMPDEST DUP3 MLOAD PUSH1 0x1 PUSH1 0x1 PUSH1 0xA0 SHL SUB DUP2 AND DUP2 EQ PUSH2 0x6D JUMPI PUSH1 0x0 DUP1 REVERT JUMPDEST PUSH1 0x20 SWAP4 SWAP1 SWAP4 ADD MLOAD SWAP3 SWAP5 SWAP3 SWAP4 POP POP POP JUMP JUMPDEST PUSH1 0x80 MLOAD PUSH1 0xA0 MLOAD PUSH2 0x4F3 PUSH2 0xAE PUSH1 0x0 CODECOPY PUSH1 0x0 DUP2 DUP2 PUSH1 0xD8 ADD MSTORE PUSH2 0x251 ADD MSTORE PUSH1 0x0 DUP2 DUP2 PUSH1 0x56 ADD MSTORE PUSH2 0x1C4 ADD MSTORE PUSH2 0x4F3 PUSH1 0x0 RETURN INVALID PUSH1 0x80 PUSH1 0x40 MSTORE CALLVALUE DUP1 ISZERO PUSH2 0x10 JUMPI PUSH1 0x0 DUP1 REVERT JUMPDEST POP PUSH1 0x4 CALLDATASIZE LT PUSH2 0x4C JUMPI PUSH1 0x0 CALLDATALOAD PUSH1 0xE0 SHR DUP1 PUSH4 0x2EB4A7AB EQ PUSH2 0x51 JUMPI DUP1 PUSH4 0x3D13F874 EQ PUSH2 0x8B JUMPI DUP1 PUSH4 0x73B2E80E EQ PUSH2 0xA0 JUMPI DUP1 PUSH4 0xFC0C546A EQ PUSH2 0xD3 JUMPI JUMPDEST PUSH1 0x0 DUP1 REVERT JUMPDEST PUSH2 0x78 PUSH32 0x0 DUP2 JUMP JUMPDEST PUSH1 0x40 MLOAD SWAP1 DUP2 MSTORE PUSH1 0x20 ADD JUMPDEST PUSH1 0x40 MLOAD DUP1 SWAP2 SUB SWAP1 RETURN JUMPDEST PUSH2 0x9E PUSH2 0x99 CALLDATASIZE PUSH1 0x4 PUSH2 0x3B2 JUMP JUMPDEST PUSH2 0x112 JUMP JUMPDEST STOP JUMPDEST PUSH2 0xC3 PUSH2 0xAE CALLDATASIZE PUSH1 0x4 PUSH2 0x43C JUMP JUMPDEST PUSH1 0x0 PUSH1 0x20 DUP2 SWAP1 MSTORE SWAP1 DUP2 MSTORE PUSH1 0x40 SWAP1 KECCAK256 SLOAD PUSH1 0xFF AND DUP2 JUMP JUMPDEST PUSH1 0x40 MLOAD SWAP1 ISZERO ISZERO DUP2 MSTORE PUSH1 0x20 ADD PUSH2 0x82 JUMP JUMPDEST PUSH2 0xFA PUSH32 0x0 DUP2 JUMP JUMPDEST PUSH1 0x40 MLOAD PUSH1 0x1 PUSH1 0x1 PUSH1 0xA0 SHL SUB SWAP1 SWAP2 AND DUP2 MSTORE PUSH1 0x20 ADD PUSH2 0x82 JUMP JUMPDEST PUSH1 0x1 PUSH1 0x1 PUSH1 0xA0 SHL SUB DUP5 AND PUSH1 0x0 SWAP1 DUP2 MSTORE PUSH1 0x20 DUP2 SWAP1 MSTORE PUSH1 0x40 SWAP1 KECCAK256 SLOAD PUSH1 0xFF AND ISZERO PUSH2 0x14C JUMPI PUSH1 0x40 MLOAD PUSH4 0xC8D9EAB PUSH1 0xE3 SHL DUP2 MSTORE PUSH1 0x4 ADD PUSH1 0x40 MLOAD DUP1 SWAP2 SUB SWAP1 REVERT JUMPDEST PUSH1 0x40 MLOAD PUSH12 0xFFFFFFFFFFFFFFFFFFFFFFFF NOT PUSH1 0x60 DUP7 SWAP1 SHL AND PUSH1 0x20 DUP3 ADD MSTORE PUSH1 0x34 DUP2 ADD DUP5 SWAP1 MSTORE PUSH1 0x0 SWAP1 PUSH1 0x54 ADD PUSH1 0x40 MLOAD PUSH1 0x20 DUP2 DUP4 SUB SUB DUP2 MSTORE SWAP1 PUSH1 0x40 MSTORE DUP1 MLOAD SWAP1 PUSH1 0x20 ADD KECCAK256 SWAP1 POP PUSH1 0x0 PUSH2 0x1EF DUP5 DUP5 DUP1 DUP1 PUSH1 0x20 MUL PUSH1 0x20 ADD PUSH1 0x40 MLOAD SWAP1 DUP2 ADD PUSH1 0x40 MSTORE DUP1 SWAP4 SWAP3 SWAP2 SWAP1 DUP2 DUP2 MSTORE PUSH1 0x20 ADD DUP4 DUP4 PUSH1 0x20 MUL DUP1 DUP3 DUP5 CALLDATACOPY PUSH1 0x0 SWAP3 ADD SWAP2 SWAP1 SWAP2 MSTORE POP PUSH32 0x0 SWAP3 POP DUP7 SWAP2 POP PUSH2 0x30C SWAP1 POP JUMP JUMPDEST SWAP1 POP DUP1 PUSH2 0x20F JUMPI PUSH1 0x40 MLOAD PUSH4 0x452C2DF1 PUSH1 0xE1 SHL DUP2 MSTORE PUSH1 0x4 ADD PUSH1 0x40 MLOAD DUP1 SWAP2 SUB SWAP1 REVERT JUMPDEST PUSH1 0x1 PUSH1 0x1 PUSH1 0xA0 SHL SUB DUP7 DUP2 AND PUSH1 0x0 DUP2 DUP2 MSTORE PUSH1 0x20 DUP2 SWAP1 MSTORE PUSH1 0x40 SWAP1 DUP2 SWAP1 KECCAK256 DUP1 SLOAD PUSH1 0xFF NOT AND PUSH1 0x1 OR SWAP1 SSTORE MLOAD PUSH4 0xA9059CBB PUSH1 0xE0 SHL DUP2 MSTORE PUSH1 0x4 DUP2 ADD SWAP2 SWAP1 SWAP2 MSTORE PUSH1 0x24 DUP2 ADD DUP8 SWAP1 MSTORE PUSH32 0x0 SWAP1 SWAP2 AND SWAP1 PUSH4 0xA9059CBB SWAP1 PUSH1 0x44 ADD PUSH1 0x20 PUSH1 0x40 MLOAD DUP1 DUP4 SUB DUP2 PUSH1 0x0 DUP8 GAS CALL ISZERO DUP1 ISZERO PUSH2 0x29C JUMPI RETURNDATASIZE PUSH1 0x0 DUP1 RETURNDATACOPY RETURNDATASIZE PUSH1 0x0 REVERT JUMPDEST POP POP POP POP PUSH1 0x40 MLOAD RETURNDATASIZE PUSH1 0x1F NOT PUSH1 0x1F DUP3 ADD AND DUP3 ADD DUP1 PUSH1 0x40 MSTORE POP DUP2 ADD SWAP1 PUSH2 0x2C0 SWAP2 SWAP1 PUSH2 0x45E JUMP JUMPDEST POP DUP6 PUSH1 0x1 PUSH1 0x1 PUSH1 0xA0 SHL SUB AND PUSH32 0x47CEE97CB7ACD717B3C0AA1435D004CD5B3C8C57D70DBCEB4E4458BBD60E39D4 DUP7 PUSH1 0x40 MLOAD PUSH2 0x2FC SWAP2 DUP2 MSTORE PUSH1 0x20 ADD SWAP1 JUMP JUMPDEST PUSH1 0x40 MLOAD DUP1 SWAP2 SUB SWAP1 LOG2 POP POP POP POP POP POP JUMP JUMPDEST PUSH1 0x0 DUP3 PUSH2 0x319 DUP6 DUP5 PUSH2 0x322 JUMP JUMPDEST EQ SWAP5 SWAP4 POP POP POP POP JUMP JUMPDEST PUSH1 0x0 DUP2 DUP2 JUMPDEST DUP5 MLOAD DUP2 LT ISZERO PUSH2 0x38E JUMPI PUSH1 0x0 DUP6 DUP3 DUP2 MLOAD DUP2 LT PUSH2 0x344 JUMPI PUSH2 0x344 PUSH2 0x480 JUMP JUMPDEST PUSH1 0x20 MUL PUSH1 0x20 ADD ADD MLOAD SWAP1 POP DUP1 DUP4 GT PUSH2 0x36A JUMPI PUSH1 0x0 DUP4 DUP2 MSTORE PUSH1 0x20 DUP3 SWAP1 MSTORE PUSH1 0x40 SWAP1 KECCAK256 SWAP3 POP PUSH2 0x37B JUMP JUMPDEST PUSH1 0x0 DUP2 DUP2 MSTORE PUSH1 0x20 DUP5 SWAP1 MSTORE PUSH1 0x40 SWAP1 KECCAK256 SWAP3 POP JUMPDEST POP DUP1 PUSH2 0x386 DUP2 PUSH2 0x496 JUMP JUMPDEST SWAP2 POP POP PUSH2 0x327 JUMP JUMPDEST POP SWAP4 SWAP3 POP POP POP JUMP JUMPDEST DUP1 CALLDATALOAD PUSH1 0x1 PUSH1 0x1 PUSH1 0xA0 SHL SUB DUP2 AND DUP2 EQ PUSH2 0x3AD JUMPI PUSH1 0x0 DUP1 REVERT JUMPDEST SWAP2 SWAP1 POP JUMP JUMPDEST PUSH1 0x0 DUP1 PUSH1 0x0 DUP1 PUSH1 0x60 DUP6 DUP8 SUB SLT ISZERO PUSH2 0x3C8 JUMPI PUSH1 0x0 DUP1 REVERT JUMPDEST PUSH2 0x3D1 DUP6 PUSH2 0x396 JUMP JUMPDEST SWAP4 POP PUSH1 0x20 DUP6 ADD CALLDATALOAD SWAP3 POP PUSH1 0x40 DUP6 ADD CALLDATALOAD PUSH8 0xFFFFFFFFFFFFFFFF DUP1 DUP3 GT ISZERO PUSH2 0x3F5 JUMPI PUSH1 0x0 DUP1 REVERT JUMPDEST DUP2 DUP8 ADD SWAP2 POP DUP8 PUSH1 0x1F DUP4 ADD SLT PUSH2 0x409 JUMPI PUSH1 0x0 DUP1 REVERT JUMPDEST DUP2 CALLDATALOAD DUP2 DUP2 GT ISZERO PUSH2 0x418 JUMPI PUSH1 0x0 DUP1 REVERT JUMPDEST DUP9 PUSH1 0x20 DUP3 PUSH1 0x5 SHL DUP6 ADD ADD GT ISZERO PUSH2 0x42D JUMPI PUSH1 0x0 DUP1 REVERT JUMPDEST SWAP6 SWAP9 SWAP5 SWAP8 POP POP PUSH1 0x20 ADD SWAP5 POP POP POP JUMP JUMPDEST PUSH1 0x0 PUSH1 0x20 DUP3 DUP5 SUB SLT ISZERO PUSH2 0x44E JUMPI PUSH1 0x0 DUP1 REVERT JUMPDEST PUSH2 0x457 DUP3 PUSH2 0x396 JUMP JUMPDEST SWAP4 SWAP3 POP POP POP JUMP JUMPDEST PUSH1 0x0 PUSH1 0x20 DUP3 DUP5 SUB SLT ISZERO PUSH2 0x470 JUMPI PUSH1 0x0 DUP1 REVERT JUMPDEST DUP2 MLOAD DUP1 ISZERO ISZERO DUP2 EQ PUSH2 0x457 JUMPI PUSH1 0x0 DUP1 REVERT JUMPDEST PUSH4 0x4E487B71 PUSH1 0xE0 SHL PUSH1 0x0 MSTORE PUSH1 0x32 PUSH1 0x4 MSTORE PUSH1 0x24 PUSH1 0x0 REVERT JUMPDEST PUSH1 0x0 PUSH1 0x1 DUP3 ADD PUSH2 0x4B6 JUMPI PUSH4 0x4E487B71 PUSH1 0xE0 SHL PUSH1 0x0 MSTORE PUSH1 0x11 PUSH1 0x4 MSTORE PUSH1 0x24 PUSH1 0x0 REVERT JUMPDEST POP PUSH1 0x1 ADD SWAP1 JUMP INVALID LOG2 PUSH5 0x6970667358 0x22 SLT KECCAK256 RETURNDATASIZE PUSH32 0xA88F6A85750CEDAD21168CB1F9468E538A13EA9C8C2C25F44FB463FEC51F6473 PUSH16 0x6C634300080D00330000000000000000 "
				},
				"gasEstimates": {
					"creation": {
						"codeDepositCost": "253400",
						"executionCost": "infinite",
						"totalCost": "infinite"
					},
					"external": {
						"claim(address,uint256,bytes32[])": "infinite",
						"hasClaimed(address)": "2556",
						"merkleRoot()": "infinite",
						"token()": "infinite"
					}
				},
				"methodIdentifiers": {
					"claim(address,uint256,bytes32[])": "3d13f874",
					"hasClaimed(address)": "73b2e80e",
					"merkleRoot()": "2eb4a7ab",
					"token()": "fc0c546a"
				}
			},
			"storageLayout": {
				"storage": [
					{
						"astId": 188,
						"contract": "contracts/src/MerkleClaimERC20.sol:MerkleClaimERC20",
						"label": "hasClaimed",
						"offset": 0,
						"slot": "0",
						"type": "t_mapping(t_address,t_bool)"
					}
				],
				"types": {
					"t_address": {
						"encoding": "inplace",
						"label": "address",
						"numberOfBytes": "20"
					},
					"t_bool": {
						"encoding": "inplace",
						"label": "bool",
						"numberOfBytes": "1"
					},
					"t_mapping(t_address,t_bool)": {
						"encoding": "mapping",
						"key": "t_address",
						"label": "mapping(address => bool)",
						"numberOfBytes": "32",
						"value": "t_bool"
					}
				}
			},
			"userdoc": {
				"errors": {
					"AlreadyClaimed()": [
						{
							"notice": "Thrown if address has already claimed"
						}
					],
					"NotInMerkle()": [
						{
							"notice": "Thrown if address/amount are not part of Merkle tree"
						}
					]
				},
				"events": {
					"Claim(address,uint256)": {
						"notice": "Emitted after a successful token claim"
					}
				},
				"kind": "user",
				"methods": {
					"claim(address,uint256,bytes32[])": {
						"notice": "Allows claiming tokens if address is part of merkle tree"
					},
					"constructor": {
						"notice": "Creates a new MerkleClaimERC20 contract for already existing ERC20"
					},
					"hasClaimed(address)": {
						"notice": "Mapping of addresses who have claimed tokens"
					},
					"merkleRoot()": {
						"notice": "ERC20-claimee inclusion root"
					}
				},
				"notice": "ERC20 claimable by members of a merkle tree",
				"version": 1
			}
		}
	}
}