{
	"src/MerkleClaimERC20.sol": {
		"MerkleClaimERC20": {
			"abi": [
				{
					"inputs": [
						{
							"internalType": "address[]",
							"name": "_tokenAddresses",
							"type": "address[]"
						},
						{
							"internalType": "bytes32[]",
							"name": "_merkleRoots",
							"type": "bytes32[]"
						}
					],
					"stateMutability": "nonpayable",
					"type": "constructor"
				},
				{
					"inputs": [],
					"name": "AlreadyClaimed",
					"type": "error"
				},
				{
					"inputs": [],
					"name": "NotInMerkle",
					"type": "error"
				},
				{
					"anonymous": false,
					"inputs": [
						{
							"indexed": true,
							"internalType": "address",
							"name": "to",
							"type": "address"
						},
						{
							"indexed": false,
							"internalType": "uint256",
							"name": "amount",
							"type": "uint256"
						}
					],
					"name": "Claim",
					"type": "event"
				},
				{
					"inputs": [],
					"name": "DAO",
					"outputs": [
						{
							"internalType": "address",
							"name": "",
							"type": "address"
						}
					],
					"stateMutability": "view",
					"type": "function"
				},
				{
					"inputs": [
						{
							"internalType": "address",
							"name": "token",
							"type": "address"
						},
						{
							"internalType": "address",
							"name": "to",
							"type": "address"
						},
						{
							"internalType": "uint256",
							"name": "amount",
							"type": "uint256"
						},
						{
							"internalType": "bytes32[]",
							"name": "proof",
							"type": "bytes32[]"
						}
					],
					"name": "claim",
					"outputs": [],
					"stateMutability": "nonpayable",
					"type": "function"
				},
				{
					"inputs": [
						{
							"internalType": "address",
							"name": "",
							"type": "address"
						},
						{
							"internalType": "address",
							"name": "",
							"type": "address"
						}
					],
					"name": "hasClaimed",
					"outputs": [
						{
							"internalType": "bool",
							"name": "",
							"type": "bool"
						}
					],
					"stateMutability": "view",
					"type": "function"
				},
				{
					"inputs": [
						{
							"internalType": "address",
							"name": "",
							"type": "address"
						}
					],
					"name": "merkleRoots",
					"outputs": [
						{
							"internalType": "bytes32",
							"name": "",
							"type": "bytes32"
						}
					],
					"stateMutability": "view",
					"type": "function"
				},
				{
					"inputs": [
						{
							"internalType": "contract IERC20",
							"name": "token",
							"type": "address"
						},
						{
							"internalType": "uint256",
							"name": "amount",
							"type": "uint256"
						}
					],
					"name": "protocolFallback",
					"outputs": [],
					"stateMutability": "nonpayable",
					"type": "function"
				}
			],
			"devdoc": {
				"author": "Anish Agnihotri <contact@anishagnihotri.com>Luigy Lemon -> modified for multi-token airdrops.",
				"events": {
					"Claim(address,uint256)": {
						"params": {
							"amount": "of tokens claimed",
							"to": "recipient of claim"
						}
					}
				},
				"kind": "dev",
				"methods": {
					"claim(address,address,uint256,bytes32[])": {
						"params": {
							"amount": "of tokens owed to claimee",
							"proof": "merkle proof to prove address and amount are in tree",
							"to": "address of claimee"
						}
					},
					"constructor": {
						"params": {
							"_merkleRoots": "of claimees",
							"_tokenAddresses": "of claimable tokens"
						}
					}
				},
				"title": "MerkleClaimERC20",
				"version": 1
			},
			"evm": {
				"assembly": "    /* \"src/MerkleClaimERC20.sol\":510:2983  contract MerkleClaimERC20 {... */\n  mstore(0x40, 0xa0)\n    /* \"src/MerkleClaimERC20.sol\":716:758  0xb4c575308221CAA398e0DD2cDEB6B2f10d7b000A */\n  0xb4c575308221caa398e0dd2cdeb6b2f10d7b000a\n    /* \"src/MerkleClaimERC20.sol\":685:758  address public immutable DAO = 0xb4c575308221CAA398e0DD2cDEB6B2f10d7b000A */\n  0xffffffffffffffffffffffffffffffffffffffff\n  and\n  0x80\n  swap1\n  0xffffffffffffffffffffffffffffffffffffffff\n  and\n  dup2\n  mstore\n  pop\n    /* \"src/MerkleClaimERC20.sol\":1359:1694  constructor(... */\n  callvalue\n  dup1\n  iszero\n  tag_1\n  jumpi\n  0x00\n  dup1\n  revert\ntag_1:\n  pop\n  mload(0x40)\n  sub(codesize, bytecodeSize)\n  dup1\n  bytecodeSize\n  dup4\n  codecopy\n  dup2\n  dup2\n  add\n  0x40\n  mstore\n  dup2\n  add\n  swap1\n  tag_2\n  swap2\n  swap1\n  tag_3\n  jump\t// in\ntag_2:\n    /* \"src/MerkleClaimERC20.sol\":1489:1501  _merkleRoots */\n  dup1\n    /* \"src/MerkleClaimERC20.sol\":1489:1508  _merkleRoots.length */\n  mload\n    /* \"src/MerkleClaimERC20.sol\":1463:1478  _tokenAddresses */\n  dup3\n    /* \"src/MerkleClaimERC20.sol\":1463:1485  _tokenAddresses.length */\n  mload\n    /* \"src/MerkleClaimERC20.sol\":1463:1508  _tokenAddresses.length == _merkleRoots.length */\n  eq\n    /* \"src/MerkleClaimERC20.sol\":1455:1549  require(_tokenAddresses.length == _merkleRoots.length , \"Need as many merkle Roots as tokens\") */\n  tag_6\n  jumpi\n  mload(0x40)\n  0x08c379a000000000000000000000000000000000000000000000000000000000\n  dup2\n  mstore\n  0x04\n  add\n  tag_7\n  swap1\n  tag_8\n  jump\t// in\ntag_7:\n  mload(0x40)\n  dup1\n  swap2\n  sub\n  swap1\n  revert\ntag_6:\n    /* \"src/MerkleClaimERC20.sol\":1560:1567  uint8 i */\n  0x00\n    /* \"src/MerkleClaimERC20.sol\":1555:1685  for (uint8 i =0; i< _tokenAddresses.length; i++){... */\ntag_9:\n    /* \"src/MerkleClaimERC20.sol\":1575:1590  _tokenAddresses */\n  dup3\n    /* \"src/MerkleClaimERC20.sol\":1575:1597  _tokenAddresses.length */\n  mload\n    /* \"src/MerkleClaimERC20.sol\":1572:1573  i */\n  dup2\n    /* \"src/MerkleClaimERC20.sol\":1572:1597  i< _tokenAddresses.length */\n  0xff\n  and\n  lt\n    /* \"src/MerkleClaimERC20.sol\":1555:1685  for (uint8 i =0; i< _tokenAddresses.length; i++){... */\n  iszero\n  tag_10\n  jumpi\n    /* \"src/MerkleClaimERC20.sol\":1647:1659  _merkleRoots */\n  dup2\n    /* \"src/MerkleClaimERC20.sol\":1660:1661  i */\n  dup2\n    /* \"src/MerkleClaimERC20.sol\":1647:1662  _merkleRoots[i] */\n  0xff\n  and\n  dup2\n  mload\n  dup2\n  lt\n  tag_12\n  jumpi\n  tag_13\n  tag_14\n  jump\t// in\ntag_13:\ntag_12:\n  0x20\n  mul\n  0x20\n  add\n  add\n  mload\n    /* \"src/MerkleClaimERC20.sol\":1613:1624  merkleRoots */\n  0x00\n    /* \"src/MerkleClaimERC20.sol\":1613:1644  merkleRoots[_tokenAddresses[i]] */\n  dup1\n    /* \"src/MerkleClaimERC20.sol\":1625:1640  _tokenAddresses */\n  dup6\n    /* \"src/MerkleClaimERC20.sol\":1641:1642  i */\n  dup5\n    /* \"src/MerkleClaimERC20.sol\":1625:1643  _tokenAddresses[i] */\n  0xff\n  and\n  dup2\n  mload\n  dup2\n  lt\n  tag_15\n  jumpi\n  tag_16\n  tag_14\n  jump\t// in\ntag_16:\ntag_15:\n  0x20\n  mul\n  0x20\n  add\n  add\n  mload\n    /* \"src/MerkleClaimERC20.sol\":1613:1644  merkleRoots[_tokenAddresses[i]] */\n  0xffffffffffffffffffffffffffffffffffffffff\n  and\n  0xffffffffffffffffffffffffffffffffffffffff\n  and\n  dup2\n  mstore\n  0x20\n  add\n  swap1\n  dup2\n  mstore\n  0x20\n  add\n  0x00\n  keccak256\n    /* \"src/MerkleClaimERC20.sol\":1613:1662  merkleRoots[_tokenAddresses[i]] = _merkleRoots[i] */\n  dup2\n  swap1\n  sstore\n  pop\n    /* \"src/MerkleClaimERC20.sol\":1599:1602  i++ */\n  dup1\n  dup1\n  tag_17\n  swap1\n  tag_18\n  jump\t// in\ntag_17:\n  swap2\n  pop\n  pop\n    /* \"src/MerkleClaimERC20.sol\":1555:1685  for (uint8 i =0; i< _tokenAddresses.length; i++){... */\n  jump(tag_9)\ntag_10:\n  pop\n    /* \"src/MerkleClaimERC20.sol\":1359:1694  constructor(... */\n  pop\n  pop\n    /* \"src/MerkleClaimERC20.sol\":510:2983  contract MerkleClaimERC20 {... */\n  jump(tag_19)\n    /* \"#utility.yul\":7:82   */\ntag_20:\n    /* \"#utility.yul\":40:46   */\n  0x00\n    /* \"#utility.yul\":73:75   */\n  0x40\n    /* \"#utility.yul\":67:76   */\n  mload\n    /* \"#utility.yul\":57:76   */\n  swap1\n  pop\n    /* \"#utility.yul\":7:82   */\n  swap1\n  jump\t// out\n    /* \"#utility.yul\":88:205   */\ntag_21:\n    /* \"#utility.yul\":197:198   */\n  0x00\n    /* \"#utility.yul\":194:195   */\n  dup1\n    /* \"#utility.yul\":187:199   */\n  revert\n    /* \"#utility.yul\":211:328   */\ntag_22:\n    /* \"#utility.yul\":320:321   */\n  0x00\n    /* \"#utility.yul\":317:318   */\n  dup1\n    /* \"#utility.yul\":310:322   */\n  revert\n    /* \"#utility.yul\":334:451   */\ntag_23:\n    /* \"#utility.yul\":443:444   */\n  0x00\n    /* \"#utility.yul\":440:441   */\n  dup1\n    /* \"#utility.yul\":433:445   */\n  revert\n    /* \"#utility.yul\":457:559   */\ntag_24:\n    /* \"#utility.yul\":498:504   */\n  0x00\n    /* \"#utility.yul\":549:551   */\n  0x1f\n    /* \"#utility.yul\":545:552   */\n  not\n    /* \"#utility.yul\":540:542   */\n  0x1f\n    /* \"#utility.yul\":533:538   */\n  dup4\n    /* \"#utility.yul\":529:543   */\n  add\n    /* \"#utility.yul\":525:553   */\n  and\n    /* \"#utility.yul\":515:553   */\n  swap1\n  pop\n    /* \"#utility.yul\":457:559   */\n  swap2\n  swap1\n  pop\n  jump\t// out\n    /* \"#utility.yul\":565:745   */\ntag_25:\n    /* \"#utility.yul\":613:690   */\n  0x4e487b7100000000000000000000000000000000000000000000000000000000\n    /* \"#utility.yul\":610:611   */\n  0x00\n    /* \"#utility.yul\":603:691   */\n  mstore\n    /* \"#utility.yul\":710:714   */\n  0x41\n    /* \"#utility.yul\":707:708   */\n  0x04\n    /* \"#utility.yul\":700:715   */\n  mstore\n    /* \"#utility.yul\":734:738   */\n  0x24\n    /* \"#utility.yul\":731:732   */\n  0x00\n    /* \"#utility.yul\":724:739   */\n  revert\n    /* \"#utility.yul\":751:1032   */\ntag_26:\n    /* \"#utility.yul\":834:861   */\n  tag_55\n    /* \"#utility.yul\":856:860   */\n  dup3\n    /* \"#utility.yul\":834:861   */\n  tag_24\n  jump\t// in\ntag_55:\n    /* \"#utility.yul\":826:832   */\n  dup2\n    /* \"#utility.yul\":822:862   */\n  add\n    /* \"#utility.yul\":964:970   */\n  dup2\n    /* \"#utility.yul\":952:962   */\n  dup2\n    /* \"#utility.yul\":949:971   */\n  lt\n    /* \"#utility.yul\":928:946   */\n  0xffffffffffffffff\n    /* \"#utility.yul\":916:926   */\n  dup3\n    /* \"#utility.yul\":913:947   */\n  gt\n    /* \"#utility.yul\":910:972   */\n  or\n    /* \"#utility.yul\":907:995   */\n  iszero\n  tag_56\n  jumpi\n    /* \"#utility.yul\":975:993   */\n  tag_57\n  tag_25\n  jump\t// in\ntag_57:\n    /* \"#utility.yul\":907:995   */\ntag_56:\n    /* \"#utility.yul\":1015:1025   */\n  dup1\n    /* \"#utility.yul\":1011:1013   */\n  0x40\n    /* \"#utility.yul\":1004:1026   */\n  mstore\n    /* \"#utility.yul\":794:1032   */\n  pop\n    /* \"#utility.yul\":751:1032   */\n  pop\n  pop\n  jump\t// out\n    /* \"#utility.yul\":1038:1167   */\ntag_27:\n    /* \"#utility.yul\":1072:1078   */\n  0x00\n    /* \"#utility.yul\":1099:1119   */\n  tag_59\n  tag_20\n  jump\t// in\ntag_59:\n    /* \"#utility.yul\":1089:1119   */\n  swap1\n  pop\n    /* \"#utility.yul\":1128:1161   */\n  tag_60\n    /* \"#utility.yul\":1156:1160   */\n  dup3\n    /* \"#utility.yul\":1148:1154   */\n  dup3\n    /* \"#utility.yul\":1128:1161   */\n  tag_26\n  jump\t// in\ntag_60:\n    /* \"#utility.yul\":1038:1167   */\n  swap2\n  swap1\n  pop\n  jump\t// out\n    /* \"#utility.yul\":1173:1484   */\ntag_28:\n    /* \"#utility.yul\":1250:1254   */\n  0x00\n    /* \"#utility.yul\":1340:1358   */\n  0xffffffffffffffff\n    /* \"#utility.yul\":1332:1338   */\n  dup3\n    /* \"#utility.yul\":1329:1359   */\n  gt\n    /* \"#utility.yul\":1326:1382   */\n  iszero\n  tag_62\n  jumpi\n    /* \"#utility.yul\":1362:1380   */\n  tag_63\n  tag_25\n  jump\t// in\ntag_63:\n    /* \"#utility.yul\":1326:1382   */\ntag_62:\n    /* \"#utility.yul\":1412:1416   */\n  0x20\n    /* \"#utility.yul\":1404:1410   */\n  dup3\n    /* \"#utility.yul\":1400:1417   */\n  mul\n    /* \"#utility.yul\":1392:1417   */\n  swap1\n  pop\n    /* \"#utility.yul\":1472:1476   */\n  0x20\n    /* \"#utility.yul\":1466:1470   */\n  dup2\n    /* \"#utility.yul\":1462:1477   */\n  add\n    /* \"#utility.yul\":1454:1477   */\n  swap1\n  pop\n    /* \"#utility.yul\":1173:1484   */\n  swap2\n  swap1\n  pop\n  jump\t// out\n    /* \"#utility.yul\":1490:1607   */\ntag_29:\n    /* \"#utility.yul\":1599:1600   */\n  0x00\n    /* \"#utility.yul\":1596:1597   */\n  dup1\n    /* \"#utility.yul\":1589:1601   */\n  revert\n    /* \"#utility.yul\":1613:1739   */\ntag_30:\n    /* \"#utility.yul\":1650:1657   */\n  0x00\n    /* \"#utility.yul\":1690:1732   */\n  0xffffffffffffffffffffffffffffffffffffffff\n    /* \"#utility.yul\":1683:1688   */\n  dup3\n    /* \"#utility.yul\":1679:1733   */\n  and\n    /* \"#utility.yul\":1668:1733   */\n  swap1\n  pop\n    /* \"#utility.yul\":1613:1739   */\n  swap2\n  swap1\n  pop\n  jump\t// out\n    /* \"#utility.yul\":1745:1841   */\ntag_31:\n    /* \"#utility.yul\":1782:1789   */\n  0x00\n    /* \"#utility.yul\":1811:1835   */\n  tag_67\n    /* \"#utility.yul\":1829:1834   */\n  dup3\n    /* \"#utility.yul\":1811:1835   */\n  tag_30\n  jump\t// in\ntag_67:\n    /* \"#utility.yul\":1800:1835   */\n  swap1\n  pop\n    /* \"#utility.yul\":1745:1841   */\n  swap2\n  swap1\n  pop\n  jump\t// out\n    /* \"#utility.yul\":1847:1969   */\ntag_32:\n    /* \"#utility.yul\":1920:1944   */\n  tag_69\n    /* \"#utility.yul\":1938:1943   */\n  dup2\n    /* \"#utility.yul\":1920:1944   */\n  tag_31\n  jump\t// in\ntag_69:\n    /* \"#utility.yul\":1913:1918   */\n  dup2\n    /* \"#utility.yul\":1910:1945   */\n  eq\n    /* \"#utility.yul\":1900:1963   */\n  tag_70\n  jumpi\n    /* \"#utility.yul\":1959:1960   */\n  0x00\n    /* \"#utility.yul\":1956:1957   */\n  dup1\n    /* \"#utility.yul\":1949:1961   */\n  revert\n    /* \"#utility.yul\":1900:1963   */\ntag_70:\n    /* \"#utility.yul\":1847:1969   */\n  pop\n  jump\t// out\n    /* \"#utility.yul\":1975:2118   */\ntag_33:\n    /* \"#utility.yul\":2032:2037   */\n  0x00\n    /* \"#utility.yul\":2063:2069   */\n  dup2\n    /* \"#utility.yul\":2057:2070   */\n  mload\n    /* \"#utility.yul\":2048:2070   */\n  swap1\n  pop\n    /* \"#utility.yul\":2079:2112   */\n  tag_72\n    /* \"#utility.yul\":2106:2111   */\n  dup2\n    /* \"#utility.yul\":2079:2112   */\n  tag_32\n  jump\t// in\ntag_72:\n    /* \"#utility.yul\":1975:2118   */\n  swap3\n  swap2\n  pop\n  pop\n  jump\t// out\n    /* \"#utility.yul\":2141:2873   */\ntag_34:\n    /* \"#utility.yul\":2248:2253   */\n  0x00\n    /* \"#utility.yul\":2273:2354   */\n  tag_74\n    /* \"#utility.yul\":2289:2353   */\n  tag_75\n    /* \"#utility.yul\":2346:2352   */\n  dup5\n    /* \"#utility.yul\":2289:2353   */\n  tag_28\n  jump\t// in\ntag_75:\n    /* \"#utility.yul\":2273:2354   */\n  tag_27\n  jump\t// in\ntag_74:\n    /* \"#utility.yul\":2264:2354   */\n  swap1\n  pop\n    /* \"#utility.yul\":2374:2379   */\n  dup1\n    /* \"#utility.yul\":2403:2409   */\n  dup4\n    /* \"#utility.yul\":2396:2401   */\n  dup3\n    /* \"#utility.yul\":2389:2410   */\n  mstore\n    /* \"#utility.yul\":2437:2441   */\n  0x20\n    /* \"#utility.yul\":2430:2435   */\n  dup3\n    /* \"#utility.yul\":2426:2442   */\n  add\n    /* \"#utility.yul\":2419:2442   */\n  swap1\n  pop\n    /* \"#utility.yul\":2490:2494   */\n  0x20\n    /* \"#utility.yul\":2482:2488   */\n  dup5\n    /* \"#utility.yul\":2478:2495   */\n  mul\n    /* \"#utility.yul\":2470:2476   */\n  dup4\n    /* \"#utility.yul\":2466:2496   */\n  add\n    /* \"#utility.yul\":2519:2522   */\n  dup6\n    /* \"#utility.yul\":2511:2517   */\n  dup2\n    /* \"#utility.yul\":2508:2523   */\n  gt\n    /* \"#utility.yul\":2505:2627   */\n  iszero\n  tag_76\n  jumpi\n    /* \"#utility.yul\":2538:2617   */\n  tag_77\n  tag_29\n  jump\t// in\ntag_77:\n    /* \"#utility.yul\":2505:2627   */\ntag_76:\n    /* \"#utility.yul\":2653:2659   */\n  dup4\n    /* \"#utility.yul\":2636:2867   */\ntag_78:\n    /* \"#utility.yul\":2670:2676   */\n  dup2\n    /* \"#utility.yul\":2665:2668   */\n  dup2\n    /* \"#utility.yul\":2662:2677   */\n  lt\n    /* \"#utility.yul\":2636:2867   */\n  iszero\n  tag_80\n  jumpi\n    /* \"#utility.yul\":2745:2748   */\n  dup1\n    /* \"#utility.yul\":2774:2822   */\n  tag_81\n    /* \"#utility.yul\":2818:2821   */\n  dup9\n    /* \"#utility.yul\":2806:2816   */\n  dup3\n    /* \"#utility.yul\":2774:2822   */\n  tag_33\n  jump\t// in\ntag_81:\n    /* \"#utility.yul\":2769:2772   */\n  dup5\n    /* \"#utility.yul\":2762:2823   */\n  mstore\n    /* \"#utility.yul\":2852:2856   */\n  0x20\n    /* \"#utility.yul\":2847:2850   */\n  dup5\n    /* \"#utility.yul\":2843:2857   */\n  add\n    /* \"#utility.yul\":2836:2857   */\n  swap4\n  pop\n    /* \"#utility.yul\":2712:2867   */\n  pop\n    /* \"#utility.yul\":2696:2700   */\n  0x20\n    /* \"#utility.yul\":2691:2694   */\n  dup2\n    /* \"#utility.yul\":2687:2701   */\n  add\n    /* \"#utility.yul\":2680:2701   */\n  swap1\n  pop\n    /* \"#utility.yul\":2636:2867   */\n  jump(tag_78)\ntag_80:\n    /* \"#utility.yul\":2640:2661   */\n  pop\n    /* \"#utility.yul\":2254:2873   */\n  pop\n  pop\n    /* \"#utility.yul\":2141:2873   */\n  swap4\n  swap3\n  pop\n  pop\n  pop\n  jump\t// out\n    /* \"#utility.yul\":2896:3281   */\ntag_35:\n    /* \"#utility.yul\":2978:2983   */\n  0x00\n    /* \"#utility.yul\":3027:3030   */\n  dup3\n    /* \"#utility.yul\":3020:3024   */\n  0x1f\n    /* \"#utility.yul\":3012:3018   */\n  dup4\n    /* \"#utility.yul\":3008:3025   */\n  add\n    /* \"#utility.yul\":3004:3031   */\n  slt\n    /* \"#utility.yul\":2994:3116   */\n  tag_83\n  jumpi\n    /* \"#utility.yul\":3035:3114   */\n  tag_84\n  tag_23\n  jump\t// in\ntag_84:\n    /* \"#utility.yul\":2994:3116   */\ntag_83:\n    /* \"#utility.yul\":3145:3151   */\n  dup2\n    /* \"#utility.yul\":3139:3152   */\n  mload\n    /* \"#utility.yul\":3170:3275   */\n  tag_85\n    /* \"#utility.yul\":3271:3274   */\n  dup5\n    /* \"#utility.yul\":3263:3269   */\n  dup3\n    /* \"#utility.yul\":3256:3260   */\n  0x20\n    /* \"#utility.yul\":3248:3254   */\n  dup7\n    /* \"#utility.yul\":3244:3261   */\n  add\n    /* \"#utility.yul\":3170:3275   */\n  tag_34\n  jump\t// in\ntag_85:\n    /* \"#utility.yul\":3161:3275   */\n  swap2\n  pop\n    /* \"#utility.yul\":2984:3281   */\n  pop\n    /* \"#utility.yul\":2896:3281   */\n  swap3\n  swap2\n  pop\n  pop\n  jump\t// out\n    /* \"#utility.yul\":3287:3598   */\ntag_36:\n    /* \"#utility.yul\":3364:3368   */\n  0x00\n    /* \"#utility.yul\":3454:3472   */\n  0xffffffffffffffff\n    /* \"#utility.yul\":3446:3452   */\n  dup3\n    /* \"#utility.yul\":3443:3473   */\n  gt\n    /* \"#utility.yul\":3440:3496   */\n  iszero\n  tag_87\n  jumpi\n    /* \"#utility.yul\":3476:3494   */\n  tag_88\n  tag_25\n  jump\t// in\ntag_88:\n    /* \"#utility.yul\":3440:3496   */\ntag_87:\n    /* \"#utility.yul\":3526:3530   */\n  0x20\n    /* \"#utility.yul\":3518:3524   */\n  dup3\n    /* \"#utility.yul\":3514:3531   */\n  mul\n    /* \"#utility.yul\":3506:3531   */\n  swap1\n  pop\n    /* \"#utility.yul\":3586:3590   */\n  0x20\n    /* \"#utility.yul\":3580:3584   */\n  dup2\n    /* \"#utility.yul\":3576:3591   */\n  add\n    /* \"#utility.yul\":3568:3591   */\n  swap1\n  pop\n    /* \"#utility.yul\":3287:3598   */\n  swap2\n  swap1\n  pop\n  jump\t// out\n    /* \"#utility.yul\":3604:3681   */\ntag_37:\n    /* \"#utility.yul\":3641:3648   */\n  0x00\n    /* \"#utility.yul\":3670:3675   */\n  dup2\n    /* \"#utility.yul\":3659:3675   */\n  swap1\n  pop\n    /* \"#utility.yul\":3604:3681   */\n  swap2\n  swap1\n  pop\n  jump\t// out\n    /* \"#utility.yul\":3687:3809   */\ntag_38:\n    /* \"#utility.yul\":3760:3784   */\n  tag_91\n    /* \"#utility.yul\":3778:3783   */\n  dup2\n    /* \"#utility.yul\":3760:3784   */\n  tag_37\n  jump\t// in\ntag_91:\n    /* \"#utility.yul\":3753:3758   */\n  dup2\n    /* \"#utility.yul\":3750:3785   */\n  eq\n    /* \"#utility.yul\":3740:3803   */\n  tag_92\n  jumpi\n    /* \"#utility.yul\":3799:3800   */\n  0x00\n    /* \"#utility.yul\":3796:3797   */\n  dup1\n    /* \"#utility.yul\":3789:3801   */\n  revert\n    /* \"#utility.yul\":3740:3803   */\ntag_92:\n    /* \"#utility.yul\":3687:3809   */\n  pop\n  jump\t// out\n    /* \"#utility.yul\":3815:3958   */\ntag_39:\n    /* \"#utility.yul\":3872:3877   */\n  0x00\n    /* \"#utility.yul\":3903:3909   */\n  dup2\n    /* \"#utility.yul\":3897:3910   */\n  mload\n    /* \"#utility.yul\":3888:3910   */\n  swap1\n  pop\n    /* \"#utility.yul\":3919:3952   */\n  tag_94\n    /* \"#utility.yul\":3946:3951   */\n  dup2\n    /* \"#utility.yul\":3919:3952   */\n  tag_38\n  jump\t// in\ntag_94:\n    /* \"#utility.yul\":3815:3958   */\n  swap3\n  swap2\n  pop\n  pop\n  jump\t// out\n    /* \"#utility.yul\":3981:4713   */\ntag_40:\n    /* \"#utility.yul\":4088:4093   */\n  0x00\n    /* \"#utility.yul\":4113:4194   */\n  tag_96\n    /* \"#utility.yul\":4129:4193   */\n  tag_97\n    /* \"#utility.yul\":4186:4192   */\n  dup5\n    /* \"#utility.yul\":4129:4193   */\n  tag_36\n  jump\t// in\ntag_97:\n    /* \"#utility.yul\":4113:4194   */\n  tag_27\n  jump\t// in\ntag_96:\n    /* \"#utility.yul\":4104:4194   */\n  swap1\n  pop\n    /* \"#utility.yul\":4214:4219   */\n  dup1\n    /* \"#utility.yul\":4243:4249   */\n  dup4\n    /* \"#utility.yul\":4236:4241   */\n  dup3\n    /* \"#utility.yul\":4229:4250   */\n  mstore\n    /* \"#utility.yul\":4277:4281   */\n  0x20\n    /* \"#utility.yul\":4270:4275   */\n  dup3\n    /* \"#utility.yul\":4266:4282   */\n  add\n    /* \"#utility.yul\":4259:4282   */\n  swap1\n  pop\n    /* \"#utility.yul\":4330:4334   */\n  0x20\n    /* \"#utility.yul\":4322:4328   */\n  dup5\n    /* \"#utility.yul\":4318:4335   */\n  mul\n    /* \"#utility.yul\":4310:4316   */\n  dup4\n    /* \"#utility.yul\":4306:4336   */\n  add\n    /* \"#utility.yul\":4359:4362   */\n  dup6\n    /* \"#utility.yul\":4351:4357   */\n  dup2\n    /* \"#utility.yul\":4348:4363   */\n  gt\n    /* \"#utility.yul\":4345:4467   */\n  iszero\n  tag_98\n  jumpi\n    /* \"#utility.yul\":4378:4457   */\n  tag_99\n  tag_29\n  jump\t// in\ntag_99:\n    /* \"#utility.yul\":4345:4467   */\ntag_98:\n    /* \"#utility.yul\":4493:4499   */\n  dup4\n    /* \"#utility.yul\":4476:4707   */\ntag_100:\n    /* \"#utility.yul\":4510:4516   */\n  dup2\n    /* \"#utility.yul\":4505:4508   */\n  dup2\n    /* \"#utility.yul\":4502:4517   */\n  lt\n    /* \"#utility.yul\":4476:4707   */\n  iszero\n  tag_102\n  jumpi\n    /* \"#utility.yul\":4585:4588   */\n  dup1\n    /* \"#utility.yul\":4614:4662   */\n  tag_103\n    /* \"#utility.yul\":4658:4661   */\n  dup9\n    /* \"#utility.yul\":4646:4656   */\n  dup3\n    /* \"#utility.yul\":4614:4662   */\n  tag_39\n  jump\t// in\ntag_103:\n    /* \"#utility.yul\":4609:4612   */\n  dup5\n    /* \"#utility.yul\":4602:4663   */\n  mstore\n    /* \"#utility.yul\":4692:4696   */\n  0x20\n    /* \"#utility.yul\":4687:4690   */\n  dup5\n    /* \"#utility.yul\":4683:4697   */\n  add\n    /* \"#utility.yul\":4676:4697   */\n  swap4\n  pop\n    /* \"#utility.yul\":4552:4707   */\n  pop\n    /* \"#utility.yul\":4536:4540   */\n  0x20\n    /* \"#utility.yul\":4531:4534   */\n  dup2\n    /* \"#utility.yul\":4527:4541   */\n  add\n    /* \"#utility.yul\":4520:4541   */\n  swap1\n  pop\n    /* \"#utility.yul\":4476:4707   */\n  jump(tag_100)\ntag_102:\n    /* \"#utility.yul\":4480:4501   */\n  pop\n    /* \"#utility.yul\":4094:4713   */\n  pop\n  pop\n    /* \"#utility.yul\":3981:4713   */\n  swap4\n  swap3\n  pop\n  pop\n  pop\n  jump\t// out\n    /* \"#utility.yul\":4736:5121   */\ntag_41:\n    /* \"#utility.yul\":4818:4823   */\n  0x00\n    /* \"#utility.yul\":4867:4870   */\n  dup3\n    /* \"#utility.yul\":4860:4864   */\n  0x1f\n    /* \"#utility.yul\":4852:4858   */\n  dup4\n    /* \"#utility.yul\":4848:4865   */\n  add\n    /* \"#utility.yul\":4844:4871   */\n  slt\n    /* \"#utility.yul\":4834:4956   */\n  tag_105\n  jumpi\n    /* \"#utility.yul\":4875:4954   */\n  tag_106\n  tag_23\n  jump\t// in\ntag_106:\n    /* \"#utility.yul\":4834:4956   */\ntag_105:\n    /* \"#utility.yul\":4985:4991   */\n  dup2\n    /* \"#utility.yul\":4979:4992   */\n  mload\n    /* \"#utility.yul\":5010:5115   */\n  tag_107\n    /* \"#utility.yul\":5111:5114   */\n  dup5\n    /* \"#utility.yul\":5103:5109   */\n  dup3\n    /* \"#utility.yul\":5096:5100   */\n  0x20\n    /* \"#utility.yul\":5088:5094   */\n  dup7\n    /* \"#utility.yul\":5084:5101   */\n  add\n    /* \"#utility.yul\":5010:5115   */\n  tag_40\n  jump\t// in\ntag_107:\n    /* \"#utility.yul\":5001:5115   */\n  swap2\n  pop\n    /* \"#utility.yul\":4824:5121   */\n  pop\n    /* \"#utility.yul\":4736:5121   */\n  swap3\n  swap2\n  pop\n  pop\n  jump\t// out\n    /* \"#utility.yul\":5127:6040   */\ntag_3:\n    /* \"#utility.yul\":5256:5262   */\n  0x00\n    /* \"#utility.yul\":5264:5270   */\n  dup1\n    /* \"#utility.yul\":5313:5315   */\n  0x40\n    /* \"#utility.yul\":5301:5310   */\n  dup4\n    /* \"#utility.yul\":5292:5299   */\n  dup6\n    /* \"#utility.yul\":5288:5311   */\n  sub\n    /* \"#utility.yul\":5284:5316   */\n  slt\n    /* \"#utility.yul\":5281:5400   */\n  iszero\n  tag_109\n  jumpi\n    /* \"#utility.yul\":5319:5398   */\n  tag_110\n  tag_21\n  jump\t// in\ntag_110:\n    /* \"#utility.yul\":5281:5400   */\ntag_109:\n    /* \"#utility.yul\":5460:5461   */\n  0x00\n    /* \"#utility.yul\":5449:5458   */\n  dup4\n    /* \"#utility.yul\":5445:5462   */\n  add\n    /* \"#utility.yul\":5439:5463   */\n  mload\n    /* \"#utility.yul\":5490:5508   */\n  0xffffffffffffffff\n    /* \"#utility.yul\":5482:5488   */\n  dup2\n    /* \"#utility.yul\":5479:5509   */\n  gt\n    /* \"#utility.yul\":5476:5593   */\n  iszero\n  tag_111\n  jumpi\n    /* \"#utility.yul\":5512:5591   */\n  tag_112\n  tag_22\n  jump\t// in\ntag_112:\n    /* \"#utility.yul\":5476:5593   */\ntag_111:\n    /* \"#utility.yul\":5617:5706   */\n  tag_113\n    /* \"#utility.yul\":5698:5705   */\n  dup6\n    /* \"#utility.yul\":5689:5695   */\n  dup3\n    /* \"#utility.yul\":5678:5687   */\n  dup7\n    /* \"#utility.yul\":5674:5696   */\n  add\n    /* \"#utility.yul\":5617:5706   */\n  tag_35\n  jump\t// in\ntag_113:\n    /* \"#utility.yul\":5607:5706   */\n  swap3\n  pop\n    /* \"#utility.yul\":5410:5716   */\n  pop\n    /* \"#utility.yul\":5776:5778   */\n  0x20\n    /* \"#utility.yul\":5765:5774   */\n  dup4\n    /* \"#utility.yul\":5761:5779   */\n  add\n    /* \"#utility.yul\":5755:5780   */\n  mload\n    /* \"#utility.yul\":5807:5825   */\n  0xffffffffffffffff\n    /* \"#utility.yul\":5799:5805   */\n  dup2\n    /* \"#utility.yul\":5796:5826   */\n  gt\n    /* \"#utility.yul\":5793:5910   */\n  iszero\n  tag_114\n  jumpi\n    /* \"#utility.yul\":5829:5908   */\n  tag_115\n  tag_22\n  jump\t// in\ntag_115:\n    /* \"#utility.yul\":5793:5910   */\ntag_114:\n    /* \"#utility.yul\":5934:6023   */\n  tag_116\n    /* \"#utility.yul\":6015:6022   */\n  dup6\n    /* \"#utility.yul\":6006:6012   */\n  dup3\n    /* \"#utility.yul\":5995:6004   */\n  dup7\n    /* \"#utility.yul\":5991:6013   */\n  add\n    /* \"#utility.yul\":5934:6023   */\n  tag_41\n  jump\t// in\ntag_116:\n    /* \"#utility.yul\":5924:6023   */\n  swap2\n  pop\n    /* \"#utility.yul\":5726:6033   */\n  pop\n    /* \"#utility.yul\":5127:6040   */\n  swap3\n  pop\n  swap3\n  swap1\n  pop\n  jump\t// out\n    /* \"#utility.yul\":6046:6215   */\ntag_42:\n    /* \"#utility.yul\":6130:6141   */\n  0x00\n    /* \"#utility.yul\":6164:6170   */\n  dup3\n    /* \"#utility.yul\":6159:6162   */\n  dup3\n    /* \"#utility.yul\":6152:6171   */\n  mstore\n    /* \"#utility.yul\":6204:6208   */\n  0x20\n    /* \"#utility.yul\":6199:6202   */\n  dup3\n    /* \"#utility.yul\":6195:6209   */\n  add\n    /* \"#utility.yul\":6180:6209   */\n  swap1\n  pop\n    /* \"#utility.yul\":6046:6215   */\n  swap3\n  swap2\n  pop\n  pop\n  jump\t// out\n    /* \"#utility.yul\":6221:6443   */\ntag_43:\n    /* \"#utility.yul\":6361:6395   */\n  0x4e656564206173206d616e79206d65726b6c6520526f6f747320617320746f6b\n    /* \"#utility.yul\":6357:6358   */\n  0x00\n    /* \"#utility.yul\":6349:6355   */\n  dup3\n    /* \"#utility.yul\":6345:6359   */\n  add\n    /* \"#utility.yul\":6338:6396   */\n  mstore\n    /* \"#utility.yul\":6430:6435   */\n  0x656e730000000000000000000000000000000000000000000000000000000000\n    /* \"#utility.yul\":6425:6427   */\n  0x20\n    /* \"#utility.yul\":6417:6423   */\n  dup3\n    /* \"#utility.yul\":6413:6428   */\n  add\n    /* \"#utility.yul\":6406:6436   */\n  mstore\n    /* \"#utility.yul\":6221:6443   */\n  pop\n  jump\t// out\n    /* \"#utility.yul\":6449:6815   */\ntag_44:\n    /* \"#utility.yul\":6591:6594   */\n  0x00\n    /* \"#utility.yul\":6612:6679   */\n  tag_120\n    /* \"#utility.yul\":6676:6678   */\n  0x23\n    /* \"#utility.yul\":6671:6674   */\n  dup4\n    /* \"#utility.yul\":6612:6679   */\n  tag_42\n  jump\t// in\ntag_120:\n    /* \"#utility.yul\":6605:6679   */\n  swap2\n  pop\n    /* \"#utility.yul\":6688:6781   */\n  tag_121\n    /* \"#utility.yul\":6777:6780   */\n  dup3\n    /* \"#utility.yul\":6688:6781   */\n  tag_43\n  jump\t// in\ntag_121:\n    /* \"#utility.yul\":6806:6808   */\n  0x40\n    /* \"#utility.yul\":6801:6804   */\n  dup3\n    /* \"#utility.yul\":6797:6809   */\n  add\n    /* \"#utility.yul\":6790:6809   */\n  swap1\n  pop\n    /* \"#utility.yul\":6449:6815   */\n  swap2\n  swap1\n  pop\n  jump\t// out\n    /* \"#utility.yul\":6821:7240   */\ntag_8:\n    /* \"#utility.yul\":6987:6991   */\n  0x00\n    /* \"#utility.yul\":7025:7027   */\n  0x20\n    /* \"#utility.yul\":7014:7023   */\n  dup3\n    /* \"#utility.yul\":7010:7028   */\n  add\n    /* \"#utility.yul\":7002:7028   */\n  swap1\n  pop\n    /* \"#utility.yul\":7074:7083   */\n  dup2\n    /* \"#utility.yul\":7068:7072   */\n  dup2\n    /* \"#utility.yul\":7064:7084   */\n  sub\n    /* \"#utility.yul\":7060:7061   */\n  0x00\n    /* \"#utility.yul\":7049:7058   */\n  dup4\n    /* \"#utility.yul\":7045:7062   */\n  add\n    /* \"#utility.yul\":7038:7085   */\n  mstore\n    /* \"#utility.yul\":7102:7233   */\n  tag_123\n    /* \"#utility.yul\":7228:7232   */\n  dup2\n    /* \"#utility.yul\":7102:7233   */\n  tag_44\n  jump\t// in\ntag_123:\n    /* \"#utility.yul\":7094:7233   */\n  swap1\n  pop\n    /* \"#utility.yul\":6821:7240   */\n  swap2\n  swap1\n  pop\n  jump\t// out\n    /* \"#utility.yul\":7246:7426   */\ntag_14:\n    /* \"#utility.yul\":7294:7371   */\n  0x4e487b7100000000000000000000000000000000000000000000000000000000\n    /* \"#utility.yul\":7291:7292   */\n  0x00\n    /* \"#utility.yul\":7284:7372   */\n  mstore\n    /* \"#utility.yul\":7391:7395   */\n  0x32\n    /* \"#utility.yul\":7388:7389   */\n  0x04\n    /* \"#utility.yul\":7381:7396   */\n  mstore\n    /* \"#utility.yul\":7415:7419   */\n  0x24\n    /* \"#utility.yul\":7412:7413   */\n  0x00\n    /* \"#utility.yul\":7405:7420   */\n  revert\n    /* \"#utility.yul\":7432:7612   */\ntag_45:\n    /* \"#utility.yul\":7480:7557   */\n  0x4e487b7100000000000000000000000000000000000000000000000000000000\n    /* \"#utility.yul\":7477:7478   */\n  0x00\n    /* \"#utility.yul\":7470:7558   */\n  mstore\n    /* \"#utility.yul\":7577:7581   */\n  0x11\n    /* \"#utility.yul\":7574:7575   */\n  0x04\n    /* \"#utility.yul\":7567:7582   */\n  mstore\n    /* \"#utility.yul\":7601:7605   */\n  0x24\n    /* \"#utility.yul\":7598:7599   */\n  0x00\n    /* \"#utility.yul\":7591:7606   */\n  revert\n    /* \"#utility.yul\":7618:7704   */\ntag_46:\n    /* \"#utility.yul\":7653:7660   */\n  0x00\n    /* \"#utility.yul\":7693:7697   */\n  0xff\n    /* \"#utility.yul\":7686:7691   */\n  dup3\n    /* \"#utility.yul\":7682:7698   */\n  and\n    /* \"#utility.yul\":7671:7698   */\n  swap1\n  pop\n    /* \"#utility.yul\":7618:7704   */\n  swap2\n  swap1\n  pop\n  jump\t// out\n    /* \"#utility.yul\":7710:7877   */\ntag_18:\n    /* \"#utility.yul\":7747:7750   */\n  0x00\n    /* \"#utility.yul\":7770:7792   */\n  tag_128\n    /* \"#utility.yul\":7786:7791   */\n  dup3\n    /* \"#utility.yul\":7770:7792   */\n  tag_46\n  jump\t// in\ntag_128:\n    /* \"#utility.yul\":7761:7792   */\n  swap2\n  pop\n    /* \"#utility.yul\":7814:7818   */\n  0xff\n    /* \"#utility.yul\":7807:7812   */\n  dup3\n    /* \"#utility.yul\":7804:7819   */\n  sub\n    /* \"#utility.yul\":7801:7842   */\n  tag_129\n  jumpi\n    /* \"#utility.yul\":7822:7840   */\n  tag_130\n  tag_45\n  jump\t// in\ntag_130:\n    /* \"#utility.yul\":7801:7842   */\ntag_129:\n    /* \"#utility.yul\":7869:7870   */\n  0x01\n    /* \"#utility.yul\":7862:7867   */\n  dup3\n    /* \"#utility.yul\":7858:7871   */\n  add\n    /* \"#utility.yul\":7851:7871   */\n  swap1\n  pop\n    /* \"#utility.yul\":7710:7877   */\n  swap2\n  swap1\n  pop\n  jump\t// out\n    /* \"src/MerkleClaimERC20.sol\":510:2983  contract MerkleClaimERC20 {... */\ntag_19:\n  mload(0x80)\n  codecopy(0x00, dataOffset(sub_0), dataSize(sub_0))\n  0x00\n  assignImmutable(\"0x50fd9bdcde6b34c0ec3f59642a2fdd0aa19d3c4402950929a5840857c06086a0\")\n  return(0x00, dataSize(sub_0))\nstop\n\nsub_0: assembly {\n        /* \"src/MerkleClaimERC20.sol\":510:2983  contract MerkleClaimERC20 {... */\n      mstore(0x40, 0x80)\n      callvalue\n      dup1\n      iszero\n      tag_1\n      jumpi\n      0x00\n      dup1\n      revert\n    tag_1:\n      pop\n      jumpi(tag_2, lt(calldatasize, 0x04))\n      shr(0xe0, calldataload(0x00))\n      dup1\n      0x89266f60\n      eq\n      tag_3\n      jumpi\n      dup1\n      0x98fabd3a\n      eq\n      tag_4\n      jumpi\n      dup1\n      0xa7537986\n      eq\n      tag_5\n      jumpi\n      dup1\n      0xae9a6808\n      eq\n      tag_6\n      jumpi\n      dup1\n      0xfabed412\n      eq\n      tag_7\n      jumpi\n    tag_2:\n      0x00\n      dup1\n      revert\n        /* \"src/MerkleClaimERC20.sol\":870:932  mapping(address => mapping(address => bool)) public hasClaimed */\n    tag_3:\n      tag_8\n      0x04\n      dup1\n      calldatasize\n      sub\n      dup2\n      add\n      swap1\n      tag_9\n      swap2\n      swap1\n      tag_10\n      jump\t// in\n    tag_9:\n      tag_11\n      jump\t// in\n    tag_8:\n      mload(0x40)\n      tag_12\n      swap2\n      swap1\n      tag_13\n      jump\t// in\n    tag_12:\n      mload(0x40)\n      dup1\n      swap2\n      sub\n      swap1\n      return\n        /* \"src/MerkleClaimERC20.sol\":685:758  address public immutable DAO = 0xb4c575308221CAA398e0DD2cDEB6B2f10d7b000A */\n    tag_4:\n      tag_14\n      tag_15\n      jump\t// in\n    tag_14:\n      mload(0x40)\n      tag_16\n      swap2\n      swap1\n      tag_17\n      jump\t// in\n    tag_16:\n      mload(0x40)\n      dup1\n      swap2\n      sub\n      swap1\n      return\n        /* \"src/MerkleClaimERC20.sol\":2815:2981  function protocolFallback(IERC20 token, uint256 amount) external {... */\n    tag_5:\n      tag_18\n      0x04\n      dup1\n      calldatasize\n      sub\n      dup2\n      add\n      swap1\n      tag_19\n      swap2\n      swap1\n      tag_20\n      jump\t// in\n    tag_19:\n      tag_21\n      jump\t// in\n    tag_18:\n      stop\n        /* \"src/MerkleClaimERC20.sol\":635:681  mapping(address => bytes32) public merkleRoots */\n    tag_6:\n      tag_22\n      0x04\n      dup1\n      calldatasize\n      sub\n      dup2\n      add\n      swap1\n      tag_23\n      swap2\n      swap1\n      tag_24\n      jump\t// in\n    tag_23:\n      tag_25\n      jump\t// in\n    tag_22:\n      mload(0x40)\n      tag_26\n      swap2\n      swap1\n      tag_27\n      jump\t// in\n    tag_26:\n      mload(0x40)\n      dup1\n      swap2\n      sub\n      swap1\n      return\n        /* \"src/MerkleClaimERC20.sol\":2183:2811  function claim(address token, address to, uint256 amount, bytes32[] calldata proof) external {... */\n    tag_7:\n      tag_28\n      0x04\n      dup1\n      calldatasize\n      sub\n      dup2\n      add\n      swap1\n      tag_29\n      swap2\n      swap1\n      tag_30\n      jump\t// in\n    tag_29:\n      tag_31\n      jump\t// in\n    tag_28:\n      stop\n        /* \"src/MerkleClaimERC20.sol\":870:932  mapping(address => mapping(address => bool)) public hasClaimed */\n    tag_11:\n      mstore(0x20, 0x01)\n      dup2\n      0x00\n      mstore\n      mstore(0x20, keccak256(0x00, 0x40))\n      dup1\n      0x00\n      mstore\n      keccak256(0x00, 0x40)\n      0x00\n      swap2\n      pop\n      swap2\n      pop\n      swap1\n      sload\n      swap1\n      0x0100\n      exp\n      swap1\n      div\n      0xff\n      and\n      dup2\n      jump\t// out\n        /* \"src/MerkleClaimERC20.sol\":685:758  address public immutable DAO = 0xb4c575308221CAA398e0DD2cDEB6B2f10d7b000A */\n    tag_15:\n      immutable(\"0x50fd9bdcde6b34c0ec3f59642a2fdd0aa19d3c4402950929a5840857c06086a0\")\n      dup2\n      jump\t// out\n        /* \"src/MerkleClaimERC20.sol\":2815:2981  function protocolFallback(IERC20 token, uint256 amount) external {... */\n    tag_21:\n        /* \"src/MerkleClaimERC20.sol\":2908:2911  DAO */\n      immutable(\"0x50fd9bdcde6b34c0ec3f59642a2fdd0aa19d3c4402950929a5840857c06086a0\")\n        /* \"src/MerkleClaimERC20.sol\":2894:2911  msg.sender == DAO */\n      0xffffffffffffffffffffffffffffffffffffffff\n      and\n        /* \"src/MerkleClaimERC20.sol\":2894:2904  msg.sender */\n      caller\n        /* \"src/MerkleClaimERC20.sol\":2894:2911  msg.sender == DAO */\n      0xffffffffffffffffffffffffffffffffffffffff\n      and\n      eq\n        /* \"src/MerkleClaimERC20.sol\":2886:2912  require(msg.sender == DAO) */\n      tag_33\n      jumpi\n      0x00\n      dup1\n      revert\n    tag_33:\n        /* \"src/MerkleClaimERC20.sol\":2949:2954  token */\n      dup2\n        /* \"src/MerkleClaimERC20.sol\":2949:2963  token.transfer */\n      0xffffffffffffffffffffffffffffffffffffffff\n      and\n      0xa9059cbb\n        /* \"src/MerkleClaimERC20.sol\":2964:2967  DAO */\n      immutable(\"0x50fd9bdcde6b34c0ec3f59642a2fdd0aa19d3c4402950929a5840857c06086a0\")\n        /* \"src/MerkleClaimERC20.sol\":2969:2975  amount */\n      dup4\n        /* \"src/MerkleClaimERC20.sol\":2949:2976  token.transfer(DAO, amount) */\n      mload(0x40)\n      dup4\n      0xffffffff\n      and\n      0xe0\n      shl\n      dup2\n      mstore\n      0x04\n      add\n      tag_34\n      swap3\n      swap2\n      swap1\n      tag_35\n      jump\t// in\n    tag_34:\n      0x20\n      mload(0x40)\n      dup1\n      dup4\n      sub\n      dup2\n      0x00\n      dup8\n      gas\n      call\n      iszero\n      dup1\n      iszero\n      tag_37\n      jumpi\n      returndatasize\n      0x00\n      dup1\n      returndatacopy\n      revert(0x00, returndatasize)\n    tag_37:\n      pop\n      pop\n      pop\n      pop\n      mload(0x40)\n      returndatasize\n      not(0x1f)\n      0x1f\n      dup3\n      add\n      and\n      dup3\n      add\n      dup1\n      0x40\n      mstore\n      pop\n      dup2\n      add\n      swap1\n      tag_38\n      swap2\n      swap1\n      tag_39\n      jump\t// in\n    tag_38:\n      pop\n        /* \"src/MerkleClaimERC20.sol\":2815:2981  function protocolFallback(IERC20 token, uint256 amount) external {... */\n      pop\n      pop\n      jump\t// out\n        /* \"src/MerkleClaimERC20.sol\":635:681  mapping(address => bytes32) public merkleRoots */\n    tag_25:\n      mstore(0x20, 0x00)\n      dup1\n      0x00\n      mstore\n      keccak256(0x00, 0x40)\n      0x00\n      swap2\n      pop\n      swap1\n      pop\n      sload\n      dup2\n      jump\t// out\n        /* \"src/MerkleClaimERC20.sol\":2183:2811  function claim(address token, address to, uint256 amount, bytes32[] calldata proof) external {... */\n    tag_31:\n        /* \"src/MerkleClaimERC20.sol\":2337:2347  hasClaimed */\n      0x01\n        /* \"src/MerkleClaimERC20.sol\":2337:2354  hasClaimed[token] */\n      0x00\n        /* \"src/MerkleClaimERC20.sol\":2348:2353  token */\n      dup7\n        /* \"src/MerkleClaimERC20.sol\":2337:2354  hasClaimed[token] */\n      0xffffffffffffffffffffffffffffffffffffffff\n      and\n      0xffffffffffffffffffffffffffffffffffffffff\n      and\n      dup2\n      mstore\n      0x20\n      add\n      swap1\n      dup2\n      mstore\n      0x20\n      add\n      0x00\n      keccak256\n        /* \"src/MerkleClaimERC20.sol\":2337:2358  hasClaimed[token][to] */\n      0x00\n        /* \"src/MerkleClaimERC20.sol\":2355:2357  to */\n      dup6\n        /* \"src/MerkleClaimERC20.sol\":2337:2358  hasClaimed[token][to] */\n      0xffffffffffffffffffffffffffffffffffffffff\n      and\n      0xffffffffffffffffffffffffffffffffffffffff\n      and\n      dup2\n      mstore\n      0x20\n      add\n      swap1\n      dup2\n      mstore\n      0x20\n      add\n      0x00\n      keccak256\n      0x00\n      swap1\n      sload\n      swap1\n      0x0100\n      exp\n      swap1\n      div\n      0xff\n      and\n        /* \"src/MerkleClaimERC20.sol\":2333:2383  if (hasClaimed[token][to]) revert AlreadyClaimed() */\n      iszero\n      tag_41\n      jumpi\n        /* \"src/MerkleClaimERC20.sol\":2367:2383  AlreadyClaimed() */\n      mload(0x40)\n      0x646cf55800000000000000000000000000000000000000000000000000000000\n      dup2\n      mstore\n      0x04\n      add\n      mload(0x40)\n      dup1\n      swap2\n      sub\n      swap1\n      revert\n        /* \"src/MerkleClaimERC20.sol\":2333:2383  if (hasClaimed[token][to]) revert AlreadyClaimed() */\n    tag_41:\n        /* \"src/MerkleClaimERC20.sol\":2443:2455  bytes32 leaf */\n      0x00\n        /* \"src/MerkleClaimERC20.sol\":2485:2487  to */\n      dup5\n        /* \"src/MerkleClaimERC20.sol\":2489:2495  amount */\n      dup5\n        /* \"src/MerkleClaimERC20.sol\":2468:2496  abi.encodePacked(to, amount) */\n      add(0x20, mload(0x40))\n      tag_42\n      swap3\n      swap2\n      swap1\n      tag_43\n      jump\t// in\n    tag_42:\n      mload(0x40)\n      0x20\n      dup2\n      dup4\n      sub\n      sub\n      dup2\n      mstore\n      swap1\n      0x40\n      mstore\n        /* \"src/MerkleClaimERC20.sol\":2458:2497  keccak256(abi.encodePacked(to, amount)) */\n      dup1\n      mload\n      swap1\n      0x20\n      add\n      keccak256\n        /* \"src/MerkleClaimERC20.sol\":2443:2497  bytes32 leaf = keccak256(abi.encodePacked(to, amount)) */\n      swap1\n      pop\n        /* \"src/MerkleClaimERC20.sol\":2503:2519  bool isValidLeaf */\n      0x00\n        /* \"src/MerkleClaimERC20.sol\":2522:2573  MerkleProof.verify(proof, merkleRoots[token], leaf) */\n      tag_44\n        /* \"src/MerkleClaimERC20.sol\":2541:2546  proof */\n      dup5\n      dup5\n        /* \"src/MerkleClaimERC20.sol\":2522:2573  MerkleProof.verify(proof, merkleRoots[token], leaf) */\n      dup1\n      dup1\n      0x20\n      mul\n      0x20\n      add\n      mload(0x40)\n      swap1\n      dup2\n      add\n      0x40\n      mstore\n      dup1\n      swap4\n      swap3\n      swap2\n      swap1\n      dup2\n      dup2\n      mstore\n      0x20\n      add\n      dup4\n      dup4\n      0x20\n      mul\n      dup1\n      dup3\n      dup5\n      calldatacopy\n      0x00\n      dup2\n      dup5\n      add\n      mstore\n      not(0x1f)\n      0x1f\n      dup3\n      add\n      and\n      swap1\n      pop\n      dup1\n      dup4\n      add\n      swap3\n      pop\n      pop\n      pop\n      pop\n      pop\n      pop\n      pop\n        /* \"src/MerkleClaimERC20.sol\":2548:2559  merkleRoots */\n      0x00\n        /* \"src/MerkleClaimERC20.sol\":2548:2566  merkleRoots[token] */\n      dup1\n        /* \"src/MerkleClaimERC20.sol\":2560:2565  token */\n      dup11\n        /* \"src/MerkleClaimERC20.sol\":2548:2566  merkleRoots[token] */\n      0xffffffffffffffffffffffffffffffffffffffff\n      and\n      0xffffffffffffffffffffffffffffffffffffffff\n      and\n      dup2\n      mstore\n      0x20\n      add\n      swap1\n      dup2\n      mstore\n      0x20\n      add\n      0x00\n      keccak256\n      sload\n        /* \"src/MerkleClaimERC20.sol\":2568:2572  leaf */\n      dup5\n        /* \"src/MerkleClaimERC20.sol\":2522:2540  MerkleProof.verify */\n      tag_45\n        /* \"src/MerkleClaimERC20.sol\":2522:2573  MerkleProof.verify(proof, merkleRoots[token], leaf) */\n      jump\t// in\n    tag_44:\n        /* \"src/MerkleClaimERC20.sol\":2503:2573  bool isValidLeaf = MerkleProof.verify(proof, merkleRoots[token], leaf) */\n      swap1\n      pop\n        /* \"src/MerkleClaimERC20.sol\":2584:2595  isValidLeaf */\n      dup1\n        /* \"src/MerkleClaimERC20.sol\":2579:2617  if (!isValidLeaf) revert NotInMerkle() */\n      tag_46\n      jumpi\n        /* \"src/MerkleClaimERC20.sol\":2604:2617  NotInMerkle() */\n      mload(0x40)\n      0x8a585be200000000000000000000000000000000000000000000000000000000\n      dup2\n      mstore\n      0x04\n      add\n      mload(0x40)\n      dup1\n      swap2\n      sub\n      swap1\n      revert\n        /* \"src/MerkleClaimERC20.sol\":2579:2617  if (!isValidLeaf) revert NotInMerkle() */\n    tag_46:\n        /* \"src/MerkleClaimERC20.sol\":2678:2682  true */\n      0x01\n        /* \"src/MerkleClaimERC20.sol\":2654:2664  hasClaimed */\n      dup1\n        /* \"src/MerkleClaimERC20.sol\":2654:2671  hasClaimed[token] */\n      0x00\n        /* \"src/MerkleClaimERC20.sol\":2665:2670  token */\n      dup10\n        /* \"src/MerkleClaimERC20.sol\":2654:2671  hasClaimed[token] */\n      0xffffffffffffffffffffffffffffffffffffffff\n      and\n      0xffffffffffffffffffffffffffffffffffffffff\n      and\n      dup2\n      mstore\n      0x20\n      add\n      swap1\n      dup2\n      mstore\n      0x20\n      add\n      0x00\n      keccak256\n        /* \"src/MerkleClaimERC20.sol\":2654:2675  hasClaimed[token][to] */\n      0x00\n        /* \"src/MerkleClaimERC20.sol\":2672:2674  to */\n      dup9\n        /* \"src/MerkleClaimERC20.sol\":2654:2675  hasClaimed[token][to] */\n      0xffffffffffffffffffffffffffffffffffffffff\n      and\n      0xffffffffffffffffffffffffffffffffffffffff\n      and\n      dup2\n      mstore\n      0x20\n      add\n      swap1\n      dup2\n      mstore\n      0x20\n      add\n      0x00\n      keccak256\n      0x00\n        /* \"src/MerkleClaimERC20.sol\":2654:2682  hasClaimed[token][to] = true */\n      0x0100\n      exp\n      dup2\n      sload\n      dup2\n      0xff\n      mul\n      not\n      and\n      swap1\n      dup4\n      iszero\n      iszero\n      mul\n      or\n      swap1\n      sstore\n      pop\n        /* \"src/MerkleClaimERC20.sol\":2726:2731  token */\n      dup7\n        /* \"src/MerkleClaimERC20.sol\":2719:2741  IERC20(token).transfer */\n      0xffffffffffffffffffffffffffffffffffffffff\n      and\n      0xa9059cbb\n        /* \"src/MerkleClaimERC20.sol\":2742:2744  to */\n      dup8\n        /* \"src/MerkleClaimERC20.sol\":2746:2752  amount */\n      dup8\n        /* \"src/MerkleClaimERC20.sol\":2719:2753  IERC20(token).transfer(to, amount) */\n      mload(0x40)\n      dup4\n      0xffffffff\n      and\n      0xe0\n      shl\n      dup2\n      mstore\n      0x04\n      add\n      tag_47\n      swap3\n      swap2\n      swap1\n      tag_35\n      jump\t// in\n    tag_47:\n      0x20\n      mload(0x40)\n      dup1\n      dup4\n      sub\n      dup2\n      0x00\n      dup8\n      gas\n      call\n      iszero\n      dup1\n      iszero\n      tag_49\n      jumpi\n      returndatasize\n      0x00\n      dup1\n      returndatacopy\n      revert(0x00, returndatasize)\n    tag_49:\n      pop\n      pop\n      pop\n      pop\n      mload(0x40)\n      returndatasize\n      not(0x1f)\n      0x1f\n      dup3\n      add\n      and\n      dup3\n      add\n      dup1\n      0x40\n      mstore\n      pop\n      dup2\n      add\n      swap1\n      tag_50\n      swap2\n      swap1\n      tag_39\n      jump\t// in\n    tag_50:\n      pop\n        /* \"src/MerkleClaimERC20.sol\":2795:2797  to */\n      dup6\n        /* \"src/MerkleClaimERC20.sol\":2789:2806  Claim(to, amount) */\n      0xffffffffffffffffffffffffffffffffffffffff\n      and\n      0x47cee97cb7acd717b3c0aa1435d004cd5b3c8c57d70dbceb4e4458bbd60e39d4\n        /* \"src/MerkleClaimERC20.sol\":2799:2805  amount */\n      dup7\n        /* \"src/MerkleClaimERC20.sol\":2789:2806  Claim(to, amount) */\n      mload(0x40)\n      tag_51\n      swap2\n      swap1\n      tag_52\n      jump\t// in\n    tag_51:\n      mload(0x40)\n      dup1\n      swap2\n      sub\n      swap1\n      log2\n        /* \"src/MerkleClaimERC20.sol\":2276:2811  {... */\n      pop\n      pop\n        /* \"src/MerkleClaimERC20.sol\":2183:2811  function claim(address token, address to, uint256 amount, bytes32[] calldata proof) external {... */\n      pop\n      pop\n      pop\n      pop\n      pop\n      jump\t// out\n        /* \"@openzeppelin/contracts/utils/cryptography/MerkleProof.sol\":1156:1340  function verify(... */\n    tag_45:\n        /* \"@openzeppelin/contracts/utils/cryptography/MerkleProof.sol\":1277:1281  bool */\n      0x00\n        /* \"@openzeppelin/contracts/utils/cryptography/MerkleProof.sol\":1329:1333  root */\n      dup3\n        /* \"@openzeppelin/contracts/utils/cryptography/MerkleProof.sol\":1300:1325  processProof(proof, leaf) */\n      tag_54\n        /* \"@openzeppelin/contracts/utils/cryptography/MerkleProof.sol\":1313:1318  proof */\n      dup6\n        /* \"@openzeppelin/contracts/utils/cryptography/MerkleProof.sol\":1320:1324  leaf */\n      dup5\n        /* \"@openzeppelin/contracts/utils/cryptography/MerkleProof.sol\":1300:1312  processProof */\n      tag_55\n        /* \"@openzeppelin/contracts/utils/cryptography/MerkleProof.sol\":1300:1325  processProof(proof, leaf) */\n      jump\t// in\n    tag_54:\n        /* \"@openzeppelin/contracts/utils/cryptography/MerkleProof.sol\":1300:1333  processProof(proof, leaf) == root */\n      eq\n        /* \"@openzeppelin/contracts/utils/cryptography/MerkleProof.sol\":1293:1333  return processProof(proof, leaf) == root */\n      swap1\n      pop\n        /* \"@openzeppelin/contracts/utils/cryptography/MerkleProof.sol\":1156:1340  function verify(... */\n      swap4\n      swap3\n      pop\n      pop\n      pop\n      jump\t// out\n        /* \"@openzeppelin/contracts/utils/cryptography/MerkleProof.sol\":1994:2284  function processProof(bytes32[] memory proof, bytes32 leaf) internal pure returns (bytes32) {... */\n    tag_55:\n        /* \"@openzeppelin/contracts/utils/cryptography/MerkleProof.sol\":2077:2084  bytes32 */\n      0x00\n        /* \"@openzeppelin/contracts/utils/cryptography/MerkleProof.sol\":2096:2116  bytes32 computedHash */\n      dup1\n        /* \"@openzeppelin/contracts/utils/cryptography/MerkleProof.sol\":2119:2123  leaf */\n      dup3\n        /* \"@openzeppelin/contracts/utils/cryptography/MerkleProof.sol\":2096:2123  bytes32 computedHash = leaf */\n      swap1\n      pop\n        /* \"@openzeppelin/contracts/utils/cryptography/MerkleProof.sol\":2138:2147  uint256 i */\n      0x00\n        /* \"@openzeppelin/contracts/utils/cryptography/MerkleProof.sol\":2133:2249  for (uint256 i = 0; i < proof.length; i++) {... */\n    tag_57:\n        /* \"@openzeppelin/contracts/utils/cryptography/MerkleProof.sol\":2157:2162  proof */\n      dup5\n        /* \"@openzeppelin/contracts/utils/cryptography/MerkleProof.sol\":2157:2169  proof.length */\n      mload\n        /* \"@openzeppelin/contracts/utils/cryptography/MerkleProof.sol\":2153:2154  i */\n      dup2\n        /* \"@openzeppelin/contracts/utils/cryptography/MerkleProof.sol\":2153:2169  i < proof.length */\n      lt\n        /* \"@openzeppelin/contracts/utils/cryptography/MerkleProof.sol\":2133:2249  for (uint256 i = 0; i < proof.length; i++) {... */\n      iszero\n      tag_58\n      jumpi\n        /* \"@openzeppelin/contracts/utils/cryptography/MerkleProof.sol\":2205:2238  _hashPair(computedHash, proof[i]) */\n      tag_60\n        /* \"@openzeppelin/contracts/utils/cryptography/MerkleProof.sol\":2215:2227  computedHash */\n      dup3\n        /* \"@openzeppelin/contracts/utils/cryptography/MerkleProof.sol\":2229:2234  proof */\n      dup7\n        /* \"@openzeppelin/contracts/utils/cryptography/MerkleProof.sol\":2235:2236  i */\n      dup4\n        /* \"@openzeppelin/contracts/utils/cryptography/MerkleProof.sol\":2229:2237  proof[i] */\n      dup2\n      mload\n      dup2\n      lt\n      tag_61\n      jumpi\n      tag_62\n      tag_63\n      jump\t// in\n    tag_62:\n    tag_61:\n      0x20\n      mul\n      0x20\n      add\n      add\n      mload\n        /* \"@openzeppelin/contracts/utils/cryptography/MerkleProof.sol\":2205:2214  _hashPair */\n      tag_64\n        /* \"@openzeppelin/contracts/utils/cryptography/MerkleProof.sol\":2205:2238  _hashPair(computedHash, proof[i]) */\n      jump\t// in\n    tag_60:\n        /* \"@openzeppelin/contracts/utils/cryptography/MerkleProof.sol\":2190:2238  computedHash = _hashPair(computedHash, proof[i]) */\n      swap2\n      pop\n        /* \"@openzeppelin/contracts/utils/cryptography/MerkleProof.sol\":2171:2174  i++ */\n      dup1\n      dup1\n      tag_65\n      swap1\n      tag_66\n      jump\t// in\n    tag_65:\n      swap2\n      pop\n      pop\n        /* \"@openzeppelin/contracts/utils/cryptography/MerkleProof.sol\":2133:2249  for (uint256 i = 0; i < proof.length; i++) {... */\n      jump(tag_57)\n    tag_58:\n      pop\n        /* \"@openzeppelin/contracts/utils/cryptography/MerkleProof.sol\":2265:2277  computedHash */\n      dup1\n        /* \"@openzeppelin/contracts/utils/cryptography/MerkleProof.sol\":2258:2277  return computedHash */\n      swap2\n      pop\n      pop\n        /* \"@openzeppelin/contracts/utils/cryptography/MerkleProof.sol\":1994:2284  function processProof(bytes32[] memory proof, bytes32 leaf) internal pure returns (bytes32) {... */\n      swap3\n      swap2\n      pop\n      pop\n      jump\t// out\n        /* \"@openzeppelin/contracts/utils/cryptography/MerkleProof.sol\":8879:9026  function _hashPair(bytes32 a, bytes32 b) private pure returns (bytes32) {... */\n    tag_64:\n        /* \"@openzeppelin/contracts/utils/cryptography/MerkleProof.sol\":8942:8949  bytes32 */\n      0x00\n        /* \"@openzeppelin/contracts/utils/cryptography/MerkleProof.sol\":8972:8973  b */\n      dup2\n        /* \"@openzeppelin/contracts/utils/cryptography/MerkleProof.sol\":8968:8969  a */\n      dup4\n        /* \"@openzeppelin/contracts/utils/cryptography/MerkleProof.sol\":8968:8973  a < b */\n      lt\n        /* \"@openzeppelin/contracts/utils/cryptography/MerkleProof.sol\":8968:9019  a < b ? _efficientHash(a, b) : _efficientHash(b, a) */\n      tag_68\n      jumpi\n        /* \"@openzeppelin/contracts/utils/cryptography/MerkleProof.sol\":8999:9019  _efficientHash(b, a) */\n      tag_69\n        /* \"@openzeppelin/contracts/utils/cryptography/MerkleProof.sol\":9014:9015  b */\n      dup3\n        /* \"@openzeppelin/contracts/utils/cryptography/MerkleProof.sol\":9017:9018  a */\n      dup5\n        /* \"@openzeppelin/contracts/utils/cryptography/MerkleProof.sol\":8999:9013  _efficientHash */\n      tag_70\n        /* \"@openzeppelin/contracts/utils/cryptography/MerkleProof.sol\":8999:9019  _efficientHash(b, a) */\n      jump\t// in\n    tag_69:\n        /* \"@openzeppelin/contracts/utils/cryptography/MerkleProof.sol\":8968:9019  a < b ? _efficientHash(a, b) : _efficientHash(b, a) */\n      jump(tag_71)\n    tag_68:\n        /* \"@openzeppelin/contracts/utils/cryptography/MerkleProof.sol\":8976:8996  _efficientHash(a, b) */\n      tag_72\n        /* \"@openzeppelin/contracts/utils/cryptography/MerkleProof.sol\":8991:8992  a */\n      dup4\n        /* \"@openzeppelin/contracts/utils/cryptography/MerkleProof.sol\":8994:8995  b */\n      dup4\n        /* \"@openzeppelin/contracts/utils/cryptography/MerkleProof.sol\":8976:8990  _efficientHash */\n      tag_70\n        /* \"@openzeppelin/contracts/utils/cryptography/MerkleProof.sol\":8976:8996  _efficientHash(a, b) */\n      jump\t// in\n    tag_72:\n        /* \"@openzeppelin/contracts/utils/cryptography/MerkleProof.sol\":8968:9019  a < b ? _efficientHash(a, b) : _efficientHash(b, a) */\n    tag_71:\n        /* \"@openzeppelin/contracts/utils/cryptography/MerkleProof.sol\":8961:9019  return a < b ? _efficientHash(a, b) : _efficientHash(b, a) */\n      swap1\n      pop\n        /* \"@openzeppelin/contracts/utils/cryptography/MerkleProof.sol\":8879:9026  function _hashPair(bytes32 a, bytes32 b) private pure returns (bytes32) {... */\n      swap3\n      swap2\n      pop\n      pop\n      jump\t// out\n        /* \"@openzeppelin/contracts/utils/cryptography/MerkleProof.sol\":9032:9293  function _efficientHash(bytes32 a, bytes32 b) private pure returns (bytes32 value) {... */\n    tag_70:\n        /* \"@openzeppelin/contracts/utils/cryptography/MerkleProof.sol\":9100:9113  bytes32 value */\n      0x00\n        /* \"@openzeppelin/contracts/utils/cryptography/MerkleProof.sol\":9204:9205  a */\n      dup3\n        /* \"@openzeppelin/contracts/utils/cryptography/MerkleProof.sol\":9198:9202  0x00 */\n      0x00\n        /* \"@openzeppelin/contracts/utils/cryptography/MerkleProof.sol\":9191:9206  mstore(0x00, a) */\n      mstore\n        /* \"@openzeppelin/contracts/utils/cryptography/MerkleProof.sol\":9232:9233  b */\n      dup2\n        /* \"@openzeppelin/contracts/utils/cryptography/MerkleProof.sol\":9226:9230  0x20 */\n      0x20\n        /* \"@openzeppelin/contracts/utils/cryptography/MerkleProof.sol\":9219:9234  mstore(0x20, b) */\n      mstore\n        /* \"@openzeppelin/contracts/utils/cryptography/MerkleProof.sol\":9272:9276  0x40 */\n      0x40\n        /* \"@openzeppelin/contracts/utils/cryptography/MerkleProof.sol\":9266:9270  0x00 */\n      0x00\n        /* \"@openzeppelin/contracts/utils/cryptography/MerkleProof.sol\":9256:9277  keccak256(0x00, 0x40) */\n      keccak256\n        /* \"@openzeppelin/contracts/utils/cryptography/MerkleProof.sol\":9247:9277  value := keccak256(0x00, 0x40) */\n      swap1\n      pop\n        /* \"@openzeppelin/contracts/utils/cryptography/MerkleProof.sol\":9032:9293  function _efficientHash(bytes32 a, bytes32 b) private pure returns (bytes32 value) {... */\n      swap3\n      swap2\n      pop\n      pop\n      jump\t// out\n        /* \"#utility.yul\":88:205   */\n    tag_75:\n        /* \"#utility.yul\":197:198   */\n      0x00\n        /* \"#utility.yul\":194:195   */\n      dup1\n        /* \"#utility.yul\":187:199   */\n      revert\n        /* \"#utility.yul\":211:328   */\n    tag_76:\n        /* \"#utility.yul\":320:321   */\n      0x00\n        /* \"#utility.yul\":317:318   */\n      dup1\n        /* \"#utility.yul\":310:322   */\n      revert\n        /* \"#utility.yul\":334:460   */\n    tag_77:\n        /* \"#utility.yul\":371:378   */\n      0x00\n        /* \"#utility.yul\":411:453   */\n      0xffffffffffffffffffffffffffffffffffffffff\n        /* \"#utility.yul\":404:409   */\n      dup3\n        /* \"#utility.yul\":400:454   */\n      and\n        /* \"#utility.yul\":389:454   */\n      swap1\n      pop\n        /* \"#utility.yul\":334:460   */\n      swap2\n      swap1\n      pop\n      jump\t// out\n        /* \"#utility.yul\":466:562   */\n    tag_78:\n        /* \"#utility.yul\":503:510   */\n      0x00\n        /* \"#utility.yul\":532:556   */\n      tag_112\n        /* \"#utility.yul\":550:555   */\n      dup3\n        /* \"#utility.yul\":532:556   */\n      tag_77\n      jump\t// in\n    tag_112:\n        /* \"#utility.yul\":521:556   */\n      swap1\n      pop\n        /* \"#utility.yul\":466:562   */\n      swap2\n      swap1\n      pop\n      jump\t// out\n        /* \"#utility.yul\":568:690   */\n    tag_79:\n        /* \"#utility.yul\":641:665   */\n      tag_114\n        /* \"#utility.yul\":659:664   */\n      dup2\n        /* \"#utility.yul\":641:665   */\n      tag_78\n      jump\t// in\n    tag_114:\n        /* \"#utility.yul\":634:639   */\n      dup2\n        /* \"#utility.yul\":631:666   */\n      eq\n        /* \"#utility.yul\":621:684   */\n      tag_115\n      jumpi\n        /* \"#utility.yul\":680:681   */\n      0x00\n        /* \"#utility.yul\":677:678   */\n      dup1\n        /* \"#utility.yul\":670:682   */\n      revert\n        /* \"#utility.yul\":621:684   */\n    tag_115:\n        /* \"#utility.yul\":568:690   */\n      pop\n      jump\t// out\n        /* \"#utility.yul\":696:835   */\n    tag_80:\n        /* \"#utility.yul\":742:747   */\n      0x00\n        /* \"#utility.yul\":780:786   */\n      dup2\n        /* \"#utility.yul\":767:787   */\n      calldataload\n        /* \"#utility.yul\":758:787   */\n      swap1\n      pop\n        /* \"#utility.yul\":796:829   */\n      tag_117\n        /* \"#utility.yul\":823:828   */\n      dup2\n        /* \"#utility.yul\":796:829   */\n      tag_79\n      jump\t// in\n    tag_117:\n        /* \"#utility.yul\":696:835   */\n      swap3\n      swap2\n      pop\n      pop\n      jump\t// out\n        /* \"#utility.yul\":841:1315   */\n    tag_10:\n        /* \"#utility.yul\":909:915   */\n      0x00\n        /* \"#utility.yul\":917:923   */\n      dup1\n        /* \"#utility.yul\":966:968   */\n      0x40\n        /* \"#utility.yul\":954:963   */\n      dup4\n        /* \"#utility.yul\":945:952   */\n      dup6\n        /* \"#utility.yul\":941:964   */\n      sub\n        /* \"#utility.yul\":937:969   */\n      slt\n        /* \"#utility.yul\":934:1053   */\n      iszero\n      tag_119\n      jumpi\n        /* \"#utility.yul\":972:1051   */\n      tag_120\n      tag_75\n      jump\t// in\n    tag_120:\n        /* \"#utility.yul\":934:1053   */\n    tag_119:\n        /* \"#utility.yul\":1092:1093   */\n      0x00\n        /* \"#utility.yul\":1117:1170   */\n      tag_121\n        /* \"#utility.yul\":1162:1169   */\n      dup6\n        /* \"#utility.yul\":1153:1159   */\n      dup3\n        /* \"#utility.yul\":1142:1151   */\n      dup7\n        /* \"#utility.yul\":1138:1160   */\n      add\n        /* \"#utility.yul\":1117:1170   */\n      tag_80\n      jump\t// in\n    tag_121:\n        /* \"#utility.yul\":1107:1170   */\n      swap3\n      pop\n        /* \"#utility.yul\":1063:1180   */\n      pop\n        /* \"#utility.yul\":1219:1221   */\n      0x20\n        /* \"#utility.yul\":1245:1298   */\n      tag_122\n        /* \"#utility.yul\":1290:1297   */\n      dup6\n        /* \"#utility.yul\":1281:1287   */\n      dup3\n        /* \"#utility.yul\":1270:1279   */\n      dup7\n        /* \"#utility.yul\":1266:1288   */\n      add\n        /* \"#utility.yul\":1245:1298   */\n      tag_80\n      jump\t// in\n    tag_122:\n        /* \"#utility.yul\":1235:1298   */\n      swap2\n      pop\n        /* \"#utility.yul\":1190:1308   */\n      pop\n        /* \"#utility.yul\":841:1315   */\n      swap3\n      pop\n      swap3\n      swap1\n      pop\n      jump\t// out\n        /* \"#utility.yul\":1321:1411   */\n    tag_81:\n        /* \"#utility.yul\":1355:1362   */\n      0x00\n        /* \"#utility.yul\":1398:1403   */\n      dup2\n        /* \"#utility.yul\":1391:1404   */\n      iszero\n        /* \"#utility.yul\":1384:1405   */\n      iszero\n        /* \"#utility.yul\":1373:1405   */\n      swap1\n      pop\n        /* \"#utility.yul\":1321:1411   */\n      swap2\n      swap1\n      pop\n      jump\t// out\n        /* \"#utility.yul\":1417:1526   */\n    tag_82:\n        /* \"#utility.yul\":1498:1519   */\n      tag_125\n        /* \"#utility.yul\":1513:1518   */\n      dup2\n        /* \"#utility.yul\":1498:1519   */\n      tag_81\n      jump\t// in\n    tag_125:\n        /* \"#utility.yul\":1493:1496   */\n      dup3\n        /* \"#utility.yul\":1486:1520   */\n      mstore\n        /* \"#utility.yul\":1417:1526   */\n      pop\n      pop\n      jump\t// out\n        /* \"#utility.yul\":1532:1742   */\n    tag_13:\n        /* \"#utility.yul\":1619:1623   */\n      0x00\n        /* \"#utility.yul\":1657:1659   */\n      0x20\n        /* \"#utility.yul\":1646:1655   */\n      dup3\n        /* \"#utility.yul\":1642:1660   */\n      add\n        /* \"#utility.yul\":1634:1660   */\n      swap1\n      pop\n        /* \"#utility.yul\":1670:1735   */\n      tag_127\n        /* \"#utility.yul\":1732:1733   */\n      0x00\n        /* \"#utility.yul\":1721:1730   */\n      dup4\n        /* \"#utility.yul\":1717:1734   */\n      add\n        /* \"#utility.yul\":1708:1714   */\n      dup5\n        /* \"#utility.yul\":1670:1735   */\n      tag_82\n      jump\t// in\n    tag_127:\n        /* \"#utility.yul\":1532:1742   */\n      swap3\n      swap2\n      pop\n      pop\n      jump\t// out\n        /* \"#utility.yul\":1748:1866   */\n    tag_83:\n        /* \"#utility.yul\":1835:1859   */\n      tag_129\n        /* \"#utility.yul\":1853:1858   */\n      dup2\n        /* \"#utility.yul\":1835:1859   */\n      tag_78\n      jump\t// in\n    tag_129:\n        /* \"#utility.yul\":1830:1833   */\n      dup3\n        /* \"#utility.yul\":1823:1860   */\n      mstore\n        /* \"#utility.yul\":1748:1866   */\n      pop\n      pop\n      jump\t// out\n        /* \"#utility.yul\":1872:2094   */\n    tag_17:\n        /* \"#utility.yul\":1965:1969   */\n      0x00\n        /* \"#utility.yul\":2003:2005   */\n      0x20\n        /* \"#utility.yul\":1992:2001   */\n      dup3\n        /* \"#utility.yul\":1988:2006   */\n      add\n        /* \"#utility.yul\":1980:2006   */\n      swap1\n      pop\n        /* \"#utility.yul\":2016:2087   */\n      tag_131\n        /* \"#utility.yul\":2084:2085   */\n      0x00\n        /* \"#utility.yul\":2073:2082   */\n      dup4\n        /* \"#utility.yul\":2069:2086   */\n      add\n        /* \"#utility.yul\":2060:2066   */\n      dup5\n        /* \"#utility.yul\":2016:2087   */\n      tag_83\n      jump\t// in\n    tag_131:\n        /* \"#utility.yul\":1872:2094   */\n      swap3\n      swap2\n      pop\n      pop\n      jump\t// out\n        /* \"#utility.yul\":2100:2209   */\n    tag_84:\n        /* \"#utility.yul\":2150:2157   */\n      0x00\n        /* \"#utility.yul\":2179:2203   */\n      tag_133\n        /* \"#utility.yul\":2197:2202   */\n      dup3\n        /* \"#utility.yul\":2179:2203   */\n      tag_78\n      jump\t// in\n    tag_133:\n        /* \"#utility.yul\":2168:2203   */\n      swap1\n      pop\n        /* \"#utility.yul\":2100:2209   */\n      swap2\n      swap1\n      pop\n      jump\t// out\n        /* \"#utility.yul\":2215:2363   */\n    tag_85:\n        /* \"#utility.yul\":2301:2338   */\n      tag_135\n        /* \"#utility.yul\":2332:2337   */\n      dup2\n        /* \"#utility.yul\":2301:2338   */\n      tag_84\n      jump\t// in\n    tag_135:\n        /* \"#utility.yul\":2294:2299   */\n      dup2\n        /* \"#utility.yul\":2291:2339   */\n      eq\n        /* \"#utility.yul\":2281:2357   */\n      tag_136\n      jumpi\n        /* \"#utility.yul\":2353:2354   */\n      0x00\n        /* \"#utility.yul\":2350:2351   */\n      dup1\n        /* \"#utility.yul\":2343:2355   */\n      revert\n        /* \"#utility.yul\":2281:2357   */\n    tag_136:\n        /* \"#utility.yul\":2215:2363   */\n      pop\n      jump\t// out\n        /* \"#utility.yul\":2369:2534   */\n    tag_86:\n        /* \"#utility.yul\":2428:2433   */\n      0x00\n        /* \"#utility.yul\":2466:2472   */\n      dup2\n        /* \"#utility.yul\":2453:2473   */\n      calldataload\n        /* \"#utility.yul\":2444:2473   */\n      swap1\n      pop\n        /* \"#utility.yul\":2482:2528   */\n      tag_138\n        /* \"#utility.yul\":2522:2527   */\n      dup2\n        /* \"#utility.yul\":2482:2528   */\n      tag_85\n      jump\t// in\n    tag_138:\n        /* \"#utility.yul\":2369:2534   */\n      swap3\n      swap2\n      pop\n      pop\n      jump\t// out\n        /* \"#utility.yul\":2540:2617   */\n    tag_87:\n        /* \"#utility.yul\":2577:2584   */\n      0x00\n        /* \"#utility.yul\":2606:2611   */\n      dup2\n        /* \"#utility.yul\":2595:2611   */\n      swap1\n      pop\n        /* \"#utility.yul\":2540:2617   */\n      swap2\n      swap1\n      pop\n      jump\t// out\n        /* \"#utility.yul\":2623:2745   */\n    tag_88:\n        /* \"#utility.yul\":2696:2720   */\n      tag_141\n        /* \"#utility.yul\":2714:2719   */\n      dup2\n        /* \"#utility.yul\":2696:2720   */\n      tag_87\n      jump\t// in\n    tag_141:\n        /* \"#utility.yul\":2689:2694   */\n      dup2\n        /* \"#utility.yul\":2686:2721   */\n      eq\n        /* \"#utility.yul\":2676:2739   */\n      tag_142\n      jumpi\n        /* \"#utility.yul\":2735:2736   */\n      0x00\n        /* \"#utility.yul\":2732:2733   */\n      dup1\n        /* \"#utility.yul\":2725:2737   */\n      revert\n        /* \"#utility.yul\":2676:2739   */\n    tag_142:\n        /* \"#utility.yul\":2623:2745   */\n      pop\n      jump\t// out\n        /* \"#utility.yul\":2751:2890   */\n    tag_89:\n        /* \"#utility.yul\":2797:2802   */\n      0x00\n        /* \"#utility.yul\":2835:2841   */\n      dup2\n        /* \"#utility.yul\":2822:2842   */\n      calldataload\n        /* \"#utility.yul\":2813:2842   */\n      swap1\n      pop\n        /* \"#utility.yul\":2851:2884   */\n      tag_144\n        /* \"#utility.yul\":2878:2883   */\n      dup2\n        /* \"#utility.yul\":2851:2884   */\n      tag_88\n      jump\t// in\n    tag_144:\n        /* \"#utility.yul\":2751:2890   */\n      swap3\n      swap2\n      pop\n      pop\n      jump\t// out\n        /* \"#utility.yul\":2896:3396   */\n    tag_20:\n        /* \"#utility.yul\":2977:2983   */\n      0x00\n        /* \"#utility.yul\":2985:2991   */\n      dup1\n        /* \"#utility.yul\":3034:3036   */\n      0x40\n        /* \"#utility.yul\":3022:3031   */\n      dup4\n        /* \"#utility.yul\":3013:3020   */\n      dup6\n        /* \"#utility.yul\":3009:3032   */\n      sub\n        /* \"#utility.yul\":3005:3037   */\n      slt\n        /* \"#utility.yul\":3002:3121   */\n      iszero\n      tag_146\n      jumpi\n        /* \"#utility.yul\":3040:3119   */\n      tag_147\n      tag_75\n      jump\t// in\n    tag_147:\n        /* \"#utility.yul\":3002:3121   */\n    tag_146:\n        /* \"#utility.yul\":3160:3161   */\n      0x00\n        /* \"#utility.yul\":3185:3251   */\n      tag_148\n        /* \"#utility.yul\":3243:3250   */\n      dup6\n        /* \"#utility.yul\":3234:3240   */\n      dup3\n        /* \"#utility.yul\":3223:3232   */\n      dup7\n        /* \"#utility.yul\":3219:3241   */\n      add\n        /* \"#utility.yul\":3185:3251   */\n      tag_86\n      jump\t// in\n    tag_148:\n        /* \"#utility.yul\":3175:3251   */\n      swap3\n      pop\n        /* \"#utility.yul\":3131:3261   */\n      pop\n        /* \"#utility.yul\":3300:3302   */\n      0x20\n        /* \"#utility.yul\":3326:3379   */\n      tag_149\n        /* \"#utility.yul\":3371:3378   */\n      dup6\n        /* \"#utility.yul\":3362:3368   */\n      dup3\n        /* \"#utility.yul\":3351:3360   */\n      dup7\n        /* \"#utility.yul\":3347:3369   */\n      add\n        /* \"#utility.yul\":3326:3379   */\n      tag_89\n      jump\t// in\n    tag_149:\n        /* \"#utility.yul\":3316:3379   */\n      swap2\n      pop\n        /* \"#utility.yul\":3271:3389   */\n      pop\n        /* \"#utility.yul\":2896:3396   */\n      swap3\n      pop\n      swap3\n      swap1\n      pop\n      jump\t// out\n        /* \"#utility.yul\":3402:3731   */\n    tag_24:\n        /* \"#utility.yul\":3461:3467   */\n      0x00\n        /* \"#utility.yul\":3510:3512   */\n      0x20\n        /* \"#utility.yul\":3498:3507   */\n      dup3\n        /* \"#utility.yul\":3489:3496   */\n      dup5\n        /* \"#utility.yul\":3485:3508   */\n      sub\n        /* \"#utility.yul\":3481:3513   */\n      slt\n        /* \"#utility.yul\":3478:3597   */\n      iszero\n      tag_151\n      jumpi\n        /* \"#utility.yul\":3516:3595   */\n      tag_152\n      tag_75\n      jump\t// in\n    tag_152:\n        /* \"#utility.yul\":3478:3597   */\n    tag_151:\n        /* \"#utility.yul\":3636:3637   */\n      0x00\n        /* \"#utility.yul\":3661:3714   */\n      tag_153\n        /* \"#utility.yul\":3706:3713   */\n      dup5\n        /* \"#utility.yul\":3697:3703   */\n      dup3\n        /* \"#utility.yul\":3686:3695   */\n      dup6\n        /* \"#utility.yul\":3682:3704   */\n      add\n        /* \"#utility.yul\":3661:3714   */\n      tag_80\n      jump\t// in\n    tag_153:\n        /* \"#utility.yul\":3651:3714   */\n      swap2\n      pop\n        /* \"#utility.yul\":3607:3724   */\n      pop\n        /* \"#utility.yul\":3402:3731   */\n      swap3\n      swap2\n      pop\n      pop\n      jump\t// out\n        /* \"#utility.yul\":3737:3814   */\n    tag_90:\n        /* \"#utility.yul\":3774:3781   */\n      0x00\n        /* \"#utility.yul\":3803:3808   */\n      dup2\n        /* \"#utility.yul\":3792:3808   */\n      swap1\n      pop\n        /* \"#utility.yul\":3737:3814   */\n      swap2\n      swap1\n      pop\n      jump\t// out\n        /* \"#utility.yul\":3820:3938   */\n    tag_91:\n        /* \"#utility.yul\":3907:3931   */\n      tag_156\n        /* \"#utility.yul\":3925:3930   */\n      dup2\n        /* \"#utility.yul\":3907:3931   */\n      tag_90\n      jump\t// in\n    tag_156:\n        /* \"#utility.yul\":3902:3905   */\n      dup3\n        /* \"#utility.yul\":3895:3932   */\n      mstore\n        /* \"#utility.yul\":3820:3938   */\n      pop\n      pop\n      jump\t// out\n        /* \"#utility.yul\":3944:4166   */\n    tag_27:\n        /* \"#utility.yul\":4037:4041   */\n      0x00\n        /* \"#utility.yul\":4075:4077   */\n      0x20\n        /* \"#utility.yul\":4064:4073   */\n      dup3\n        /* \"#utility.yul\":4060:4078   */\n      add\n        /* \"#utility.yul\":4052:4078   */\n      swap1\n      pop\n        /* \"#utility.yul\":4088:4159   */\n      tag_158\n        /* \"#utility.yul\":4156:4157   */\n      0x00\n        /* \"#utility.yul\":4145:4154   */\n      dup4\n        /* \"#utility.yul\":4141:4158   */\n      add\n        /* \"#utility.yul\":4132:4138   */\n      dup5\n        /* \"#utility.yul\":4088:4159   */\n      tag_91\n      jump\t// in\n    tag_158:\n        /* \"#utility.yul\":3944:4166   */\n      swap3\n      swap2\n      pop\n      pop\n      jump\t// out\n        /* \"#utility.yul\":4172:4289   */\n    tag_92:\n        /* \"#utility.yul\":4281:4282   */\n      0x00\n        /* \"#utility.yul\":4278:4279   */\n      dup1\n        /* \"#utility.yul\":4271:4283   */\n      revert\n        /* \"#utility.yul\":4295:4412   */\n    tag_93:\n        /* \"#utility.yul\":4404:4405   */\n      0x00\n        /* \"#utility.yul\":4401:4402   */\n      dup1\n        /* \"#utility.yul\":4394:4406   */\n      revert\n        /* \"#utility.yul\":4418:4535   */\n    tag_94:\n        /* \"#utility.yul\":4527:4528   */\n      0x00\n        /* \"#utility.yul\":4524:4525   */\n      dup1\n        /* \"#utility.yul\":4517:4529   */\n      revert\n        /* \"#utility.yul\":4558:5126   */\n    tag_95:\n        /* \"#utility.yul\":4631:4639   */\n      0x00\n        /* \"#utility.yul\":4641:4647   */\n      dup1\n        /* \"#utility.yul\":4691:4694   */\n      dup4\n        /* \"#utility.yul\":4684:4688   */\n      0x1f\n        /* \"#utility.yul\":4676:4682   */\n      dup5\n        /* \"#utility.yul\":4672:4689   */\n      add\n        /* \"#utility.yul\":4668:4695   */\n      slt\n        /* \"#utility.yul\":4658:4780   */\n      tag_163\n      jumpi\n        /* \"#utility.yul\":4699:4778   */\n      tag_164\n      tag_92\n      jump\t// in\n    tag_164:\n        /* \"#utility.yul\":4658:4780   */\n    tag_163:\n        /* \"#utility.yul\":4812:4818   */\n      dup3\n        /* \"#utility.yul\":4799:4819   */\n      calldataload\n        /* \"#utility.yul\":4789:4819   */\n      swap1\n      pop\n        /* \"#utility.yul\":4842:4860   */\n      0xffffffffffffffff\n        /* \"#utility.yul\":4834:4840   */\n      dup2\n        /* \"#utility.yul\":4831:4861   */\n      gt\n        /* \"#utility.yul\":4828:4945   */\n      iszero\n      tag_165\n      jumpi\n        /* \"#utility.yul\":4864:4943   */\n      tag_166\n      tag_93\n      jump\t// in\n    tag_166:\n        /* \"#utility.yul\":4828:4945   */\n    tag_165:\n        /* \"#utility.yul\":4978:4982   */\n      0x20\n        /* \"#utility.yul\":4970:4976   */\n      dup4\n        /* \"#utility.yul\":4966:4983   */\n      add\n        /* \"#utility.yul\":4954:4983   */\n      swap2\n      pop\n        /* \"#utility.yul\":5032:5035   */\n      dup4\n        /* \"#utility.yul\":5024:5028   */\n      0x20\n        /* \"#utility.yul\":5016:5022   */\n      dup3\n        /* \"#utility.yul\":5012:5029   */\n      mul\n        /* \"#utility.yul\":5002:5010   */\n      dup4\n        /* \"#utility.yul\":4998:5030   */\n      add\n        /* \"#utility.yul\":4995:5036   */\n      gt\n        /* \"#utility.yul\":4992:5120   */\n      iszero\n      tag_167\n      jumpi\n        /* \"#utility.yul\":5039:5118   */\n      tag_168\n      tag_94\n      jump\t// in\n    tag_168:\n        /* \"#utility.yul\":4992:5120   */\n    tag_167:\n        /* \"#utility.yul\":4558:5126   */\n      swap3\n      pop\n      swap3\n      swap1\n      pop\n      jump\t// out\n        /* \"#utility.yul\":5132:6127   */\n    tag_30:\n        /* \"#utility.yul\":5245:5251   */\n      0x00\n        /* \"#utility.yul\":5253:5259   */\n      dup1\n        /* \"#utility.yul\":5261:5267   */\n      0x00\n        /* \"#utility.yul\":5269:5275   */\n      dup1\n        /* \"#utility.yul\":5277:5283   */\n      0x00\n        /* \"#utility.yul\":5326:5329   */\n      0x80\n        /* \"#utility.yul\":5314:5323   */\n      dup7\n        /* \"#utility.yul\":5305:5312   */\n      dup9\n        /* \"#utility.yul\":5301:5324   */\n      sub\n        /* \"#utility.yul\":5297:5330   */\n      slt\n        /* \"#utility.yul\":5294:5414   */\n      iszero\n      tag_170\n      jumpi\n        /* \"#utility.yul\":5333:5412   */\n      tag_171\n      tag_75\n      jump\t// in\n    tag_171:\n        /* \"#utility.yul\":5294:5414   */\n    tag_170:\n        /* \"#utility.yul\":5453:5454   */\n      0x00\n        /* \"#utility.yul\":5478:5531   */\n      tag_172\n        /* \"#utility.yul\":5523:5530   */\n      dup9\n        /* \"#utility.yul\":5514:5520   */\n      dup3\n        /* \"#utility.yul\":5503:5512   */\n      dup10\n        /* \"#utility.yul\":5499:5521   */\n      add\n        /* \"#utility.yul\":5478:5531   */\n      tag_80\n      jump\t// in\n    tag_172:\n        /* \"#utility.yul\":5468:5531   */\n      swap6\n      pop\n        /* \"#utility.yul\":5424:5541   */\n      pop\n        /* \"#utility.yul\":5580:5582   */\n      0x20\n        /* \"#utility.yul\":5606:5659   */\n      tag_173\n        /* \"#utility.yul\":5651:5658   */\n      dup9\n        /* \"#utility.yul\":5642:5648   */\n      dup3\n        /* \"#utility.yul\":5631:5640   */\n      dup10\n        /* \"#utility.yul\":5627:5649   */\n      add\n        /* \"#utility.yul\":5606:5659   */\n      tag_80\n      jump\t// in\n    tag_173:\n        /* \"#utility.yul\":5596:5659   */\n      swap5\n      pop\n        /* \"#utility.yul\":5551:5669   */\n      pop\n        /* \"#utility.yul\":5708:5710   */\n      0x40\n        /* \"#utility.yul\":5734:5787   */\n      tag_174\n        /* \"#utility.yul\":5779:5786   */\n      dup9\n        /* \"#utility.yul\":5770:5776   */\n      dup3\n        /* \"#utility.yul\":5759:5768   */\n      dup10\n        /* \"#utility.yul\":5755:5777   */\n      add\n        /* \"#utility.yul\":5734:5787   */\n      tag_89\n      jump\t// in\n    tag_174:\n        /* \"#utility.yul\":5724:5787   */\n      swap4\n      pop\n        /* \"#utility.yul\":5679:5797   */\n      pop\n        /* \"#utility.yul\":5864:5866   */\n      0x60\n        /* \"#utility.yul\":5853:5862   */\n      dup7\n        /* \"#utility.yul\":5849:5867   */\n      add\n        /* \"#utility.yul\":5836:5868   */\n      calldataload\n        /* \"#utility.yul\":5895:5913   */\n      0xffffffffffffffff\n        /* \"#utility.yul\":5887:5893   */\n      dup2\n        /* \"#utility.yul\":5884:5914   */\n      gt\n        /* \"#utility.yul\":5881:5998   */\n      iszero\n      tag_175\n      jumpi\n        /* \"#utility.yul\":5917:5996   */\n      tag_176\n      tag_76\n      jump\t// in\n    tag_176:\n        /* \"#utility.yul\":5881:5998   */\n    tag_175:\n        /* \"#utility.yul\":6030:6110   */\n      tag_177\n        /* \"#utility.yul\":6102:6109   */\n      dup9\n        /* \"#utility.yul\":6093:6099   */\n      dup3\n        /* \"#utility.yul\":6082:6091   */\n      dup10\n        /* \"#utility.yul\":6078:6100   */\n      add\n        /* \"#utility.yul\":6030:6110   */\n      tag_95\n      jump\t// in\n    tag_177:\n        /* \"#utility.yul\":6012:6110   */\n      swap3\n      pop\n      swap3\n      pop\n        /* \"#utility.yul\":5807:6120   */\n      pop\n        /* \"#utility.yul\":5132:6127   */\n      swap3\n      swap6\n      pop\n      swap3\n      swap6\n      swap1\n      swap4\n      pop\n      jump\t// out\n        /* \"#utility.yul\":6133:6251   */\n    tag_96:\n        /* \"#utility.yul\":6220:6244   */\n      tag_179\n        /* \"#utility.yul\":6238:6243   */\n      dup2\n        /* \"#utility.yul\":6220:6244   */\n      tag_87\n      jump\t// in\n    tag_179:\n        /* \"#utility.yul\":6215:6218   */\n      dup3\n        /* \"#utility.yul\":6208:6245   */\n      mstore\n        /* \"#utility.yul\":6133:6251   */\n      pop\n      pop\n      jump\t// out\n        /* \"#utility.yul\":6257:6589   */\n    tag_35:\n        /* \"#utility.yul\":6378:6382   */\n      0x00\n        /* \"#utility.yul\":6416:6418   */\n      0x40\n        /* \"#utility.yul\":6405:6414   */\n      dup3\n        /* \"#utility.yul\":6401:6419   */\n      add\n        /* \"#utility.yul\":6393:6419   */\n      swap1\n      pop\n        /* \"#utility.yul\":6429:6500   */\n      tag_181\n        /* \"#utility.yul\":6497:6498   */\n      0x00\n        /* \"#utility.yul\":6486:6495   */\n      dup4\n        /* \"#utility.yul\":6482:6499   */\n      add\n        /* \"#utility.yul\":6473:6479   */\n      dup6\n        /* \"#utility.yul\":6429:6500   */\n      tag_83\n      jump\t// in\n    tag_181:\n        /* \"#utility.yul\":6510:6582   */\n      tag_182\n        /* \"#utility.yul\":6578:6580   */\n      0x20\n        /* \"#utility.yul\":6567:6576   */\n      dup4\n        /* \"#utility.yul\":6563:6581   */\n      add\n        /* \"#utility.yul\":6554:6560   */\n      dup5\n        /* \"#utility.yul\":6510:6582   */\n      tag_96\n      jump\t// in\n    tag_182:\n        /* \"#utility.yul\":6257:6589   */\n      swap4\n      swap3\n      pop\n      pop\n      pop\n      jump\t// out\n        /* \"#utility.yul\":6595:6711   */\n    tag_97:\n        /* \"#utility.yul\":6665:6686   */\n      tag_184\n        /* \"#utility.yul\":6680:6685   */\n      dup2\n        /* \"#utility.yul\":6665:6686   */\n      tag_81\n      jump\t// in\n    tag_184:\n        /* \"#utility.yul\":6658:6663   */\n      dup2\n        /* \"#utility.yul\":6655:6687   */\n      eq\n        /* \"#utility.yul\":6645:6705   */\n      tag_185\n      jumpi\n        /* \"#utility.yul\":6701:6702   */\n      0x00\n        /* \"#utility.yul\":6698:6699   */\n      dup1\n        /* \"#utility.yul\":6691:6703   */\n      revert\n        /* \"#utility.yul\":6645:6705   */\n    tag_185:\n        /* \"#utility.yul\":6595:6711   */\n      pop\n      jump\t// out\n        /* \"#utility.yul\":6717:6854   */\n    tag_98:\n        /* \"#utility.yul\":6771:6776   */\n      0x00\n        /* \"#utility.yul\":6802:6808   */\n      dup2\n        /* \"#utility.yul\":6796:6809   */\n      mload\n        /* \"#utility.yul\":6787:6809   */\n      swap1\n      pop\n        /* \"#utility.yul\":6818:6848   */\n      tag_187\n        /* \"#utility.yul\":6842:6847   */\n      dup2\n        /* \"#utility.yul\":6818:6848   */\n      tag_97\n      jump\t// in\n    tag_187:\n        /* \"#utility.yul\":6717:6854   */\n      swap3\n      swap2\n      pop\n      pop\n      jump\t// out\n        /* \"#utility.yul\":6860:7205   */\n    tag_39:\n        /* \"#utility.yul\":6927:6933   */\n      0x00\n        /* \"#utility.yul\":6976:6978   */\n      0x20\n        /* \"#utility.yul\":6964:6973   */\n      dup3\n        /* \"#utility.yul\":6955:6962   */\n      dup5\n        /* \"#utility.yul\":6951:6974   */\n      sub\n        /* \"#utility.yul\":6947:6979   */\n      slt\n        /* \"#utility.yul\":6944:7063   */\n      iszero\n      tag_189\n      jumpi\n        /* \"#utility.yul\":6982:7061   */\n      tag_190\n      tag_75\n      jump\t// in\n    tag_190:\n        /* \"#utility.yul\":6944:7063   */\n    tag_189:\n        /* \"#utility.yul\":7102:7103   */\n      0x00\n        /* \"#utility.yul\":7127:7188   */\n      tag_191\n        /* \"#utility.yul\":7180:7187   */\n      dup5\n        /* \"#utility.yul\":7171:7177   */\n      dup3\n        /* \"#utility.yul\":7160:7169   */\n      dup6\n        /* \"#utility.yul\":7156:7178   */\n      add\n        /* \"#utility.yul\":7127:7188   */\n      tag_98\n      jump\t// in\n    tag_191:\n        /* \"#utility.yul\":7117:7188   */\n      swap2\n      pop\n        /* \"#utility.yul\":7073:7198   */\n      pop\n        /* \"#utility.yul\":6860:7205   */\n      swap3\n      swap2\n      pop\n      pop\n      jump\t// out\n        /* \"#utility.yul\":7211:7305   */\n    tag_99:\n        /* \"#utility.yul\":7244:7252   */\n      0x00\n        /* \"#utility.yul\":7292:7297   */\n      dup2\n        /* \"#utility.yul\":7288:7290   */\n      0x60\n        /* \"#utility.yul\":7284:7298   */\n      shl\n        /* \"#utility.yul\":7263:7298   */\n      swap1\n      pop\n        /* \"#utility.yul\":7211:7305   */\n      swap2\n      swap1\n      pop\n      jump\t// out\n        /* \"#utility.yul\":7311:7405   */\n    tag_100:\n        /* \"#utility.yul\":7350:7357   */\n      0x00\n        /* \"#utility.yul\":7379:7399   */\n      tag_194\n        /* \"#utility.yul\":7393:7398   */\n      dup3\n        /* \"#utility.yul\":7379:7399   */\n      tag_99\n      jump\t// in\n    tag_194:\n        /* \"#utility.yul\":7368:7399   */\n      swap1\n      pop\n        /* \"#utility.yul\":7311:7405   */\n      swap2\n      swap1\n      pop\n      jump\t// out\n        /* \"#utility.yul\":7411:7511   */\n    tag_101:\n        /* \"#utility.yul\":7450:7457   */\n      0x00\n        /* \"#utility.yul\":7479:7505   */\n      tag_196\n        /* \"#utility.yul\":7499:7504   */\n      dup3\n        /* \"#utility.yul\":7479:7505   */\n      tag_100\n      jump\t// in\n    tag_196:\n        /* \"#utility.yul\":7468:7505   */\n      swap1\n      pop\n        /* \"#utility.yul\":7411:7511   */\n      swap2\n      swap1\n      pop\n      jump\t// out\n        /* \"#utility.yul\":7517:7674   */\n    tag_102:\n        /* \"#utility.yul\":7622:7667   */\n      tag_198\n        /* \"#utility.yul\":7642:7666   */\n      tag_199\n        /* \"#utility.yul\":7660:7665   */\n      dup3\n        /* \"#utility.yul\":7642:7666   */\n      tag_78\n      jump\t// in\n    tag_199:\n        /* \"#utility.yul\":7622:7667   */\n      tag_101\n      jump\t// in\n    tag_198:\n        /* \"#utility.yul\":7617:7620   */\n      dup3\n        /* \"#utility.yul\":7610:7668   */\n      mstore\n        /* \"#utility.yul\":7517:7674   */\n      pop\n      pop\n      jump\t// out\n        /* \"#utility.yul\":7680:7759   */\n    tag_103:\n        /* \"#utility.yul\":7719:7726   */\n      0x00\n        /* \"#utility.yul\":7748:7753   */\n      dup2\n        /* \"#utility.yul\":7737:7753   */\n      swap1\n      pop\n        /* \"#utility.yul\":7680:7759   */\n      swap2\n      swap1\n      pop\n      jump\t// out\n        /* \"#utility.yul\":7765:7922   */\n    tag_104:\n        /* \"#utility.yul\":7870:7915   */\n      tag_202\n        /* \"#utility.yul\":7890:7914   */\n      tag_203\n        /* \"#utility.yul\":7908:7913   */\n      dup3\n        /* \"#utility.yul\":7890:7914   */\n      tag_87\n      jump\t// in\n    tag_203:\n        /* \"#utility.yul\":7870:7915   */\n      tag_103\n      jump\t// in\n    tag_202:\n        /* \"#utility.yul\":7865:7868   */\n      dup3\n        /* \"#utility.yul\":7858:7916   */\n      mstore\n        /* \"#utility.yul\":7765:7922   */\n      pop\n      pop\n      jump\t// out\n        /* \"#utility.yul\":7928:8325   */\n    tag_43:\n        /* \"#utility.yul\":8068:8071   */\n      0x00\n        /* \"#utility.yul\":8083:8158   */\n      tag_205\n        /* \"#utility.yul\":8154:8157   */\n      dup3\n        /* \"#utility.yul\":8145:8151   */\n      dup6\n        /* \"#utility.yul\":8083:8158   */\n      tag_102\n      jump\t// in\n    tag_205:\n        /* \"#utility.yul\":8183:8185   */\n      0x14\n        /* \"#utility.yul\":8178:8181   */\n      dup3\n        /* \"#utility.yul\":8174:8186   */\n      add\n        /* \"#utility.yul\":8167:8186   */\n      swap2\n      pop\n        /* \"#utility.yul\":8196:8271   */\n      tag_206\n        /* \"#utility.yul\":8267:8270   */\n      dup3\n        /* \"#utility.yul\":8258:8264   */\n      dup5\n        /* \"#utility.yul\":8196:8271   */\n      tag_104\n      jump\t// in\n    tag_206:\n        /* \"#utility.yul\":8296:8298   */\n      0x20\n        /* \"#utility.yul\":8291:8294   */\n      dup3\n        /* \"#utility.yul\":8287:8299   */\n      add\n        /* \"#utility.yul\":8280:8299   */\n      swap2\n      pop\n        /* \"#utility.yul\":8316:8319   */\n      dup2\n        /* \"#utility.yul\":8309:8319   */\n      swap1\n      pop\n        /* \"#utility.yul\":7928:8325   */\n      swap4\n      swap3\n      pop\n      pop\n      pop\n      jump\t// out\n        /* \"#utility.yul\":8331:8553   */\n    tag_52:\n        /* \"#utility.yul\":8424:8428   */\n      0x00\n        /* \"#utility.yul\":8462:8464   */\n      0x20\n        /* \"#utility.yul\":8451:8460   */\n      dup3\n        /* \"#utility.yul\":8447:8465   */\n      add\n        /* \"#utility.yul\":8439:8465   */\n      swap1\n      pop\n        /* \"#utility.yul\":8475:8546   */\n      tag_208\n        /* \"#utility.yul\":8543:8544   */\n      0x00\n        /* \"#utility.yul\":8532:8541   */\n      dup4\n        /* \"#utility.yul\":8528:8545   */\n      add\n        /* \"#utility.yul\":8519:8525   */\n      dup5\n        /* \"#utility.yul\":8475:8546   */\n      tag_96\n      jump\t// in\n    tag_208:\n        /* \"#utility.yul\":8331:8553   */\n      swap3\n      swap2\n      pop\n      pop\n      jump\t// out\n        /* \"#utility.yul\":8559:8739   */\n    tag_63:\n        /* \"#utility.yul\":8607:8684   */\n      0x4e487b7100000000000000000000000000000000000000000000000000000000\n        /* \"#utility.yul\":8604:8605   */\n      0x00\n        /* \"#utility.yul\":8597:8685   */\n      mstore\n        /* \"#utility.yul\":8704:8708   */\n      0x32\n        /* \"#utility.yul\":8701:8702   */\n      0x04\n        /* \"#utility.yul\":8694:8709   */\n      mstore\n        /* \"#utility.yul\":8728:8732   */\n      0x24\n        /* \"#utility.yul\":8725:8726   */\n      0x00\n        /* \"#utility.yul\":8718:8733   */\n      revert\n        /* \"#utility.yul\":8745:8925   */\n    tag_105:\n        /* \"#utility.yul\":8793:8870   */\n      0x4e487b7100000000000000000000000000000000000000000000000000000000\n        /* \"#utility.yul\":8790:8791   */\n      0x00\n        /* \"#utility.yul\":8783:8871   */\n      mstore\n        /* \"#utility.yul\":8890:8894   */\n      0x11\n        /* \"#utility.yul\":8887:8888   */\n      0x04\n        /* \"#utility.yul\":8880:8895   */\n      mstore\n        /* \"#utility.yul\":8914:8918   */\n      0x24\n        /* \"#utility.yul\":8911:8912   */\n      0x00\n        /* \"#utility.yul\":8904:8919   */\n      revert\n        /* \"#utility.yul\":8931:9164   */\n    tag_66:\n        /* \"#utility.yul\":8970:8973   */\n      0x00\n        /* \"#utility.yul\":8993:9017   */\n      tag_212\n        /* \"#utility.yul\":9011:9016   */\n      dup3\n        /* \"#utility.yul\":8993:9017   */\n      tag_87\n      jump\t// in\n    tag_212:\n        /* \"#utility.yul\":8984:9017   */\n      swap2\n      pop\n        /* \"#utility.yul\":9039:9105   */\n      0xffffffffffffffffffffffffffffffffffffffffffffffffffffffffffffffff\n        /* \"#utility.yul\":9032:9037   */\n      dup3\n        /* \"#utility.yul\":9029:9106   */\n      sub\n        /* \"#utility.yul\":9026:9129   */\n      tag_213\n      jumpi\n        /* \"#utility.yul\":9109:9127   */\n      tag_214\n      tag_105\n      jump\t// in\n    tag_214:\n        /* \"#utility.yul\":9026:9129   */\n    tag_213:\n        /* \"#utility.yul\":9156:9157   */\n      0x01\n        /* \"#utility.yul\":9149:9154   */\n      dup3\n        /* \"#utility.yul\":9145:9158   */\n      add\n        /* \"#utility.yul\":9138:9158   */\n      swap1\n      pop\n        /* \"#utility.yul\":8931:9164   */\n      swap2\n      swap1\n      pop\n      jump\t// out\n\n    auxdata: 0xa2646970667358221220b0e2357a4b8f7fcd97fbe997457223778ab06dd0747e38cfaebddcc203e0923764736f6c63430008110033\n}\n",
				"bytecode": {
					"linkReferences": {},
					"object": "60a060405273b4c575308221caa398e0dd2cdeb6b2f10d7b000a73ffffffffffffffffffffffffffffffffffffffff1660809073ffffffffffffffffffffffffffffffffffffffff168152503480156200005857600080fd5b50604051620011d2380380620011d283398181016040528101906200007e919062000476565b8051825114620000c5576040517f08c379a0000000000000000000000000000000000000000000000000000000008152600401620000bc9062000582565b60405180910390fd5b60005b82518160ff1610156200016e57818160ff1681518110620000ee57620000ed620005a4565b5b6020026020010151600080858460ff1681518110620001125762000111620005a4565b5b602002602001015173ffffffffffffffffffffffffffffffffffffffff1673ffffffffffffffffffffffffffffffffffffffff16815260200190815260200160002081905550808062000165906200060f565b915050620000c8565b5050506200063d565b6000604051905090565b600080fd5b600080fd5b600080fd5b6000601f19601f8301169050919050565b7f4e487b7100000000000000000000000000000000000000000000000000000000600052604160045260246000fd5b620001db8262000190565b810181811067ffffffffffffffff82111715620001fd57620001fc620001a1565b5b80604052505050565b60006200021262000177565b9050620002208282620001d0565b919050565b600067ffffffffffffffff821115620002435762000242620001a1565b5b602082029050602081019050919050565b600080fd5b600073ffffffffffffffffffffffffffffffffffffffff82169050919050565b6000620002868262000259565b9050919050565b620002988162000279565b8114620002a457600080fd5b50565b600081519050620002b8816200028d565b92915050565b6000620002d5620002cf8462000225565b62000206565b90508083825260208201905060208402830185811115620002fb57620002fa62000254565b5b835b81811015620003285780620003138882620002a7565b845260208401935050602081019050620002fd565b5050509392505050565b600082601f8301126200034a57620003496200018b565b5b81516200035c848260208601620002be565b91505092915050565b600067ffffffffffffffff821115620003835762000382620001a1565b5b602082029050602081019050919050565b6000819050919050565b620003a98162000394565b8114620003b557600080fd5b50565b600081519050620003c9816200039e565b92915050565b6000620003e6620003e08462000365565b62000206565b905080838252602082019050602084028301858111156200040c576200040b62000254565b5b835b81811015620004395780620004248882620003b8565b8452602084019350506020810190506200040e565b5050509392505050565b600082601f8301126200045b576200045a6200018b565b5b81516200046d848260208601620003cf565b91505092915050565b6000806040838503121562000490576200048f62000181565b5b600083015167ffffffffffffffff811115620004b157620004b062000186565b5b620004bf8582860162000332565b925050602083015167ffffffffffffffff811115620004e357620004e262000186565b5b620004f18582860162000443565b9150509250929050565b600082825260208201905092915050565b7f4e656564206173206d616e79206d65726b6c6520526f6f747320617320746f6b60008201527f656e730000000000000000000000000000000000000000000000000000000000602082015250565b60006200056a602383620004fb565b915062000577826200050c565b604082019050919050565b600060208201905081810360008301526200059d816200055b565b9050919050565b7f4e487b7100000000000000000000000000000000000000000000000000000000600052603260045260246000fd5b7f4e487b7100000000000000000000000000000000000000000000000000000000600052601160045260246000fd5b600060ff82169050919050565b60006200061c8262000602565b915060ff8203620006325762000631620005d3565b5b600182019050919050565b608051610b6b62000667600039600081816101430152818161016701526101db0152610b6b6000f3fe608060405234801561001057600080fd5b50600436106100575760003560e01c806389266f601461005c57806398fabd3a1461008c578063a7537986146100aa578063ae9a6808146100c6578063fabed412146100f6575b600080fd5b610076600480360381019061007191906106ac565b610112565b6040516100839190610707565b60405180910390f35b610094610141565b6040516100a19190610731565b60405180910390f35b6100c460048036038101906100bf91906107c0565b610165565b005b6100e060048036038101906100db9190610800565b610260565b6040516100ed9190610846565b60405180910390f35b610110600480360381019061010b91906108c6565b610278565b005b60016020528160005260406000206020528060005260406000206000915091509054906101000a900460ff1681565b7f000000000000000000000000000000000000000000000000000000000000000081565b7f000000000000000000000000000000000000000000000000000000000000000073ffffffffffffffffffffffffffffffffffffffff163373ffffffffffffffffffffffffffffffffffffffff16146101bd57600080fd5b8173ffffffffffffffffffffffffffffffffffffffff1663a9059cbb7f0000000000000000000000000000000000000000000000000000000000000000836040518363ffffffff1660e01b815260040161021892919061095d565b6020604051808303816000875af1158015610237573d6000803e3d6000fd5b505050506040513d601f19601f8201168201806040525081019061025b91906109b2565b505050565b60006020528060005260406000206000915090505481565b600160008673ffffffffffffffffffffffffffffffffffffffff1673ffffffffffffffffffffffffffffffffffffffff16815260200190815260200160002060008573ffffffffffffffffffffffffffffffffffffffff1673ffffffffffffffffffffffffffffffffffffffff16815260200190815260200160002060009054906101000a900460ff1615610339576040517f646cf55800000000000000000000000000000000000000000000000000000000815260040160405180910390fd5b6000848460405160200161034e929190610a48565b60405160208183030381529060405280519060200120905060006103f2848480806020026020016040519081016040528093929190818152602001838360200280828437600081840152601f19601f820116905080830192505050505050506000808a73ffffffffffffffffffffffffffffffffffffffff1673ffffffffffffffffffffffffffffffffffffffff1681526020019081526020016000205484610595565b90508061042b576040517f8a585be200000000000000000000000000000000000000000000000000000000815260040160405180910390fd5b60018060008973ffffffffffffffffffffffffffffffffffffffff1673ffffffffffffffffffffffffffffffffffffffff16815260200190815260200160002060008873ffffffffffffffffffffffffffffffffffffffff1673ffffffffffffffffffffffffffffffffffffffff16815260200190815260200160002060006101000a81548160ff0219169083151502179055508673ffffffffffffffffffffffffffffffffffffffff1663a9059cbb87876040518363ffffffff1660e01b81526004016104fa92919061095d565b6020604051808303816000875af1158015610519573d6000803e3d6000fd5b505050506040513d601f19601f8201168201806040525081019061053d91906109b2565b508573ffffffffffffffffffffffffffffffffffffffff167f47cee97cb7acd717b3c0aa1435d004cd5b3c8c57d70dbceb4e4458bbd60e39d4866040516105849190610a74565b60405180910390a250505050505050565b6000826105a285846105ac565b1490509392505050565b60008082905060005b84518110156105f7576105e2828683815181106105d5576105d4610a8f565b5b6020026020010151610602565b915080806105ef90610aed565b9150506105b5565b508091505092915050565b600081831061061a57610615828461062d565b610625565b610624838361062d565b5b905092915050565b600082600052816020526040600020905092915050565b600080fd5b600080fd5b600073ffffffffffffffffffffffffffffffffffffffff82169050919050565b60006106798261064e565b9050919050565b6106898161066e565b811461069457600080fd5b50565b6000813590506106a681610680565b92915050565b600080604083850312156106c3576106c2610644565b5b60006106d185828601610697565b92505060206106e285828601610697565b9150509250929050565b60008115159050919050565b610701816106ec565b82525050565b600060208201905061071c60008301846106f8565b92915050565b61072b8161066e565b82525050565b60006020820190506107466000830184610722565b92915050565b60006107578261066e565b9050919050565b6107678161074c565b811461077257600080fd5b50565b6000813590506107848161075e565b92915050565b6000819050919050565b61079d8161078a565b81146107a857600080fd5b50565b6000813590506107ba81610794565b92915050565b600080604083850312156107d7576107d6610644565b5b60006107e585828601610775565b92505060206107f6858286016107ab565b9150509250929050565b60006020828403121561081657610815610644565b5b600061082484828501610697565b91505092915050565b6000819050919050565b6108408161082d565b82525050565b600060208201905061085b6000830184610837565b92915050565b600080fd5b600080fd5b600080fd5b60008083601f84011261088657610885610861565b5b8235905067ffffffffffffffff8111156108a3576108a2610866565b5b6020830191508360208202830111156108bf576108be61086b565b5b9250929050565b6000806000806000608086880312156108e2576108e1610644565b5b60006108f088828901610697565b955050602061090188828901610697565b9450506040610912888289016107ab565b935050606086013567ffffffffffffffff81111561093357610932610649565b5b61093f88828901610870565b92509250509295509295909350565b6109578161078a565b82525050565b60006040820190506109726000830185610722565b61097f602083018461094e565b9392505050565b61098f816106ec565b811461099a57600080fd5b50565b6000815190506109ac81610986565b92915050565b6000602082840312156109c8576109c7610644565b5b60006109d68482850161099d565b91505092915050565b60008160601b9050919050565b60006109f7826109df565b9050919050565b6000610a09826109ec565b9050919050565b610a21610a1c8261066e565b6109fe565b82525050565b6000819050919050565b610a42610a3d8261078a565b610a27565b82525050565b6000610a548285610a10565b601482019150610a648284610a31565b6020820191508190509392505050565b6000602082019050610a89600083018461094e565b92915050565b7f4e487b7100000000000000000000000000000000000000000000000000000000600052603260045260246000fd5b7f4e487b7100000000000000000000000000000000000000000000000000000000600052601160045260246000fd5b6000610af88261078a565b91507fffffffffffffffffffffffffffffffffffffffffffffffffffffffffffffffff8203610b2a57610b29610abe565b5b60018201905091905056fea2646970667358221220b0e2357a4b8f7fcd97fbe997457223778ab06dd0747e38cfaebddcc203e0923764736f6c63430008110033",
					"opcodes": "PUSH1 0xA0 PUSH1 0x40 MSTORE PUSH20 0xB4C575308221CAA398E0DD2CDEB6B2F10D7B000A PUSH20 0xFFFFFFFFFFFFFFFFFFFFFFFFFFFFFFFFFFFFFFFF AND PUSH1 0x80 SWAP1 PUSH20 0xFFFFFFFFFFFFFFFFFFFFFFFFFFFFFFFFFFFFFFFF AND DUP2 MSTORE POP CALLVALUE DUP1 ISZERO PUSH3 0x58 JUMPI PUSH1 0x0 DUP1 REVERT JUMPDEST POP PUSH1 0x40 MLOAD PUSH3 0x11D2 CODESIZE SUB DUP1 PUSH3 0x11D2 DUP4 CODECOPY DUP2 DUP2 ADD PUSH1 0x40 MSTORE DUP2 ADD SWAP1 PUSH3 0x7E SWAP2 SWAP1 PUSH3 0x476 JUMP JUMPDEST DUP1 MLOAD DUP3 MLOAD EQ PUSH3 0xC5 JUMPI PUSH1 0x40 MLOAD PUSH32 0x8C379A000000000000000000000000000000000000000000000000000000000 DUP2 MSTORE PUSH1 0x4 ADD PUSH3 0xBC SWAP1 PUSH3 0x582 JUMP JUMPDEST PUSH1 0x40 MLOAD DUP1 SWAP2 SUB SWAP1 REVERT JUMPDEST PUSH1 0x0 JUMPDEST DUP3 MLOAD DUP2 PUSH1 0xFF AND LT ISZERO PUSH3 0x16E JUMPI DUP2 DUP2 PUSH1 0xFF AND DUP2 MLOAD DUP2 LT PUSH3 0xEE JUMPI PUSH3 0xED PUSH3 0x5A4 JUMP JUMPDEST JUMPDEST PUSH1 0x20 MUL PUSH1 0x20 ADD ADD MLOAD PUSH1 0x0 DUP1 DUP6 DUP5 PUSH1 0xFF AND DUP2 MLOAD DUP2 LT PUSH3 0x112 JUMPI PUSH3 0x111 PUSH3 0x5A4 JUMP JUMPDEST JUMPDEST PUSH1 0x20 MUL PUSH1 0x20 ADD ADD MLOAD PUSH20 0xFFFFFFFFFFFFFFFFFFFFFFFFFFFFFFFFFFFFFFFF AND PUSH20 0xFFFFFFFFFFFFFFFFFFFFFFFFFFFFFFFFFFFFFFFF AND DUP2 MSTORE PUSH1 0x20 ADD SWAP1 DUP2 MSTORE PUSH1 0x20 ADD PUSH1 0x0 KECCAK256 DUP2 SWAP1 SSTORE POP DUP1 DUP1 PUSH3 0x165 SWAP1 PUSH3 0x60F JUMP JUMPDEST SWAP2 POP POP PUSH3 0xC8 JUMP JUMPDEST POP POP POP PUSH3 0x63D JUMP JUMPDEST PUSH1 0x0 PUSH1 0x40 MLOAD SWAP1 POP SWAP1 JUMP JUMPDEST PUSH1 0x0 DUP1 REVERT JUMPDEST PUSH1 0x0 DUP1 REVERT JUMPDEST PUSH1 0x0 DUP1 REVERT JUMPDEST PUSH1 0x0 PUSH1 0x1F NOT PUSH1 0x1F DUP4 ADD AND SWAP1 POP SWAP2 SWAP1 POP JUMP JUMPDEST PUSH32 0x4E487B7100000000000000000000000000000000000000000000000000000000 PUSH1 0x0 MSTORE PUSH1 0x41 PUSH1 0x4 MSTORE PUSH1 0x24 PUSH1 0x0 REVERT JUMPDEST PUSH3 0x1DB DUP3 PUSH3 0x190 JUMP JUMPDEST DUP2 ADD DUP2 DUP2 LT PUSH8 0xFFFFFFFFFFFFFFFF DUP3 GT OR ISZERO PUSH3 0x1FD JUMPI PUSH3 0x1FC PUSH3 0x1A1 JUMP JUMPDEST JUMPDEST DUP1 PUSH1 0x40 MSTORE POP POP POP JUMP JUMPDEST PUSH1 0x0 PUSH3 0x212 PUSH3 0x177 JUMP JUMPDEST SWAP1 POP PUSH3 0x220 DUP3 DUP3 PUSH3 0x1D0 JUMP JUMPDEST SWAP2 SWAP1 POP JUMP JUMPDEST PUSH1 0x0 PUSH8 0xFFFFFFFFFFFFFFFF DUP3 GT ISZERO PUSH3 0x243 JUMPI PUSH3 0x242 PUSH3 0x1A1 JUMP JUMPDEST JUMPDEST PUSH1 0x20 DUP3 MUL SWAP1 POP PUSH1 0x20 DUP2 ADD SWAP1 POP SWAP2 SWAP1 POP JUMP JUMPDEST PUSH1 0x0 DUP1 REVERT JUMPDEST PUSH1 0x0 PUSH20 0xFFFFFFFFFFFFFFFFFFFFFFFFFFFFFFFFFFFFFFFF DUP3 AND SWAP1 POP SWAP2 SWAP1 POP JUMP JUMPDEST PUSH1 0x0 PUSH3 0x286 DUP3 PUSH3 0x259 JUMP JUMPDEST SWAP1 POP SWAP2 SWAP1 POP JUMP JUMPDEST PUSH3 0x298 DUP2 PUSH3 0x279 JUMP JUMPDEST DUP2 EQ PUSH3 0x2A4 JUMPI PUSH1 0x0 DUP1 REVERT JUMPDEST POP JUMP JUMPDEST PUSH1 0x0 DUP2 MLOAD SWAP1 POP PUSH3 0x2B8 DUP2 PUSH3 0x28D JUMP JUMPDEST SWAP3 SWAP2 POP POP JUMP JUMPDEST PUSH1 0x0 PUSH3 0x2D5 PUSH3 0x2CF DUP5 PUSH3 0x225 JUMP JUMPDEST PUSH3 0x206 JUMP JUMPDEST SWAP1 POP DUP1 DUP4 DUP3 MSTORE PUSH1 0x20 DUP3 ADD SWAP1 POP PUSH1 0x20 DUP5 MUL DUP4 ADD DUP6 DUP2 GT ISZERO PUSH3 0x2FB JUMPI PUSH3 0x2FA PUSH3 0x254 JUMP JUMPDEST JUMPDEST DUP4 JUMPDEST DUP2 DUP2 LT ISZERO PUSH3 0x328 JUMPI DUP1 PUSH3 0x313 DUP9 DUP3 PUSH3 0x2A7 JUMP JUMPDEST DUP5 MSTORE PUSH1 0x20 DUP5 ADD SWAP4 POP POP PUSH1 0x20 DUP2 ADD SWAP1 POP PUSH3 0x2FD JUMP JUMPDEST POP POP POP SWAP4 SWAP3 POP POP POP JUMP JUMPDEST PUSH1 0x0 DUP3 PUSH1 0x1F DUP4 ADD SLT PUSH3 0x34A JUMPI PUSH3 0x349 PUSH3 0x18B JUMP JUMPDEST JUMPDEST DUP2 MLOAD PUSH3 0x35C DUP5 DUP3 PUSH1 0x20 DUP7 ADD PUSH3 0x2BE JUMP JUMPDEST SWAP2 POP POP SWAP3 SWAP2 POP POP JUMP JUMPDEST PUSH1 0x0 PUSH8 0xFFFFFFFFFFFFFFFF DUP3 GT ISZERO PUSH3 0x383 JUMPI PUSH3 0x382 PUSH3 0x1A1 JUMP JUMPDEST JUMPDEST PUSH1 0x20 DUP3 MUL SWAP1 POP PUSH1 0x20 DUP2 ADD SWAP1 POP SWAP2 SWAP1 POP JUMP JUMPDEST PUSH1 0x0 DUP2 SWAP1 POP SWAP2 SWAP1 POP JUMP JUMPDEST PUSH3 0x3A9 DUP2 PUSH3 0x394 JUMP JUMPDEST DUP2 EQ PUSH3 0x3B5 JUMPI PUSH1 0x0 DUP1 REVERT JUMPDEST POP JUMP JUMPDEST PUSH1 0x0 DUP2 MLOAD SWAP1 POP PUSH3 0x3C9 DUP2 PUSH3 0x39E JUMP JUMPDEST SWAP3 SWAP2 POP POP JUMP JUMPDEST PUSH1 0x0 PUSH3 0x3E6 PUSH3 0x3E0 DUP5 PUSH3 0x365 JUMP JUMPDEST PUSH3 0x206 JUMP JUMPDEST SWAP1 POP DUP1 DUP4 DUP3 MSTORE PUSH1 0x20 DUP3 ADD SWAP1 POP PUSH1 0x20 DUP5 MUL DUP4 ADD DUP6 DUP2 GT ISZERO PUSH3 0x40C JUMPI PUSH3 0x40B PUSH3 0x254 JUMP JUMPDEST JUMPDEST DUP4 JUMPDEST DUP2 DUP2 LT ISZERO PUSH3 0x439 JUMPI DUP1 PUSH3 0x424 DUP9 DUP3 PUSH3 0x3B8 JUMP JUMPDEST DUP5 MSTORE PUSH1 0x20 DUP5 ADD SWAP4 POP POP PUSH1 0x20 DUP2 ADD SWAP1 POP PUSH3 0x40E JUMP JUMPDEST POP POP POP SWAP4 SWAP3 POP POP POP JUMP JUMPDEST PUSH1 0x0 DUP3 PUSH1 0x1F DUP4 ADD SLT PUSH3 0x45B JUMPI PUSH3 0x45A PUSH3 0x18B JUMP JUMPDEST JUMPDEST DUP2 MLOAD PUSH3 0x46D DUP5 DUP3 PUSH1 0x20 DUP7 ADD PUSH3 0x3CF JUMP JUMPDEST SWAP2 POP POP SWAP3 SWAP2 POP POP JUMP JUMPDEST PUSH1 0x0 DUP1 PUSH1 0x40 DUP4 DUP6 SUB SLT ISZERO PUSH3 0x490 JUMPI PUSH3 0x48F PUSH3 0x181 JUMP JUMPDEST JUMPDEST PUSH1 0x0 DUP4 ADD MLOAD PUSH8 0xFFFFFFFFFFFFFFFF DUP2 GT ISZERO PUSH3 0x4B1 JUMPI PUSH3 0x4B0 PUSH3 0x186 JUMP JUMPDEST JUMPDEST PUSH3 0x4BF DUP6 DUP3 DUP7 ADD PUSH3 0x332 JUMP JUMPDEST SWAP3 POP POP PUSH1 0x20 DUP4 ADD MLOAD PUSH8 0xFFFFFFFFFFFFFFFF DUP2 GT ISZERO PUSH3 0x4E3 JUMPI PUSH3 0x4E2 PUSH3 0x186 JUMP JUMPDEST JUMPDEST PUSH3 0x4F1 DUP6 DUP3 DUP7 ADD PUSH3 0x443 JUMP JUMPDEST SWAP2 POP POP SWAP3 POP SWAP3 SWAP1 POP JUMP JUMPDEST PUSH1 0x0 DUP3 DUP3 MSTORE PUSH1 0x20 DUP3 ADD SWAP1 POP SWAP3 SWAP2 POP POP JUMP JUMPDEST PUSH32 0x4E656564206173206D616E79206D65726B6C6520526F6F747320617320746F6B PUSH1 0x0 DUP3 ADD MSTORE PUSH32 0x656E730000000000000000000000000000000000000000000000000000000000 PUSH1 0x20 DUP3 ADD MSTORE POP JUMP JUMPDEST PUSH1 0x0 PUSH3 0x56A PUSH1 0x23 DUP4 PUSH3 0x4FB JUMP JUMPDEST SWAP2 POP PUSH3 0x577 DUP3 PUSH3 0x50C JUMP JUMPDEST PUSH1 0x40 DUP3 ADD SWAP1 POP SWAP2 SWAP1 POP JUMP JUMPDEST PUSH1 0x0 PUSH1 0x20 DUP3 ADD SWAP1 POP DUP2 DUP2 SUB PUSH1 0x0 DUP4 ADD MSTORE PUSH3 0x59D DUP2 PUSH3 0x55B JUMP JUMPDEST SWAP1 POP SWAP2 SWAP1 POP JUMP JUMPDEST PUSH32 0x4E487B7100000000000000000000000000000000000000000000000000000000 PUSH1 0x0 MSTORE PUSH1 0x32 PUSH1 0x4 MSTORE PUSH1 0x24 PUSH1 0x0 REVERT JUMPDEST PUSH32 0x4E487B7100000000000000000000000000000000000000000000000000000000 PUSH1 0x0 MSTORE PUSH1 0x11 PUSH1 0x4 MSTORE PUSH1 0x24 PUSH1 0x0 REVERT JUMPDEST PUSH1 0x0 PUSH1 0xFF DUP3 AND SWAP1 POP SWAP2 SWAP1 POP JUMP JUMPDEST PUSH1 0x0 PUSH3 0x61C DUP3 PUSH3 0x602 JUMP JUMPDEST SWAP2 POP PUSH1 0xFF DUP3 SUB PUSH3 0x632 JUMPI PUSH3 0x631 PUSH3 0x5D3 JUMP JUMPDEST JUMPDEST PUSH1 0x1 DUP3 ADD SWAP1 POP SWAP2 SWAP1 POP JUMP JUMPDEST PUSH1 0x80 MLOAD PUSH2 0xB6B PUSH3 0x667 PUSH1 0x0 CODECOPY PUSH1 0x0 DUP2 DUP2 PUSH2 0x143 ADD MSTORE DUP2 DUP2 PUSH2 0x167 ADD MSTORE PUSH2 0x1DB ADD MSTORE PUSH2 0xB6B PUSH1 0x0 RETURN INVALID PUSH1 0x80 PUSH1 0x40 MSTORE CALLVALUE DUP1 ISZERO PUSH2 0x10 JUMPI PUSH1 0x0 DUP1 REVERT JUMPDEST POP PUSH1 0x4 CALLDATASIZE LT PUSH2 0x57 JUMPI PUSH1 0x0 CALLDATALOAD PUSH1 0xE0 SHR DUP1 PUSH4 0x89266F60 EQ PUSH2 0x5C JUMPI DUP1 PUSH4 0x98FABD3A EQ PUSH2 0x8C JUMPI DUP1 PUSH4 0xA7537986 EQ PUSH2 0xAA JUMPI DUP1 PUSH4 0xAE9A6808 EQ PUSH2 0xC6 JUMPI DUP1 PUSH4 0xFABED412 EQ PUSH2 0xF6 JUMPI JUMPDEST PUSH1 0x0 DUP1 REVERT JUMPDEST PUSH2 0x76 PUSH1 0x4 DUP1 CALLDATASIZE SUB DUP2 ADD SWAP1 PUSH2 0x71 SWAP2 SWAP1 PUSH2 0x6AC JUMP JUMPDEST PUSH2 0x112 JUMP JUMPDEST PUSH1 0x40 MLOAD PUSH2 0x83 SWAP2 SWAP1 PUSH2 0x707 JUMP JUMPDEST PUSH1 0x40 MLOAD DUP1 SWAP2 SUB SWAP1 RETURN JUMPDEST PUSH2 0x94 PUSH2 0x141 JUMP JUMPDEST PUSH1 0x40 MLOAD PUSH2 0xA1 SWAP2 SWAP1 PUSH2 0x731 JUMP JUMPDEST PUSH1 0x40 MLOAD DUP1 SWAP2 SUB SWAP1 RETURN JUMPDEST PUSH2 0xC4 PUSH1 0x4 DUP1 CALLDATASIZE SUB DUP2 ADD SWAP1 PUSH2 0xBF SWAP2 SWAP1 PUSH2 0x7C0 JUMP JUMPDEST PUSH2 0x165 JUMP JUMPDEST STOP JUMPDEST PUSH2 0xE0 PUSH1 0x4 DUP1 CALLDATASIZE SUB DUP2 ADD SWAP1 PUSH2 0xDB SWAP2 SWAP1 PUSH2 0x800 JUMP JUMPDEST PUSH2 0x260 JUMP JUMPDEST PUSH1 0x40 MLOAD PUSH2 0xED SWAP2 SWAP1 PUSH2 0x846 JUMP JUMPDEST PUSH1 0x40 MLOAD DUP1 SWAP2 SUB SWAP1 RETURN JUMPDEST PUSH2 0x110 PUSH1 0x4 DUP1 CALLDATASIZE SUB DUP2 ADD SWAP1 PUSH2 0x10B SWAP2 SWAP1 PUSH2 0x8C6 JUMP JUMPDEST PUSH2 0x278 JUMP JUMPDEST STOP JUMPDEST PUSH1 0x1 PUSH1 0x20 MSTORE DUP2 PUSH1 0x0 MSTORE PUSH1 0x40 PUSH1 0x0 KECCAK256 PUSH1 0x20 MSTORE DUP1 PUSH1 0x0 MSTORE PUSH1 0x40 PUSH1 0x0 KECCAK256 PUSH1 0x0 SWAP2 POP SWAP2 POP SWAP1 SLOAD SWAP1 PUSH2 0x100 EXP SWAP1 DIV PUSH1 0xFF AND DUP2 JUMP JUMPDEST PUSH32 0x0 DUP2 JUMP JUMPDEST PUSH32 0x0 PUSH20 0xFFFFFFFFFFFFFFFFFFFFFFFFFFFFFFFFFFFFFFFF AND CALLER PUSH20 0xFFFFFFFFFFFFFFFFFFFFFFFFFFFFFFFFFFFFFFFF AND EQ PUSH2 0x1BD JUMPI PUSH1 0x0 DUP1 REVERT JUMPDEST DUP2 PUSH20 0xFFFFFFFFFFFFFFFFFFFFFFFFFFFFFFFFFFFFFFFF AND PUSH4 0xA9059CBB PUSH32 0x0 DUP4 PUSH1 0x40 MLOAD DUP4 PUSH4 0xFFFFFFFF AND PUSH1 0xE0 SHL DUP2 MSTORE PUSH1 0x4 ADD PUSH2 0x218 SWAP3 SWAP2 SWAP1 PUSH2 0x95D JUMP JUMPDEST PUSH1 0x20 PUSH1 0x40 MLOAD DUP1 DUP4 SUB DUP2 PUSH1 0x0 DUP8 GAS CALL ISZERO DUP1 ISZERO PUSH2 0x237 JUMPI RETURNDATASIZE PUSH1 0x0 DUP1 RETURNDATACOPY RETURNDATASIZE PUSH1 0x0 REVERT JUMPDEST POP POP POP POP PUSH1 0x40 MLOAD RETURNDATASIZE PUSH1 0x1F NOT PUSH1 0x1F DUP3 ADD AND DUP3 ADD DUP1 PUSH1 0x40 MSTORE POP DUP2 ADD SWAP1 PUSH2 0x25B SWAP2 SWAP1 PUSH2 0x9B2 JUMP JUMPDEST POP POP POP JUMP JUMPDEST PUSH1 0x0 PUSH1 0x20 MSTORE DUP1 PUSH1 0x0 MSTORE PUSH1 0x40 PUSH1 0x0 KECCAK256 PUSH1 0x0 SWAP2 POP SWAP1 POP SLOAD DUP2 JUMP JUMPDEST PUSH1 0x1 PUSH1 0x0 DUP7 PUSH20 0xFFFFFFFFFFFFFFFFFFFFFFFFFFFFFFFFFFFFFFFF AND PUSH20 0xFFFFFFFFFFFFFFFFFFFFFFFFFFFFFFFFFFFFFFFF AND DUP2 MSTORE PUSH1 0x20 ADD SWAP1 DUP2 MSTORE PUSH1 0x20 ADD PUSH1 0x0 KECCAK256 PUSH1 0x0 DUP6 PUSH20 0xFFFFFFFFFFFFFFFFFFFFFFFFFFFFFFFFFFFFFFFF AND PUSH20 0xFFFFFFFFFFFFFFFFFFFFFFFFFFFFFFFFFFFFFFFF AND DUP2 MSTORE PUSH1 0x20 ADD SWAP1 DUP2 MSTORE PUSH1 0x20 ADD PUSH1 0x0 KECCAK256 PUSH1 0x0 SWAP1 SLOAD SWAP1 PUSH2 0x100 EXP SWAP1 DIV PUSH1 0xFF AND ISZERO PUSH2 0x339 JUMPI PUSH1 0x40 MLOAD PUSH32 0x646CF55800000000000000000000000000000000000000000000000000000000 DUP2 MSTORE PUSH1 0x4 ADD PUSH1 0x40 MLOAD DUP1 SWAP2 SUB SWAP1 REVERT JUMPDEST PUSH1 0x0 DUP5 DUP5 PUSH1 0x40 MLOAD PUSH1 0x20 ADD PUSH2 0x34E SWAP3 SWAP2 SWAP1 PUSH2 0xA48 JUMP JUMPDEST PUSH1 0x40 MLOAD PUSH1 0x20 DUP2 DUP4 SUB SUB DUP2 MSTORE SWAP1 PUSH1 0x40 MSTORE DUP1 MLOAD SWAP1 PUSH1 0x20 ADD KECCAK256 SWAP1 POP PUSH1 0x0 PUSH2 0x3F2 DUP5 DUP5 DUP1 DUP1 PUSH1 0x20 MUL PUSH1 0x20 ADD PUSH1 0x40 MLOAD SWAP1 DUP2 ADD PUSH1 0x40 MSTORE DUP1 SWAP4 SWAP3 SWAP2 SWAP1 DUP2 DUP2 MSTORE PUSH1 0x20 ADD DUP4 DUP4 PUSH1 0x20 MUL DUP1 DUP3 DUP5 CALLDATACOPY PUSH1 0x0 DUP2 DUP5 ADD MSTORE PUSH1 0x1F NOT PUSH1 0x1F DUP3 ADD AND SWAP1 POP DUP1 DUP4 ADD SWAP3 POP POP POP POP POP POP POP PUSH1 0x0 DUP1 DUP11 PUSH20 0xFFFFFFFFFFFFFFFFFFFFFFFFFFFFFFFFFFFFFFFF AND PUSH20 0xFFFFFFFFFFFFFFFFFFFFFFFFFFFFFFFFFFFFFFFF AND DUP2 MSTORE PUSH1 0x20 ADD SWAP1 DUP2 MSTORE PUSH1 0x20 ADD PUSH1 0x0 KECCAK256 SLOAD DUP5 PUSH2 0x595 JUMP JUMPDEST SWAP1 POP DUP1 PUSH2 0x42B JUMPI PUSH1 0x40 MLOAD PUSH32 0x8A585BE200000000000000000000000000000000000000000000000000000000 DUP2 MSTORE PUSH1 0x4 ADD PUSH1 0x40 MLOAD DUP1 SWAP2 SUB SWAP1 REVERT JUMPDEST PUSH1 0x1 DUP1 PUSH1 0x0 DUP10 PUSH20 0xFFFFFFFFFFFFFFFFFFFFFFFFFFFFFFFFFFFFFFFF AND PUSH20 0xFFFFFFFFFFFFFFFFFFFFFFFFFFFFFFFFFFFFFFFF AND DUP2 MSTORE PUSH1 0x20 ADD SWAP1 DUP2 MSTORE PUSH1 0x20 ADD PUSH1 0x0 KECCAK256 PUSH1 0x0 DUP9 PUSH20 0xFFFFFFFFFFFFFFFFFFFFFFFFFFFFFFFFFFFFFFFF AND PUSH20 0xFFFFFFFFFFFFFFFFFFFFFFFFFFFFFFFFFFFFFFFF AND DUP2 MSTORE PUSH1 0x20 ADD SWAP1 DUP2 MSTORE PUSH1 0x20 ADD PUSH1 0x0 KECCAK256 PUSH1 0x0 PUSH2 0x100 EXP DUP2 SLOAD DUP2 PUSH1 0xFF MUL NOT AND SWAP1 DUP4 ISZERO ISZERO MUL OR SWAP1 SSTORE POP DUP7 PUSH20 0xFFFFFFFFFFFFFFFFFFFFFFFFFFFFFFFFFFFFFFFF AND PUSH4 0xA9059CBB DUP8 DUP8 PUSH1 0x40 MLOAD DUP4 PUSH4 0xFFFFFFFF AND PUSH1 0xE0 SHL DUP2 MSTORE PUSH1 0x4 ADD PUSH2 0x4FA SWAP3 SWAP2 SWAP1 PUSH2 0x95D JUMP JUMPDEST PUSH1 0x20 PUSH1 0x40 MLOAD DUP1 DUP4 SUB DUP2 PUSH1 0x0 DUP8 GAS CALL ISZERO DUP1 ISZERO PUSH2 0x519 JUMPI RETURNDATASIZE PUSH1 0x0 DUP1 RETURNDATACOPY RETURNDATASIZE PUSH1 0x0 REVERT JUMPDEST POP POP POP POP PUSH1 0x40 MLOAD RETURNDATASIZE PUSH1 0x1F NOT PUSH1 0x1F DUP3 ADD AND DUP3 ADD DUP1 PUSH1 0x40 MSTORE POP DUP2 ADD SWAP1 PUSH2 0x53D SWAP2 SWAP1 PUSH2 0x9B2 JUMP JUMPDEST POP DUP6 PUSH20 0xFFFFFFFFFFFFFFFFFFFFFFFFFFFFFFFFFFFFFFFF AND PUSH32 0x47CEE97CB7ACD717B3C0AA1435D004CD5B3C8C57D70DBCEB4E4458BBD60E39D4 DUP7 PUSH1 0x40 MLOAD PUSH2 0x584 SWAP2 SWAP1 PUSH2 0xA74 JUMP JUMPDEST PUSH1 0x40 MLOAD DUP1 SWAP2 SUB SWAP1 LOG2 POP POP POP POP POP POP POP JUMP JUMPDEST PUSH1 0x0 DUP3 PUSH2 0x5A2 DUP6 DUP5 PUSH2 0x5AC JUMP JUMPDEST EQ SWAP1 POP SWAP4 SWAP3 POP POP POP JUMP JUMPDEST PUSH1 0x0 DUP1 DUP3 SWAP1 POP PUSH1 0x0 JUMPDEST DUP5 MLOAD DUP2 LT ISZERO PUSH2 0x5F7 JUMPI PUSH2 0x5E2 DUP3 DUP7 DUP4 DUP2 MLOAD DUP2 LT PUSH2 0x5D5 JUMPI PUSH2 0x5D4 PUSH2 0xA8F JUMP JUMPDEST JUMPDEST PUSH1 0x20 MUL PUSH1 0x20 ADD ADD MLOAD PUSH2 0x602 JUMP JUMPDEST SWAP2 POP DUP1 DUP1 PUSH2 0x5EF SWAP1 PUSH2 0xAED JUMP JUMPDEST SWAP2 POP POP PUSH2 0x5B5 JUMP JUMPDEST POP DUP1 SWAP2 POP POP SWAP3 SWAP2 POP POP JUMP JUMPDEST PUSH1 0x0 DUP2 DUP4 LT PUSH2 0x61A JUMPI PUSH2 0x615 DUP3 DUP5 PUSH2 0x62D JUMP JUMPDEST PUSH2 0x625 JUMP JUMPDEST PUSH2 0x624 DUP4 DUP4 PUSH2 0x62D JUMP JUMPDEST JUMPDEST SWAP1 POP SWAP3 SWAP2 POP POP JUMP JUMPDEST PUSH1 0x0 DUP3 PUSH1 0x0 MSTORE DUP2 PUSH1 0x20 MSTORE PUSH1 0x40 PUSH1 0x0 KECCAK256 SWAP1 POP SWAP3 SWAP2 POP POP JUMP JUMPDEST PUSH1 0x0 DUP1 REVERT JUMPDEST PUSH1 0x0 DUP1 REVERT JUMPDEST PUSH1 0x0 PUSH20 0xFFFFFFFFFFFFFFFFFFFFFFFFFFFFFFFFFFFFFFFF DUP3 AND SWAP1 POP SWAP2 SWAP1 POP JUMP JUMPDEST PUSH1 0x0 PUSH2 0x679 DUP3 PUSH2 0x64E JUMP JUMPDEST SWAP1 POP SWAP2 SWAP1 POP JUMP JUMPDEST PUSH2 0x689 DUP2 PUSH2 0x66E JUMP JUMPDEST DUP2 EQ PUSH2 0x694 JUMPI PUSH1 0x0 DUP1 REVERT JUMPDEST POP JUMP JUMPDEST PUSH1 0x0 DUP2 CALLDATALOAD SWAP1 POP PUSH2 0x6A6 DUP2 PUSH2 0x680 JUMP JUMPDEST SWAP3 SWAP2 POP POP JUMP JUMPDEST PUSH1 0x0 DUP1 PUSH1 0x40 DUP4 DUP6 SUB SLT ISZERO PUSH2 0x6C3 JUMPI PUSH2 0x6C2 PUSH2 0x644 JUMP JUMPDEST JUMPDEST PUSH1 0x0 PUSH2 0x6D1 DUP6 DUP3 DUP7 ADD PUSH2 0x697 JUMP JUMPDEST SWAP3 POP POP PUSH1 0x20 PUSH2 0x6E2 DUP6 DUP3 DUP7 ADD PUSH2 0x697 JUMP JUMPDEST SWAP2 POP POP SWAP3 POP SWAP3 SWAP1 POP JUMP JUMPDEST PUSH1 0x0 DUP2 ISZERO ISZERO SWAP1 POP SWAP2 SWAP1 POP JUMP JUMPDEST PUSH2 0x701 DUP2 PUSH2 0x6EC JUMP JUMPDEST DUP3 MSTORE POP POP JUMP JUMPDEST PUSH1 0x0 PUSH1 0x20 DUP3 ADD SWAP1 POP PUSH2 0x71C PUSH1 0x0 DUP4 ADD DUP5 PUSH2 0x6F8 JUMP JUMPDEST SWAP3 SWAP2 POP POP JUMP JUMPDEST PUSH2 0x72B DUP2 PUSH2 0x66E JUMP JUMPDEST DUP3 MSTORE POP POP JUMP JUMPDEST PUSH1 0x0 PUSH1 0x20 DUP3 ADD SWAP1 POP PUSH2 0x746 PUSH1 0x0 DUP4 ADD DUP5 PUSH2 0x722 JUMP JUMPDEST SWAP3 SWAP2 POP POP JUMP JUMPDEST PUSH1 0x0 PUSH2 0x757 DUP3 PUSH2 0x66E JUMP JUMPDEST SWAP1 POP SWAP2 SWAP1 POP JUMP JUMPDEST PUSH2 0x767 DUP2 PUSH2 0x74C JUMP JUMPDEST DUP2 EQ PUSH2 0x772 JUMPI PUSH1 0x0 DUP1 REVERT JUMPDEST POP JUMP JUMPDEST PUSH1 0x0 DUP2 CALLDATALOAD SWAP1 POP PUSH2 0x784 DUP2 PUSH2 0x75E JUMP JUMPDEST SWAP3 SWAP2 POP POP JUMP JUMPDEST PUSH1 0x0 DUP2 SWAP1 POP SWAP2 SWAP1 POP JUMP JUMPDEST PUSH2 0x79D DUP2 PUSH2 0x78A JUMP JUMPDEST DUP2 EQ PUSH2 0x7A8 JUMPI PUSH1 0x0 DUP1 REVERT JUMPDEST POP JUMP JUMPDEST PUSH1 0x0 DUP2 CALLDATALOAD SWAP1 POP PUSH2 0x7BA DUP2 PUSH2 0x794 JUMP JUMPDEST SWAP3 SWAP2 POP POP JUMP JUMPDEST PUSH1 0x0 DUP1 PUSH1 0x40 DUP4 DUP6 SUB SLT ISZERO PUSH2 0x7D7 JUMPI PUSH2 0x7D6 PUSH2 0x644 JUMP JUMPDEST JUMPDEST PUSH1 0x0 PUSH2 0x7E5 DUP6 DUP3 DUP7 ADD PUSH2 0x775 JUMP JUMPDEST SWAP3 POP POP PUSH1 0x20 PUSH2 0x7F6 DUP6 DUP3 DUP7 ADD PUSH2 0x7AB JUMP JUMPDEST SWAP2 POP POP SWAP3 POP SWAP3 SWAP1 POP JUMP JUMPDEST PUSH1 0x0 PUSH1 0x20 DUP3 DUP5 SUB SLT ISZERO PUSH2 0x816 JUMPI PUSH2 0x815 PUSH2 0x644 JUMP JUMPDEST JUMPDEST PUSH1 0x0 PUSH2 0x824 DUP5 DUP3 DUP6 ADD PUSH2 0x697 JUMP JUMPDEST SWAP2 POP POP SWAP3 SWAP2 POP POP JUMP JUMPDEST PUSH1 0x0 DUP2 SWAP1 POP SWAP2 SWAP1 POP JUMP JUMPDEST PUSH2 0x840 DUP2 PUSH2 0x82D JUMP JUMPDEST DUP3 MSTORE POP POP JUMP JUMPDEST PUSH1 0x0 PUSH1 0x20 DUP3 ADD SWAP1 POP PUSH2 0x85B PUSH1 0x0 DUP4 ADD DUP5 PUSH2 0x837 JUMP JUMPDEST SWAP3 SWAP2 POP POP JUMP JUMPDEST PUSH1 0x0 DUP1 REVERT JUMPDEST PUSH1 0x0 DUP1 REVERT JUMPDEST PUSH1 0x0 DUP1 REVERT JUMPDEST PUSH1 0x0 DUP1 DUP4 PUSH1 0x1F DUP5 ADD SLT PUSH2 0x886 JUMPI PUSH2 0x885 PUSH2 0x861 JUMP JUMPDEST JUMPDEST DUP3 CALLDATALOAD SWAP1 POP PUSH8 0xFFFFFFFFFFFFFFFF DUP2 GT ISZERO PUSH2 0x8A3 JUMPI PUSH2 0x8A2 PUSH2 0x866 JUMP JUMPDEST JUMPDEST PUSH1 0x20 DUP4 ADD SWAP2 POP DUP4 PUSH1 0x20 DUP3 MUL DUP4 ADD GT ISZERO PUSH2 0x8BF JUMPI PUSH2 0x8BE PUSH2 0x86B JUMP JUMPDEST JUMPDEST SWAP3 POP SWAP3 SWAP1 POP JUMP JUMPDEST PUSH1 0x0 DUP1 PUSH1 0x0 DUP1 PUSH1 0x0 PUSH1 0x80 DUP7 DUP9 SUB SLT ISZERO PUSH2 0x8E2 JUMPI PUSH2 0x8E1 PUSH2 0x644 JUMP JUMPDEST JUMPDEST PUSH1 0x0 PUSH2 0x8F0 DUP9 DUP3 DUP10 ADD PUSH2 0x697 JUMP JUMPDEST SWAP6 POP POP PUSH1 0x20 PUSH2 0x901 DUP9 DUP3 DUP10 ADD PUSH2 0x697 JUMP JUMPDEST SWAP5 POP POP PUSH1 0x40 PUSH2 0x912 DUP9 DUP3 DUP10 ADD PUSH2 0x7AB JUMP JUMPDEST SWAP4 POP POP PUSH1 0x60 DUP7 ADD CALLDATALOAD PUSH8 0xFFFFFFFFFFFFFFFF DUP2 GT ISZERO PUSH2 0x933 JUMPI PUSH2 0x932 PUSH2 0x649 JUMP JUMPDEST JUMPDEST PUSH2 0x93F DUP9 DUP3 DUP10 ADD PUSH2 0x870 JUMP JUMPDEST SWAP3 POP SWAP3 POP POP SWAP3 SWAP6 POP SWAP3 SWAP6 SWAP1 SWAP4 POP JUMP JUMPDEST PUSH2 0x957 DUP2 PUSH2 0x78A JUMP JUMPDEST DUP3 MSTORE POP POP JUMP JUMPDEST PUSH1 0x0 PUSH1 0x40 DUP3 ADD SWAP1 POP PUSH2 0x972 PUSH1 0x0 DUP4 ADD DUP6 PUSH2 0x722 JUMP JUMPDEST PUSH2 0x97F PUSH1 0x20 DUP4 ADD DUP5 PUSH2 0x94E JUMP JUMPDEST SWAP4 SWAP3 POP POP POP JUMP JUMPDEST PUSH2 0x98F DUP2 PUSH2 0x6EC JUMP JUMPDEST DUP2 EQ PUSH2 0x99A JUMPI PUSH1 0x0 DUP1 REVERT JUMPDEST POP JUMP JUMPDEST PUSH1 0x0 DUP2 MLOAD SWAP1 POP PUSH2 0x9AC DUP2 PUSH2 0x986 JUMP JUMPDEST SWAP3 SWAP2 POP POP JUMP JUMPDEST PUSH1 0x0 PUSH1 0x20 DUP3 DUP5 SUB SLT ISZERO PUSH2 0x9C8 JUMPI PUSH2 0x9C7 PUSH2 0x644 JUMP JUMPDEST JUMPDEST PUSH1 0x0 PUSH2 0x9D6 DUP5 DUP3 DUP6 ADD PUSH2 0x99D JUMP JUMPDEST SWAP2 POP POP SWAP3 SWAP2 POP POP JUMP JUMPDEST PUSH1 0x0 DUP2 PUSH1 0x60 SHL SWAP1 POP SWAP2 SWAP1 POP JUMP JUMPDEST PUSH1 0x0 PUSH2 0x9F7 DUP3 PUSH2 0x9DF JUMP JUMPDEST SWAP1 POP SWAP2 SWAP1 POP JUMP JUMPDEST PUSH1 0x0 PUSH2 0xA09 DUP3 PUSH2 0x9EC JUMP JUMPDEST SWAP1 POP SWAP2 SWAP1 POP JUMP JUMPDEST PUSH2 0xA21 PUSH2 0xA1C DUP3 PUSH2 0x66E JUMP JUMPDEST PUSH2 0x9FE JUMP JUMPDEST DUP3 MSTORE POP POP JUMP JUMPDEST PUSH1 0x0 DUP2 SWAP1 POP SWAP2 SWAP1 POP JUMP JUMPDEST PUSH2 0xA42 PUSH2 0xA3D DUP3 PUSH2 0x78A JUMP JUMPDEST PUSH2 0xA27 JUMP JUMPDEST DUP3 MSTORE POP POP JUMP JUMPDEST PUSH1 0x0 PUSH2 0xA54 DUP3 DUP6 PUSH2 0xA10 JUMP JUMPDEST PUSH1 0x14 DUP3 ADD SWAP2 POP PUSH2 0xA64 DUP3 DUP5 PUSH2 0xA31 JUMP JUMPDEST PUSH1 0x20 DUP3 ADD SWAP2 POP DUP2 SWAP1 POP SWAP4 SWAP3 POP POP POP JUMP JUMPDEST PUSH1 0x0 PUSH1 0x20 DUP3 ADD SWAP1 POP PUSH2 0xA89 PUSH1 0x0 DUP4 ADD DUP5 PUSH2 0x94E JUMP JUMPDEST SWAP3 SWAP2 POP POP JUMP JUMPDEST PUSH32 0x4E487B7100000000000000000000000000000000000000000000000000000000 PUSH1 0x0 MSTORE PUSH1 0x32 PUSH1 0x4 MSTORE PUSH1 0x24 PUSH1 0x0 REVERT JUMPDEST PUSH32 0x4E487B7100000000000000000000000000000000000000000000000000000000 PUSH1 0x0 MSTORE PUSH1 0x11 PUSH1 0x4 MSTORE PUSH1 0x24 PUSH1 0x0 REVERT JUMPDEST PUSH1 0x0 PUSH2 0xAF8 DUP3 PUSH2 0x78A JUMP JUMPDEST SWAP2 POP PUSH32 0xFFFFFFFFFFFFFFFFFFFFFFFFFFFFFFFFFFFFFFFFFFFFFFFFFFFFFFFFFFFFFFFF DUP3 SUB PUSH2 0xB2A JUMPI PUSH2 0xB29 PUSH2 0xABE JUMP JUMPDEST JUMPDEST PUSH1 0x1 DUP3 ADD SWAP1 POP SWAP2 SWAP1 POP JUMP INVALID LOG2 PUSH5 0x6970667358 0x22 SLT KECCAK256 0xB0 0xE2 CALLDATALOAD PUSH27 0x4B8F7FCD97FBE997457223778AB06DD0747E38CFAEBDDCC203E092 CALLDATACOPY PUSH5 0x736F6C6343 STOP ADDMOD GT STOP CALLER "
				},
				"gasEstimates": {
					"creation": {
						"codeDepositCost": "584600",
						"executionCost": "infinite",
						"totalCost": "infinite"
					},
					"external": {
						"DAO()": "infinite",
						"claim(address,address,uint256,bytes32[])": "infinite",
						"hasClaimed(address,address)": "infinite",
						"merkleRoots(address)": "2858",
						"protocolFallback(address,uint256)": "infinite"
					}
				},
				"methodIdentifiers": {
					"DAO()": "98fabd3a",
					"claim(address,address,uint256,bytes32[])": "fabed412",
					"hasClaimed(address,address)": "89266f60",
					"merkleRoots(address)": "ae9a6808",
					"protocolFallback(address,uint256)": "a7537986"
				}
			},
			"storageLayout": {
				"storage": [
					{
						"astId": 591,
						"contract": "src/MerkleClaimERC20.sol:MerkleClaimERC20",
						"label": "merkleRoots",
						"offset": 0,
						"slot": "0",
						"type": "t_mapping(t_address,t_bytes32)"
					},
					{
						"astId": 601,
						"contract": "src/MerkleClaimERC20.sol:MerkleClaimERC20",
						"label": "hasClaimed",
						"offset": 0,
						"slot": "1",
						"type": "t_mapping(t_address,t_mapping(t_address,t_bool))"
					}
				],
				"types": {
					"t_address": {
						"encoding": "inplace",
						"label": "address",
						"numberOfBytes": "20"
					},
					"t_bool": {
						"encoding": "inplace",
						"label": "bool",
						"numberOfBytes": "1"
					},
					"t_bytes32": {
						"encoding": "inplace",
						"label": "bytes32",
						"numberOfBytes": "32"
					},
					"t_mapping(t_address,t_bool)": {
						"encoding": "mapping",
						"key": "t_address",
						"label": "mapping(address => bool)",
						"numberOfBytes": "32",
						"value": "t_bool"
					},
					"t_mapping(t_address,t_bytes32)": {
						"encoding": "mapping",
						"key": "t_address",
						"label": "mapping(address => bytes32)",
						"numberOfBytes": "32",
						"value": "t_bytes32"
					},
					"t_mapping(t_address,t_mapping(t_address,t_bool))": {
						"encoding": "mapping",
						"key": "t_address",
						"label": "mapping(address => mapping(address => bool))",
						"numberOfBytes": "32",
						"value": "t_mapping(t_address,t_bool)"
					}
				}
			},
			"userdoc": {
				"errors": {
					"AlreadyClaimed()": [
						{
							"notice": "Thrown if address has already claimed"
						}
					],
					"NotInMerkle()": [
						{
							"notice": "Thrown if address/amount are not part of Merkle tree"
						}
					]
				},
				"events": {
					"Claim(address,uint256)": {
						"notice": "Emitted after a successful token claim"
					}
				},
				"kind": "user",
				"methods": {
					"claim(address,address,uint256,bytes32[])": {
						"notice": "Allows claiming tokens if address is part of merkle tree"
					},
					"constructor": {
						"notice": "Creates a new MerkleClaimERC20 contract for already existing ERC20"
					},
					"hasClaimed(address,address)": {
						"notice": "Mapping of addresses who have claimed tokens"
					},
					"merkleRoots(address)": {
						"notice": "ERC20-claimee inclusion root"
					}
				},
				"notice": "ERC20 claimable by members of a merkle tree",
				"version": 1
			}
		}
	}
}